{
  "_format": "hh-sol-artifact-1",
  "contractName": "Asset",
  "sourceName": "contracts/Asset.sol",
  "abi": [
    {
      "anonymous": false,
      "inputs": [
        {
          "indexed": true,
          "internalType": "address",
          "name": "owner",
          "type": "address"
        },
        {
          "indexed": true,
          "internalType": "address",
          "name": "approved",
          "type": "address"
        },
        {
          "indexed": true,
          "internalType": "uint256",
          "name": "tokenId",
          "type": "uint256"
        }
      ],
      "name": "Approval",
      "type": "event"
    },
    {
      "anonymous": false,
      "inputs": [
        {
          "indexed": true,
          "internalType": "address",
          "name": "owner",
          "type": "address"
        },
        {
          "indexed": true,
          "internalType": "address",
          "name": "operator",
          "type": "address"
        },
        {
          "indexed": false,
          "internalType": "bool",
          "name": "approved",
          "type": "bool"
        }
      ],
      "name": "ApprovalForAll",
      "type": "event"
    },
    {
      "anonymous": false,
      "inputs": [
        {
          "indexed": false,
          "internalType": "uint8",
          "name": "version",
          "type": "uint8"
        }
      ],
      "name": "Initialized",
      "type": "event"
    },
    {
      "anonymous": false,
      "inputs": [
        {
          "indexed": false,
          "internalType": "address",
          "name": "account",
          "type": "address"
        }
      ],
      "name": "Paused",
      "type": "event"
    },
    {
      "anonymous": false,
      "inputs": [
        {
          "indexed": true,
          "internalType": "bytes32",
          "name": "role",
          "type": "bytes32"
        },
        {
          "indexed": true,
          "internalType": "bytes32",
          "name": "previousAdminRole",
          "type": "bytes32"
        },
        {
          "indexed": true,
          "internalType": "bytes32",
          "name": "newAdminRole",
          "type": "bytes32"
        }
      ],
      "name": "RoleAdminChanged",
      "type": "event"
    },
    {
      "anonymous": false,
      "inputs": [
        {
          "indexed": true,
          "internalType": "bytes32",
          "name": "role",
          "type": "bytes32"
        },
        {
          "indexed": true,
          "internalType": "address",
          "name": "account",
          "type": "address"
        },
        {
          "indexed": true,
          "internalType": "address",
          "name": "sender",
          "type": "address"
        }
      ],
      "name": "RoleGranted",
      "type": "event"
    },
    {
      "anonymous": false,
      "inputs": [
        {
          "indexed": true,
          "internalType": "bytes32",
          "name": "role",
          "type": "bytes32"
        },
        {
          "indexed": true,
          "internalType": "address",
          "name": "account",
          "type": "address"
        },
        {
          "indexed": true,
          "internalType": "address",
          "name": "sender",
          "type": "address"
        }
      ],
      "name": "RoleRevoked",
      "type": "event"
    },
    {
      "anonymous": false,
      "inputs": [
        {
          "indexed": true,
          "internalType": "address",
          "name": "from",
          "type": "address"
        },
        {
          "indexed": true,
          "internalType": "address",
          "name": "to",
          "type": "address"
        },
        {
          "indexed": true,
          "internalType": "uint256",
          "name": "tokenId",
          "type": "uint256"
        }
      ],
      "name": "Transfer",
      "type": "event"
    },
    {
      "anonymous": false,
      "inputs": [
        {
          "indexed": false,
          "internalType": "address",
          "name": "account",
          "type": "address"
        }
      ],
      "name": "Unpaused",
      "type": "event"
    },
    {
      "inputs": [],
      "name": "DEFAULT_ADMIN_ROLE",
      "outputs": [
        {
          "internalType": "bytes32",
          "name": "",
          "type": "bytes32"
        }
      ],
      "stateMutability": "view",
      "type": "function"
    },
    {
      "inputs": [],
      "name": "HANDLER",
      "outputs": [
        {
          "internalType": "bytes32",
          "name": "",
          "type": "bytes32"
        }
      ],
      "stateMutability": "view",
      "type": "function"
    },
    {
      "inputs": [
        {
          "internalType": "uint256",
          "name": "_tokenId",
          "type": "uint256"
        }
      ],
      "name": "_getTokenAsset",
      "outputs": [
        {
          "internalType": "uint256",
          "name": "",
          "type": "uint256"
        }
      ],
      "stateMutability": "pure",
      "type": "function"
    },
    {
      "inputs": [
        {
          "internalType": "address",
          "name": "to",
          "type": "address"
        },
        {
          "internalType": "uint256",
          "name": "tokenId",
          "type": "uint256"
        }
      ],
      "name": "approve",
      "outputs": [],
      "stateMutability": "nonpayable",
      "type": "function"
    },
    {
      "inputs": [
        {
          "internalType": "uint256",
          "name": "",
          "type": "uint256"
        }
      ],
      "name": "assetPaused",
      "outputs": [
        {
          "internalType": "bool",
          "name": "",
          "type": "bool"
        }
      ],
      "stateMutability": "view",
      "type": "function"
    },
    {
      "inputs": [
        {
          "internalType": "uint256",
          "name": "",
          "type": "uint256"
        }
      ],
      "name": "assetRevToken",
      "outputs": [
        {
          "internalType": "contract IERC20Upgradeable",
          "name": "",
          "type": "address"
        }
      ],
      "stateMutability": "view",
      "type": "function"
    },
    {
      "inputs": [
        {
          "internalType": "address",
          "name": "owner",
          "type": "address"
        }
      ],
      "name": "balanceOf",
      "outputs": [
        {
          "internalType": "uint256",
          "name": "",
          "type": "uint256"
        }
      ],
      "stateMutability": "view",
      "type": "function"
    },
    {
      "inputs": [
        {
          "internalType": "uint256",
          "name": "",
          "type": "uint256"
        }
      ],
      "name": "claimedRev",
      "outputs": [
        {
          "internalType": "uint256",
          "name": "",
          "type": "uint256"
        }
      ],
      "stateMutability": "view",
      "type": "function"
    },
    {
      "inputs": [
        {
          "internalType": "uint256",
          "name": "tokenId",
          "type": "uint256"
        }
      ],
      "name": "getApproved",
      "outputs": [
        {
          "internalType": "address",
          "name": "",
          "type": "address"
        }
      ],
      "stateMutability": "view",
      "type": "function"
    },
    {
      "inputs": [
        {
          "internalType": "bytes32",
          "name": "role",
          "type": "bytes32"
        }
      ],
      "name": "getRoleAdmin",
      "outputs": [
        {
          "internalType": "bytes32",
          "name": "",
          "type": "bytes32"
        }
      ],
      "stateMutability": "view",
      "type": "function"
    },
    {
      "inputs": [
        {
          "internalType": "bytes32",
          "name": "role",
          "type": "bytes32"
        },
        {
          "internalType": "address",
          "name": "account",
          "type": "address"
        }
      ],
      "name": "grantRole",
      "outputs": [],
      "stateMutability": "nonpayable",
      "type": "function"
    },
    {
      "inputs": [
        {
          "internalType": "bytes32",
          "name": "role",
          "type": "bytes32"
        },
        {
          "internalType": "address",
          "name": "account",
          "type": "address"
        }
      ],
      "name": "hasRole",
      "outputs": [
        {
          "internalType": "bool",
          "name": "",
          "type": "bool"
        }
      ],
      "stateMutability": "view",
      "type": "function"
    },
    {
      "inputs": [
        {
          "internalType": "address",
          "name": "owner",
          "type": "address"
        },
        {
          "internalType": "address",
          "name": "operator",
          "type": "address"
        }
      ],
      "name": "isApprovedForAll",
      "outputs": [
        {
          "internalType": "bool",
          "name": "",
          "type": "bool"
        }
      ],
      "stateMutability": "view",
      "type": "function"
    },
    {
      "inputs": [
        {
          "internalType": "address",
          "name": "",
          "type": "address"
        }
      ],
      "name": "isWhitelisted",
      "outputs": [
        {
          "internalType": "bool",
          "name": "",
          "type": "bool"
        }
      ],
      "stateMutability": "view",
      "type": "function"
    },
    {
      "inputs": [
        {
          "internalType": "uint256",
          "name": "",
          "type": "uint256"
        }
      ],
      "name": "lastId",
      "outputs": [
        {
          "internalType": "uint256",
          "name": "",
          "type": "uint256"
        }
      ],
      "stateMutability": "view",
      "type": "function"
    },
    {
      "inputs": [],
      "name": "name",
      "outputs": [
        {
          "internalType": "string",
          "name": "",
          "type": "string"
        }
      ],
      "stateMutability": "view",
      "type": "function"
    },
    {
      "inputs": [
        {
          "internalType": "uint256",
          "name": "",
          "type": "uint256"
        }
      ],
      "name": "nextId",
      "outputs": [
        {
          "internalType": "uint256",
          "name": "",
          "type": "uint256"
        }
      ],
      "stateMutability": "view",
      "type": "function"
    },
    {
      "inputs": [
        {
          "internalType": "uint256",
          "name": "tokenId",
          "type": "uint256"
        }
      ],
      "name": "ownerOf",
      "outputs": [
        {
          "internalType": "address",
          "name": "",
          "type": "address"
        }
      ],
      "stateMutability": "view",
      "type": "function"
    },
    {
      "inputs": [],
      "name": "paused",
      "outputs": [
        {
          "internalType": "bool",
          "name": "",
          "type": "bool"
        }
      ],
      "stateMutability": "view",
      "type": "function"
    },
    {
      "inputs": [
        {
          "internalType": "bytes32",
          "name": "role",
          "type": "bytes32"
        },
        {
          "internalType": "address",
          "name": "account",
          "type": "address"
        }
      ],
      "name": "renounceRole",
      "outputs": [],
      "stateMutability": "nonpayable",
      "type": "function"
    },
    {
      "inputs": [
        {
          "internalType": "bytes32",
          "name": "role",
          "type": "bytes32"
        },
        {
          "internalType": "address",
          "name": "account",
          "type": "address"
        }
      ],
      "name": "revokeRole",
      "outputs": [],
      "stateMutability": "nonpayable",
      "type": "function"
    },
    {
      "inputs": [
        {
          "internalType": "address",
          "name": "from",
          "type": "address"
        },
        {
          "internalType": "address",
          "name": "to",
          "type": "address"
        },
        {
          "internalType": "uint256",
          "name": "tokenId",
          "type": "uint256"
        }
      ],
      "name": "safeTransferFrom",
      "outputs": [],
      "stateMutability": "nonpayable",
      "type": "function"
    },
    {
      "inputs": [
        {
          "internalType": "address",
          "name": "from",
          "type": "address"
        },
        {
          "internalType": "address",
          "name": "to",
          "type": "address"
        },
        {
          "internalType": "uint256",
          "name": "tokenId",
          "type": "uint256"
        },
        {
          "internalType": "bytes",
          "name": "data",
          "type": "bytes"
        }
      ],
      "name": "safeTransferFrom",
      "outputs": [],
      "stateMutability": "nonpayable",
      "type": "function"
    },
    {
      "inputs": [
        {
          "internalType": "address",
          "name": "operator",
          "type": "address"
        },
        {
          "internalType": "bool",
          "name": "approved",
          "type": "bool"
        }
      ],
      "name": "setApprovalForAll",
      "outputs": [],
      "stateMutability": "nonpayable",
      "type": "function"
    },
    {
      "inputs": [
        {
          "internalType": "bytes4",
          "name": "interfaceId",
          "type": "bytes4"
        }
      ],
      "name": "supportsInterface",
      "outputs": [
        {
          "internalType": "bool",
          "name": "",
          "type": "bool"
        }
      ],
      "stateMutability": "view",
      "type": "function"
    },
    {
      "inputs": [],
      "name": "symbol",
      "outputs": [
        {
          "internalType": "string",
          "name": "",
          "type": "string"
        }
      ],
      "stateMutability": "view",
      "type": "function"
    },
    {
      "inputs": [
        {
          "internalType": "uint256",
          "name": "_tokenId",
          "type": "uint256"
        }
      ],
      "name": "tokenURI",
      "outputs": [
        {
          "internalType": "string",
          "name": "",
          "type": "string"
        }
      ],
      "stateMutability": "view",
      "type": "function"
    },
    {
      "inputs": [
        {
          "internalType": "uint256",
          "name": "",
          "type": "uint256"
        }
      ],
      "name": "totalShareRev",
      "outputs": [
        {
          "internalType": "uint256",
          "name": "",
          "type": "uint256"
        }
      ],
      "stateMutability": "view",
      "type": "function"
    },
    {
      "inputs": [
        {
          "internalType": "address",
          "name": "from",
          "type": "address"
        },
        {
          "internalType": "address",
          "name": "to",
          "type": "address"
        },
        {
          "internalType": "uint256",
          "name": "tokenId",
          "type": "uint256"
        }
      ],
      "name": "transferFrom",
      "outputs": [],
      "stateMutability": "nonpayable",
      "type": "function"
    }
  ],
  "bytecode": "0x608060405234801561001057600080fd5b50611a3c806100206000396000f3fe608060405234801561001057600080fd5b50600436106101cf5760003560e01c806370a0823111610104578063a22cb465116100a2578063c87b56dd11610071578063c87b56dd1461044b578063cf0b3a511461045e578063d547741f14610488578063e985e9c51461049b57600080fd5b8063a22cb465146103dd578063ac2b2055146103f0578063b88d4fde14610411578063b9a289941461042457600080fd5b806391d14854116100de57806391d148541461039a57806392877ddc146103ad57806395d89b41146103cd578063a217fddf146103d557600080fd5b806370a082311461034557806376ee32c11461035857806386ed41171461037957600080fd5b8063248a9ca3116101715780633af32abf1161014b5780633af32abf146102f157806342842e0e146103145780635c975abb146103275780636352211e1461033257600080fd5b8063248a9ca3146102a85780632f2ff15d146102cb57806336568abe146102de57600080fd5b8063095ea7b3116101ad578063095ea7b31461023c578063220f27eb1461025157806323b40c0b1461027457806323b872dd1461029557600080fd5b806301ffc9a7146101d457806306fdde03146101fc578063081812fc14610211575b600080fd5b6101e76101e2366004611643565b6104d7565b60405190151581526020015b60405180910390f35b6102046104e8565b6040516101f391906117cc565b61022461021f366004611609565b61057a565b6040516001600160a01b0390911681526020016101f3565b61024f61024a3660046115e0565b6105a1565b005b6101e761025f366004611609565b60fe6020526000908152604090205460ff1681565b610287610282366004611609565b6106bc565b6040519081526020016101f3565b61024f6102a33660046114c8565b6106cc565b6102876102b6366004611609565b60009081526097602052604090206001015490565b61024f6102d9366004611621565b6106fd565b61024f6102ec366004611621565b610722565b6101e76102ff36600461147c565b60fc6020526000908152604090205460ff1681565b61024f6103223660046114c8565b6107a0565b60c95460ff166101e7565b610224610340366004611609565b6107bb565b61028761035336600461147c565b61081b565b610287610366366004611609565b6101006020526000908152604090205481565b610287610387366004611609565b6101036020526000908152604090205481565b6101e76103a8366004611621565b6108a1565b6102876103bb366004611609565b60ff6020526000908152604090205481565b6102046108cc565b610287600081565b61024f6103eb3660046115a6565b6108db565b6102876103fe366004611609565b6101026020526000908152604090205481565b61024f61041f366004611503565b6108e6565b6102877ff40ec076ff2e3a403e1c18632267861d39085e7f359ca5665846f335632cf81981565b610204610459366004611609565b61091e565b61022461046c366004611609565b610101602052600090815260409020546001600160a01b031681565b61024f610496366004611621565b610a23565b6101e76104a9366004611496565b6001600160a01b039182166000908152606a6020908152604080832093909416825291909152205460ff1690565b60006104e282610a48565b92915050565b6060606580546104f790611989565b80601f016020809104026020016040519081016040528092919081815260200182805461052390611989565b80156105705780601f1061054557610100808354040283529160200191610570565b820191906000526020600020905b81548152906001019060200180831161055357829003601f168201915b5050505050905090565b600061058582610a6d565b506000908152606960205260409020546001600160a01b031690565b60006105ac826107bb565b9050806001600160a01b0316836001600160a01b0316141561061f5760405162461bcd60e51b815260206004820152602160248201527f4552433732313a20617070726f76616c20746f2063757272656e74206f776e656044820152603960f91b60648201526084015b60405180910390fd5b336001600160a01b038216148061063b575061063b81336104a9565b6106ad5760405162461bcd60e51b815260206004820152603e60248201527f4552433732313a20617070726f76652063616c6c6572206973206e6f7420746f60448201527f6b656e206f776e6572206e6f7220617070726f76656420666f7220616c6c00006064820152608401610616565b6106b78383610acf565b505050565b60006104e2633b9aca00836118f0565b6106d63382610b3d565b6106f25760405162461bcd60e51b815260040161061690611831565b6106b7838383610bbc565b60008281526097602052604090206001015461071881610d63565b6106b78383610d6d565b6001600160a01b03811633146107925760405162461bcd60e51b815260206004820152602f60248201527f416363657373436f6e74726f6c3a2063616e206f6e6c792072656e6f756e636560448201526e103937b632b9903337b91039b2b63360891b6064820152608401610616565b61079c8282610df3565b5050565b6106b7838383604051806020016040528060008152506108e6565b6000818152606760205260408120546001600160a01b0316806104e25760405162461bcd60e51b8152602060048201526018602482015277115490cdcc8c4e881a5b9d985b1a59081d1bdad95b88125160421b6044820152606401610616565b60006001600160a01b0382166108855760405162461bcd60e51b815260206004820152602960248201527f4552433732313a2061646472657373207a65726f206973206e6f7420612076616044820152683634b21037bbb732b960b91b6064820152608401610616565b506001600160a01b031660009081526068602052604090205490565b60009182526097602090815260408084206001600160a01b0393909316845291905290205460ff1690565b6060606680546104f790611989565b61079c338383610e5a565b6108f03383610b3d565b61090c5760405162461bcd60e51b815260040161061690611831565b61091884848484610f29565b50505050565b6000818152606760205260409020546060906001600160a01b031661099d5760405162461bcd60e51b815260206004820152602f60248201527f4552433732314d657461646174613a2055524920717565727920666f72206e6f60448201526e3732bc34b9ba32b73a103a37b5b2b760891b6064820152608401610616565b60fb5460405163d8bcda2760e01b8152306004820152602481018490526001600160a01b039091169063d8bcda279060440160006040518083038186803b1580156109e757600080fd5b505afa1580156109fb573d6000803e3d6000fd5b505050506040513d6000823e601f3d908101601f191682016040526104e2919081019061167b565b600082815260976020526040902060010154610a3e81610d63565b6106b78383610df3565b60006001600160e01b03198216637965db0b60e01b14806104e257506104e282610f5c565b6000818152606760205260409020546001600160a01b0316610acc5760405162461bcd60e51b8152602060048201526018602482015277115490cdcc8c4e881a5b9d985b1a59081d1bdad95b88125160421b6044820152606401610616565b50565b600081815260696020526040902080546001600160a01b0319166001600160a01b0384169081179091558190610b04826107bb565b6001600160a01b03167f8c5be1e5ebec7d5bd14f71427d1e84f3dd0314c0f7b2291e5b200ac8c7c3b92560405160405180910390a45050565b600080610b49836107bb565b9050806001600160a01b0316846001600160a01b03161480610b9057506001600160a01b038082166000908152606a602090815260408083209388168352929052205460ff165b80610bb45750836001600160a01b0316610ba98461057a565b6001600160a01b0316145b949350505050565b826001600160a01b0316610bcf826107bb565b6001600160a01b031614610c335760405162461bcd60e51b815260206004820152602560248201527f4552433732313a207472616e736665722066726f6d20696e636f72726563742060448201526437bbb732b960d91b6064820152608401610616565b6001600160a01b038216610c955760405162461bcd60e51b8152602060048201526024808201527f4552433732313a207472616e7366657220746f20746865207a65726f206164646044820152637265737360e01b6064820152608401610616565b610ca0838383610fac565b610cab600082610acf565b6001600160a01b0383166000908152606860205260408120805460019290610cd490849061192f565b90915550506001600160a01b0382166000908152606860205260408120805460019290610d029084906118d8565b909155505060008181526067602052604080822080546001600160a01b0319166001600160a01b0386811691821790925591518493918716917fddf252ad1be2c89b69c2b068fc378daa952ba7f163c4a11628f55a4df523b3ef91a4505050565b610acc8133611106565b610d7782826108a1565b61079c5760008281526097602090815260408083206001600160a01b03851684529091529020805460ff19166001179055610daf3390565b6001600160a01b0316816001600160a01b0316837f2f8788117e7eff1d82e926ec794901d17c78024a50270940304540a733656f0d60405160405180910390a45050565b610dfd82826108a1565b1561079c5760008281526097602090815260408083206001600160a01b0385168085529252808320805460ff1916905551339285917ff6391f5c32d9c69d2a47ea670b442974b53935d1edc7fd64eb21e047a839171b9190a45050565b816001600160a01b0316836001600160a01b03161415610ebc5760405162461bcd60e51b815260206004820152601960248201527f4552433732313a20617070726f766520746f2063616c6c6572000000000000006044820152606401610616565b6001600160a01b038381166000818152606a6020908152604080832094871680845294825291829020805460ff191686151590811790915591519182527f17307eab39ab6107e8899845ad3d59bd9653f200f220920489ca2b5937696c31910160405180910390a3505050565b610f34848484610bbc565b610f408484848461116a565b6109185760405162461bcd60e51b8152600401610616906117df565b60006001600160e01b031982166380ac58cd60e01b1480610f8d57506001600160e01b03198216635b5e139f60e01b145b806104e257506301ffc9a760e01b6001600160e01b03198316146104e2565b6001600160a01b0383161580610fca57506001600160a01b03831630145b6106b75760fd5460ff16156110215760405162461bcd60e51b815260206004820152601e60248201527f5472616e7366657273206172652063757272656e746c792070617573656400006044820152606401610616565b60fe600061102e836106bc565b815260208101919091526040016000205460ff16156110815760405162461bcd60e51b815260206004820152600f60248201526e105cdcd95d081a5cc81c185d5cd959608a1b6044820152606401610616565b6001600160a01b038316600090815260fc602052604090205460ff1680156110c157506001600160a01b038216600090815260fc602052604090205460ff165b6106b75760405162461bcd60e51b815260206004820152601660248201527524b73b30b634b2103a37b5b2b7103a3930b739b332b960511b6044820152606401610616565b61111082826108a1565b61079c57611128816001600160a01b03166014611277565b611133836020611277565b60405160200161114492919061171a565b60408051601f198184030181529082905262461bcd60e51b8252610616916004016117cc565b60006001600160a01b0384163b1561126c57604051630a85bd0160e11b81526001600160a01b0385169063150b7a02906111ae90339089908890889060040161178f565b602060405180830381600087803b1580156111c857600080fd5b505af19250505080156111f8575060408051601f3d908101601f191682019092526111f59181019061165f565b60015b611252573d808015611226576040519150601f19603f3d011682016040523d82523d6000602084013e61122b565b606091505b50805161124a5760405162461bcd60e51b8152600401610616906117df565b805181602001fd5b6001600160e01b031916630a85bd0160e11b149050610bb4565b506001949350505050565b60606000611286836002611910565b6112919060026118d8565b67ffffffffffffffff8111156112b757634e487b7160e01b600052604160045260246000fd5b6040519080825280601f01601f1916602001820160405280156112e1576020820181803683370190505b509050600360fc1b8160008151811061130a57634e487b7160e01b600052603260045260246000fd5b60200101906001600160f81b031916908160001a905350600f60fb1b8160018151811061134757634e487b7160e01b600052603260045260246000fd5b60200101906001600160f81b031916908160001a905350600061136b846002611910565b6113769060016118d8565b90505b600181111561140a576f181899199a1a9b1b9c1cb0b131b232b360811b85600f16601081106113b857634e487b7160e01b600052603260045260246000fd5b1a60f81b8282815181106113dc57634e487b7160e01b600052603260045260246000fd5b60200101906001600160f81b031916908160001a90535060049490941c9361140381611972565b9050611379565b5083156114595760405162461bcd60e51b815260206004820181905260248201527f537472696e67733a20686578206c656e67746820696e73756666696369656e746044820152606401610616565b9392505050565b80356001600160a01b038116811461147757600080fd5b919050565b60006020828403121561148d578081fd5b61145982611460565b600080604083850312156114a8578081fd5b6114b183611460565b91506114bf60208401611460565b90509250929050565b6000806000606084860312156114dc578081fd5b6114e584611460565b92506114f360208501611460565b9150604084013590509250925092565b60008060008060808587031215611518578081fd5b61152185611460565b935061152f60208601611460565b925060408501359150606085013567ffffffffffffffff811115611551578182fd5b8501601f81018713611561578182fd5b803561157461156f826118b0565b61187f565b818152886020838501011115611588578384fd5b81602084016020830137908101602001929092525092959194509250565b600080604083850312156115b8578182fd5b6115c183611460565b9150602083013580151581146115d5578182fd5b809150509250929050565b600080604083850312156115f2578182fd5b6115fb83611460565b946020939093013593505050565b60006020828403121561161a578081fd5b5035919050565b60008060408385031215611633578182fd5b823591506114bf60208401611460565b600060208284031215611654578081fd5b8135611459816119f0565b600060208284031215611670578081fd5b8151611459816119f0565b60006020828403121561168c578081fd5b815167ffffffffffffffff8111156116a2578182fd5b8201601f810184136116b2578182fd5b80516116c061156f826118b0565b8181528560208385010111156116d4578384fd5b6116e5826020830160208601611946565b95945050505050565b60008151808452611706816020860160208601611946565b601f01601f19169290920160200192915050565b7f416363657373436f6e74726f6c3a206163636f756e7420000000000000000000815260008351611752816017850160208801611946565b7001034b99036b4b9b9b4b733903937b6329607d1b6017918401918201528351611783816028840160208801611946565b01602801949350505050565b6001600160a01b03858116825284166020820152604081018390526080606082018190526000906117c2908301846116ee565b9695505050505050565b60208152600061145960208301846116ee565b60208082526032908201527f4552433732313a207472616e7366657220746f206e6f6e20455243373231526560408201527131b2b4bb32b91034b6b83632b6b2b73a32b960711b606082015260800190565b6020808252602e908201527f4552433732313a2063616c6c6572206973206e6f7420746f6b656e206f776e6560408201526d1c881b9bdc88185c1c1c9bdd995960921b606082015260800190565b604051601f8201601f1916810167ffffffffffffffff811182821017156118a8576118a86119da565b604052919050565b600067ffffffffffffffff8211156118ca576118ca6119da565b50601f01601f191660200190565b600082198211156118eb576118eb6119c4565b500190565b60008261190b57634e487b7160e01b81526012600452602481fd5b500490565b600081600019048311821515161561192a5761192a6119c4565b500290565b600082821015611941576119416119c4565b500390565b60005b83811015611961578181015183820152602001611949565b838111156109185750506000910152565b600081611981576119816119c4565b506000190190565b600181811c9082168061199d57607f821691505b602082108114156119be57634e487b7160e01b600052602260045260246000fd5b50919050565b634e487b7160e01b600052601160045260246000fd5b634e487b7160e01b600052604160045260246000fd5b6001600160e01b031981168114610acc57600080fdfea2646970667358221220c635bce34136e03f2373b8883b96c569c04fc5b6fa55bde765a3931a649a1c2a64736f6c63430008040033",
  "linkReferences": {},
  "deployedLinkReferences": {}
}