{
  "_format": "hh-sol-artifact-1",
  "contractName": "Asset",
  "sourceName": "contracts/Asset.sol",
  "abi": [
    {
      "anonymous": false,
      "inputs": [
        {
          "indexed": true,
          "internalType": "address",
          "name": "owner",
          "type": "address"
        },
        {
          "indexed": true,
          "internalType": "address",
          "name": "approved",
          "type": "address"
        },
        {
          "indexed": true,
          "internalType": "uint256",
          "name": "tokenId",
          "type": "uint256"
        }
      ],
      "name": "Approval",
      "type": "event"
    },
    {
      "anonymous": false,
      "inputs": [
        {
          "indexed": true,
          "internalType": "address",
          "name": "owner",
          "type": "address"
        },
        {
          "indexed": true,
          "internalType": "address",
          "name": "operator",
          "type": "address"
        },
        {
          "indexed": false,
          "internalType": "bool",
          "name": "approved",
          "type": "bool"
        }
      ],
      "name": "ApprovalForAll",
      "type": "event"
    },
    {
      "anonymous": false,
      "inputs": [
        {
          "indexed": false,
          "internalType": "uint8",
          "name": "version",
          "type": "uint8"
        }
      ],
      "name": "Initialized",
      "type": "event"
    },
    {
      "anonymous": false,
      "inputs": [
        {
          "indexed": true,
          "internalType": "bytes32",
          "name": "role",
          "type": "bytes32"
        },
        {
          "indexed": true,
          "internalType": "bytes32",
          "name": "previousAdminRole",
          "type": "bytes32"
        },
        {
          "indexed": true,
          "internalType": "bytes32",
          "name": "newAdminRole",
          "type": "bytes32"
        }
      ],
      "name": "RoleAdminChanged",
      "type": "event"
    },
    {
      "anonymous": false,
      "inputs": [
        {
          "indexed": true,
          "internalType": "bytes32",
          "name": "role",
          "type": "bytes32"
        },
        {
          "indexed": true,
          "internalType": "address",
          "name": "account",
          "type": "address"
        },
        {
          "indexed": true,
          "internalType": "address",
          "name": "sender",
          "type": "address"
        }
      ],
      "name": "RoleGranted",
      "type": "event"
    },
    {
      "anonymous": false,
      "inputs": [
        {
          "indexed": true,
          "internalType": "bytes32",
          "name": "role",
          "type": "bytes32"
        },
        {
          "indexed": true,
          "internalType": "address",
          "name": "account",
          "type": "address"
        },
        {
          "indexed": true,
          "internalType": "address",
          "name": "sender",
          "type": "address"
        }
      ],
      "name": "RoleRevoked",
      "type": "event"
    },
    {
      "anonymous": false,
      "inputs": [
        {
          "indexed": true,
          "internalType": "address",
          "name": "from",
          "type": "address"
        },
        {
          "indexed": true,
          "internalType": "address",
          "name": "to",
          "type": "address"
        },
        {
          "indexed": true,
          "internalType": "uint256",
          "name": "tokenId",
          "type": "uint256"
        }
      ],
      "name": "Transfer",
      "type": "event"
    },
    {
      "inputs": [],
      "name": "DEFAULT_ADMIN_ROLE",
      "outputs": [
        {
          "internalType": "bytes32",
          "name": "",
          "type": "bytes32"
        }
      ],
      "stateMutability": "view",
      "type": "function"
    },
    {
      "inputs": [],
      "name": "HANDLER",
      "outputs": [
        {
          "internalType": "bytes32",
          "name": "",
          "type": "bytes32"
        }
      ],
      "stateMutability": "view",
      "type": "function"
    },
    {
      "inputs": [
        {
          "internalType": "uint256",
          "name": "_tokenId",
          "type": "uint256"
        }
      ],
      "name": "_getTokenAsset",
      "outputs": [
        {
          "internalType": "uint256",
          "name": "",
          "type": "uint256"
        }
      ],
      "stateMutability": "pure",
      "type": "function"
    },
    {
      "inputs": [
        {
          "internalType": "address",
          "name": "to",
          "type": "address"
        },
        {
          "internalType": "uint256",
          "name": "tokenId",
          "type": "uint256"
        }
      ],
      "name": "approve",
      "outputs": [],
      "stateMutability": "nonpayable",
      "type": "function"
    },
    {
      "inputs": [
        {
          "internalType": "uint256",
          "name": "",
          "type": "uint256"
        }
      ],
      "name": "assetPaused",
      "outputs": [
        {
          "internalType": "bool",
          "name": "",
          "type": "bool"
        }
      ],
      "stateMutability": "view",
      "type": "function"
    },
    {
      "inputs": [
        {
          "internalType": "uint256",
          "name": "",
          "type": "uint256"
        }
      ],
      "name": "assetRevToken",
      "outputs": [
        {
          "internalType": "contract IERC20Upgradeable",
          "name": "",
          "type": "address"
        }
      ],
      "stateMutability": "view",
      "type": "function"
    },
    {
      "inputs": [
        {
          "internalType": "address",
          "name": "owner",
          "type": "address"
        }
      ],
      "name": "balanceOf",
      "outputs": [
        {
          "internalType": "uint256",
          "name": "",
          "type": "uint256"
        }
      ],
      "stateMutability": "view",
      "type": "function"
    },
    {
      "inputs": [
        {
          "internalType": "uint256",
          "name": "",
          "type": "uint256"
        }
      ],
      "name": "claimedRev",
      "outputs": [
        {
          "internalType": "uint256",
          "name": "",
          "type": "uint256"
        }
      ],
      "stateMutability": "view",
      "type": "function"
    },
    {
      "inputs": [
        {
          "internalType": "uint256",
          "name": "tokenId",
          "type": "uint256"
        }
      ],
      "name": "getApproved",
      "outputs": [
        {
          "internalType": "address",
          "name": "",
          "type": "address"
        }
      ],
      "stateMutability": "view",
      "type": "function"
    },
    {
      "inputs": [
        {
          "internalType": "bytes32",
          "name": "role",
          "type": "bytes32"
        }
      ],
      "name": "getRoleAdmin",
      "outputs": [
        {
          "internalType": "bytes32",
          "name": "",
          "type": "bytes32"
        }
      ],
      "stateMutability": "view",
      "type": "function"
    },
    {
      "inputs": [
        {
          "internalType": "bytes32",
          "name": "role",
          "type": "bytes32"
        },
        {
          "internalType": "address",
          "name": "account",
          "type": "address"
        }
      ],
      "name": "grantRole",
      "outputs": [],
      "stateMutability": "nonpayable",
      "type": "function"
    },
    {
      "inputs": [
        {
          "internalType": "bytes32",
          "name": "role",
          "type": "bytes32"
        },
        {
          "internalType": "address",
          "name": "account",
          "type": "address"
        }
      ],
      "name": "hasRole",
      "outputs": [
        {
          "internalType": "bool",
          "name": "",
          "type": "bool"
        }
      ],
      "stateMutability": "view",
      "type": "function"
    },
    {
      "inputs": [
        {
          "internalType": "address",
          "name": "owner",
          "type": "address"
        },
        {
          "internalType": "address",
          "name": "operator",
          "type": "address"
        }
      ],
      "name": "isApprovedForAll",
      "outputs": [
        {
          "internalType": "bool",
          "name": "",
          "type": "bool"
        }
      ],
      "stateMutability": "view",
      "type": "function"
    },
    {
      "inputs": [
        {
          "internalType": "address",
          "name": "",
          "type": "address"
        }
      ],
      "name": "isWhitelisted",
      "outputs": [
        {
          "internalType": "bool",
          "name": "",
          "type": "bool"
        }
      ],
      "stateMutability": "view",
      "type": "function"
    },
    {
      "inputs": [
        {
          "internalType": "uint256",
          "name": "",
          "type": "uint256"
        }
      ],
      "name": "lastId",
      "outputs": [
        {
          "internalType": "uint256",
          "name": "",
          "type": "uint256"
        }
      ],
      "stateMutability": "view",
      "type": "function"
    },
    {
      "inputs": [],
      "name": "name",
      "outputs": [
        {
          "internalType": "string",
          "name": "",
          "type": "string"
        }
      ],
      "stateMutability": "view",
      "type": "function"
    },
    {
      "inputs": [
        {
          "internalType": "uint256",
          "name": "",
          "type": "uint256"
        }
      ],
      "name": "nextId",
      "outputs": [
        {
          "internalType": "uint256",
          "name": "",
          "type": "uint256"
        }
      ],
      "stateMutability": "view",
      "type": "function"
    },
    {
      "inputs": [
        {
          "internalType": "uint256",
          "name": "tokenId",
          "type": "uint256"
        }
      ],
      "name": "ownerOf",
      "outputs": [
        {
          "internalType": "address",
          "name": "",
          "type": "address"
        }
      ],
      "stateMutability": "view",
      "type": "function"
    },
    {
      "inputs": [
        {
          "internalType": "bytes32",
          "name": "role",
          "type": "bytes32"
        },
        {
          "internalType": "address",
          "name": "account",
          "type": "address"
        }
      ],
      "name": "renounceRole",
      "outputs": [],
      "stateMutability": "nonpayable",
      "type": "function"
    },
    {
      "inputs": [
        {
          "internalType": "bytes32",
          "name": "role",
          "type": "bytes32"
        },
        {
          "internalType": "address",
          "name": "account",
          "type": "address"
        }
      ],
      "name": "revokeRole",
      "outputs": [],
      "stateMutability": "nonpayable",
      "type": "function"
    },
    {
      "inputs": [
        {
          "internalType": "address",
          "name": "from",
          "type": "address"
        },
        {
          "internalType": "address",
          "name": "to",
          "type": "address"
        },
        {
          "internalType": "uint256",
          "name": "tokenId",
          "type": "uint256"
        }
      ],
      "name": "safeTransferFrom",
      "outputs": [],
      "stateMutability": "nonpayable",
      "type": "function"
    },
    {
      "inputs": [
        {
          "internalType": "address",
          "name": "from",
          "type": "address"
        },
        {
          "internalType": "address",
          "name": "to",
          "type": "address"
        },
        {
          "internalType": "uint256",
          "name": "tokenId",
          "type": "uint256"
        },
        {
          "internalType": "bytes",
          "name": "data",
          "type": "bytes"
        }
      ],
      "name": "safeTransferFrom",
      "outputs": [],
      "stateMutability": "nonpayable",
      "type": "function"
    },
    {
      "inputs": [
        {
          "internalType": "address",
          "name": "operator",
          "type": "address"
        },
        {
          "internalType": "bool",
          "name": "approved",
          "type": "bool"
        }
      ],
      "name": "setApprovalForAll",
      "outputs": [],
      "stateMutability": "nonpayable",
      "type": "function"
    },
    {
      "inputs": [
        {
          "internalType": "bytes4",
          "name": "interfaceId",
          "type": "bytes4"
        }
      ],
      "name": "supportsInterface",
      "outputs": [
        {
          "internalType": "bool",
          "name": "",
          "type": "bool"
        }
      ],
      "stateMutability": "view",
      "type": "function"
    },
    {
      "inputs": [],
      "name": "symbol",
      "outputs": [
        {
          "internalType": "string",
          "name": "",
          "type": "string"
        }
      ],
      "stateMutability": "view",
      "type": "function"
    },
    {
      "inputs": [
        {
          "internalType": "uint256",
          "name": "_tokenId",
          "type": "uint256"
        }
      ],
      "name": "tokenURI",
      "outputs": [
        {
          "internalType": "string",
          "name": "",
          "type": "string"
        }
      ],
      "stateMutability": "view",
      "type": "function"
    },
    {
      "inputs": [
        {
          "internalType": "uint256",
          "name": "",
          "type": "uint256"
        }
      ],
      "name": "totalShareRev",
      "outputs": [
        {
          "internalType": "uint256",
          "name": "",
          "type": "uint256"
        }
      ],
      "stateMutability": "view",
      "type": "function"
    },
    {
      "inputs": [
        {
          "internalType": "address",
          "name": "from",
          "type": "address"
        },
        {
          "internalType": "address",
          "name": "to",
          "type": "address"
        },
        {
          "internalType": "uint256",
          "name": "tokenId",
          "type": "uint256"
        }
      ],
      "name": "transferFrom",
      "outputs": [],
      "stateMutability": "nonpayable",
      "type": "function"
    }
  ],
  "bytecode": "0x608060405234801561001057600080fd5b50611a22806100206000396000f3fe608060405234801561001057600080fd5b50600436106101c45760003560e01c806376ee32c1116100f9578063ac2b205511610097578063c87b56dd11610071578063c87b56dd14610432578063cf0b3a5114610445578063d547741f1461046e578063e985e9c51461048157600080fd5b8063ac2b2055146103d8578063b88d4fde146103f8578063b9a289941461040b57600080fd5b806392877ddc116100d357806392877ddc1461039557806395d89b41146103b5578063a217fddf146103bd578063a22cb465146103c557600080fd5b806376ee32c11461034257806386ed41171461036257806391d148541461038257600080fd5b8063248a9ca3116101665780633af32abf116101405780633af32abf146102e657806342842e0e146103095780636352211e1461031c57806370a082311461032f57600080fd5b8063248a9ca31461029d5780632f2ff15d146102c057806336568abe146102d357600080fd5b8063095ea7b3116101a2578063095ea7b314610231578063220f27eb1461024657806323b40c0b1461026957806323b872dd1461028a57600080fd5b806301ffc9a7146101c957806306fdde03146101f1578063081812fc14610206575b600080fd5b6101dc6101d7366004611629565b6104bd565b60405190151581526020015b60405180910390f35b6101f96104ce565b6040516101e891906117b2565b6102196102143660046115ef565b610560565b6040516001600160a01b0390911681526020016101e8565b61024461023f3660046115c6565b610587565b005b6101dc6102543660046115ef565b60cc6020526000908152604090205460ff1681565b61027c6102773660046115ef565b6106a2565b6040519081526020016101e8565b6102446102983660046114ae565b6106b2565b61027c6102ab3660046115ef565b60009081526097602052604090206001015490565b6102446102ce366004611607565b6106e3565b6102446102e1366004611607565b610708565b6101dc6102f4366004611462565b60ca6020526000908152604090205460ff1681565b6102446103173660046114ae565b610786565b61021961032a3660046115ef565b6107a1565b61027c61033d366004611462565b610801565b61027c6103503660046115ef565b60ce6020526000908152604090205481565b61027c6103703660046115ef565b60d16020526000908152604090205481565b6101dc610390366004611607565b610887565b61027c6103a33660046115ef565b60cd6020526000908152604090205481565b6101f96108b2565b61027c600081565b6102446103d336600461158c565b6108c1565b61027c6103e63660046115ef565b60d06020526000908152604090205481565b6102446104063660046114e9565b6108cc565b61027c7ff40ec076ff2e3a403e1c18632267861d39085e7f359ca5665846f335632cf81981565b6101f96104403660046115ef565b610904565b6102196104533660046115ef565b60cf602052600090815260409020546001600160a01b031681565b61024461047c366004611607565b610a09565b6101dc61048f36600461147c565b6001600160a01b039182166000908152606a6020908152604080832093909416825291909152205460ff1690565b60006104c882610a2e565b92915050565b6060606580546104dd9061196f565b80601f01602080910402602001604051908101604052809291908181526020018280546105099061196f565b80156105565780601f1061052b57610100808354040283529160200191610556565b820191906000526020600020905b81548152906001019060200180831161053957829003601f168201915b5050505050905090565b600061056b82610a53565b506000908152606960205260409020546001600160a01b031690565b6000610592826107a1565b9050806001600160a01b0316836001600160a01b031614156106055760405162461bcd60e51b815260206004820152602160248201527f4552433732313a20617070726f76616c20746f2063757272656e74206f776e656044820152603960f91b60648201526084015b60405180910390fd5b336001600160a01b03821614806106215750610621813361048f565b6106935760405162461bcd60e51b815260206004820152603e60248201527f4552433732313a20617070726f76652063616c6c6572206973206e6f7420746f60448201527f6b656e206f776e6572206e6f7220617070726f76656420666f7220616c6c000060648201526084016105fc565b61069d8383610ab5565b505050565b60006104c8633b9aca00836118d6565b6106bc3382610b23565b6106d85760405162461bcd60e51b81526004016105fc90611817565b61069d838383610ba2565b6000828152609760205260409020600101546106fe81610d49565b61069d8383610d53565b6001600160a01b03811633146107785760405162461bcd60e51b815260206004820152602f60248201527f416363657373436f6e74726f6c3a2063616e206f6e6c792072656e6f756e636560448201526e103937b632b9903337b91039b2b63360891b60648201526084016105fc565b6107828282610dd9565b5050565b61069d838383604051806020016040528060008152506108cc565b6000818152606760205260408120546001600160a01b0316806104c85760405162461bcd60e51b8152602060048201526018602482015277115490cdcc8c4e881a5b9d985b1a59081d1bdad95b88125160421b60448201526064016105fc565b60006001600160a01b03821661086b5760405162461bcd60e51b815260206004820152602960248201527f4552433732313a2061646472657373207a65726f206973206e6f7420612076616044820152683634b21037bbb732b960b91b60648201526084016105fc565b506001600160a01b031660009081526068602052604090205490565b60009182526097602090815260408084206001600160a01b0393909316845291905290205460ff1690565b6060606680546104dd9061196f565b610782338383610e40565b6108d63383610b23565b6108f25760405162461bcd60e51b81526004016105fc90611817565b6108fe84848484610f0f565b50505050565b6000818152606760205260409020546060906001600160a01b03166109835760405162461bcd60e51b815260206004820152602f60248201527f4552433732314d657461646174613a2055524920717565727920666f72206e6f60448201526e3732bc34b9ba32b73a103a37b5b2b760891b60648201526084016105fc565b60c95460405163d8bcda2760e01b8152306004820152602481018490526001600160a01b039091169063d8bcda279060440160006040518083038186803b1580156109cd57600080fd5b505afa1580156109e1573d6000803e3d6000fd5b505050506040513d6000823e601f3d908101601f191682016040526104c89190810190611661565b600082815260976020526040902060010154610a2481610d49565b61069d8383610dd9565b60006001600160e01b03198216637965db0b60e01b14806104c857506104c882610f42565b6000818152606760205260409020546001600160a01b0316610ab25760405162461bcd60e51b8152602060048201526018602482015277115490cdcc8c4e881a5b9d985b1a59081d1bdad95b88125160421b60448201526064016105fc565b50565b600081815260696020526040902080546001600160a01b0319166001600160a01b0384169081179091558190610aea826107a1565b6001600160a01b03167f8c5be1e5ebec7d5bd14f71427d1e84f3dd0314c0f7b2291e5b200ac8c7c3b92560405160405180910390a45050565b600080610b2f836107a1565b9050806001600160a01b0316846001600160a01b03161480610b7657506001600160a01b038082166000908152606a602090815260408083209388168352929052205460ff165b80610b9a5750836001600160a01b0316610b8f84610560565b6001600160a01b0316145b949350505050565b826001600160a01b0316610bb5826107a1565b6001600160a01b031614610c195760405162461bcd60e51b815260206004820152602560248201527f4552433732313a207472616e736665722066726f6d20696e636f72726563742060448201526437bbb732b960d91b60648201526084016105fc565b6001600160a01b038216610c7b5760405162461bcd60e51b8152602060048201526024808201527f4552433732313a207472616e7366657220746f20746865207a65726f206164646044820152637265737360e01b60648201526084016105fc565b610c86838383610f92565b610c91600082610ab5565b6001600160a01b0383166000908152606860205260408120805460019290610cba908490611915565b90915550506001600160a01b0382166000908152606860205260408120805460019290610ce89084906118be565b909155505060008181526067602052604080822080546001600160a01b0319166001600160a01b0386811691821790925591518493918716917fddf252ad1be2c89b69c2b068fc378daa952ba7f163c4a11628f55a4df523b3ef91a4505050565b610ab281336110ec565b610d5d8282610887565b6107825760008281526097602090815260408083206001600160a01b03851684529091529020805460ff19166001179055610d953390565b6001600160a01b0316816001600160a01b0316837f2f8788117e7eff1d82e926ec794901d17c78024a50270940304540a733656f0d60405160405180910390a45050565b610de38282610887565b156107825760008281526097602090815260408083206001600160a01b0385168085529252808320805460ff1916905551339285917ff6391f5c32d9c69d2a47ea670b442974b53935d1edc7fd64eb21e047a839171b9190a45050565b816001600160a01b0316836001600160a01b03161415610ea25760405162461bcd60e51b815260206004820152601960248201527f4552433732313a20617070726f766520746f2063616c6c65720000000000000060448201526064016105fc565b6001600160a01b038381166000818152606a6020908152604080832094871680845294825291829020805460ff191686151590811790915591519182527f17307eab39ab6107e8899845ad3d59bd9653f200f220920489ca2b5937696c31910160405180910390a3505050565b610f1a848484610ba2565b610f2684848484611150565b6108fe5760405162461bcd60e51b81526004016105fc906117c5565b60006001600160e01b031982166380ac58cd60e01b1480610f7357506001600160e01b03198216635b5e139f60e01b145b806104c857506301ffc9a760e01b6001600160e01b03198316146104c8565b6001600160a01b0383161580610fb057506001600160a01b03831630145b61069d5760cb5460ff16156110075760405162461bcd60e51b815260206004820152601e60248201527f5472616e7366657273206172652063757272656e746c7920706175736564000060448201526064016105fc565b60cc6000611014836106a2565b815260208101919091526040016000205460ff16156110675760405162461bcd60e51b815260206004820152600f60248201526e105cdcd95d081a5cc81c185d5cd959608a1b60448201526064016105fc565b6001600160a01b038316600090815260ca602052604090205460ff1680156110a757506001600160a01b038216600090815260ca602052604090205460ff165b61069d5760405162461bcd60e51b815260206004820152601660248201527524b73b30b634b2103a37b5b2b7103a3930b739b332b960511b60448201526064016105fc565b6110f68282610887565b6107825761110e816001600160a01b0316601461125d565b61111983602061125d565b60405160200161112a929190611700565b60408051601f198184030181529082905262461bcd60e51b82526105fc916004016117b2565b60006001600160a01b0384163b1561125257604051630a85bd0160e11b81526001600160a01b0385169063150b7a0290611194903390899088908890600401611775565b602060405180830381600087803b1580156111ae57600080fd5b505af19250505080156111de575060408051601f3d908101601f191682019092526111db91810190611645565b60015b611238573d80801561120c576040519150601f19603f3d011682016040523d82523d6000602084013e611211565b606091505b5080516112305760405162461bcd60e51b81526004016105fc906117c5565b805181602001fd5b6001600160e01b031916630a85bd0160e11b149050610b9a565b506001949350505050565b6060600061126c8360026118f6565b6112779060026118be565b67ffffffffffffffff81111561129d57634e487b7160e01b600052604160045260246000fd5b6040519080825280601f01601f1916602001820160405280156112c7576020820181803683370190505b509050600360fc1b816000815181106112f057634e487b7160e01b600052603260045260246000fd5b60200101906001600160f81b031916908160001a905350600f60fb1b8160018151811061132d57634e487b7160e01b600052603260045260246000fd5b60200101906001600160f81b031916908160001a90535060006113518460026118f6565b61135c9060016118be565b90505b60018111156113f0576f181899199a1a9b1b9c1cb0b131b232b360811b85600f166010811061139e57634e487b7160e01b600052603260045260246000fd5b1a60f81b8282815181106113c257634e487b7160e01b600052603260045260246000fd5b60200101906001600160f81b031916908160001a90535060049490941c936113e981611958565b905061135f565b50831561143f5760405162461bcd60e51b815260206004820181905260248201527f537472696e67733a20686578206c656e67746820696e73756666696369656e7460448201526064016105fc565b9392505050565b80356001600160a01b038116811461145d57600080fd5b919050565b600060208284031215611473578081fd5b61143f82611446565b6000806040838503121561148e578081fd5b61149783611446565b91506114a560208401611446565b90509250929050565b6000806000606084860312156114c2578081fd5b6114cb84611446565b92506114d960208501611446565b9150604084013590509250925092565b600080600080608085870312156114fe578081fd5b61150785611446565b935061151560208601611446565b925060408501359150606085013567ffffffffffffffff811115611537578182fd5b8501601f81018713611547578182fd5b803561155a61155582611896565b611865565b81815288602083850101111561156e578384fd5b81602084016020830137908101602001929092525092959194509250565b6000806040838503121561159e578182fd5b6115a783611446565b9150602083013580151581146115bb578182fd5b809150509250929050565b600080604083850312156115d8578182fd5b6115e183611446565b946020939093013593505050565b600060208284031215611600578081fd5b5035919050565b60008060408385031215611619578182fd5b823591506114a560208401611446565b60006020828403121561163a578081fd5b813561143f816119d6565b600060208284031215611656578081fd5b815161143f816119d6565b600060208284031215611672578081fd5b815167ffffffffffffffff811115611688578182fd5b8201601f81018413611698578182fd5b80516116a661155582611896565b8181528560208385010111156116ba578384fd5b6116cb82602083016020860161192c565b95945050505050565b600081518084526116ec81602086016020860161192c565b601f01601f19169290920160200192915050565b7f416363657373436f6e74726f6c3a206163636f756e742000000000000000000081526000835161173881601785016020880161192c565b7001034b99036b4b9b9b4b733903937b6329607d1b601791840191820152835161176981602884016020880161192c565b01602801949350505050565b6001600160a01b03858116825284166020820152604081018390526080606082018190526000906117a8908301846116d4565b9695505050505050565b60208152600061143f60208301846116d4565b60208082526032908201527f4552433732313a207472616e7366657220746f206e6f6e20455243373231526560408201527131b2b4bb32b91034b6b83632b6b2b73a32b960711b606082015260800190565b6020808252602e908201527f4552433732313a2063616c6c6572206973206e6f7420746f6b656e206f776e6560408201526d1c881b9bdc88185c1c1c9bdd995960921b606082015260800190565b604051601f8201601f1916810167ffffffffffffffff8111828210171561188e5761188e6119c0565b604052919050565b600067ffffffffffffffff8211156118b0576118b06119c0565b50601f01601f191660200190565b600082198211156118d1576118d16119aa565b500190565b6000826118f157634e487b7160e01b81526012600452602481fd5b500490565b6000816000190483118215151615611910576119106119aa565b500290565b600082821015611927576119276119aa565b500390565b60005b8381101561194757818101518382015260200161192f565b838111156108fe5750506000910152565b600081611967576119676119aa565b506000190190565b600181811c9082168061198357607f821691505b602082108114156119a457634e487b7160e01b600052602260045260246000fd5b50919050565b634e487b7160e01b600052601160045260246000fd5b634e487b7160e01b600052604160045260246000fd5b6001600160e01b031981168114610ab257600080fdfea2646970667358221220685cf1f6bdb492c9792404c447661da5945d2aa5ee9469e249d318af50933d6064736f6c63430008040033",
  "linkReferences": {},
  "deployedLinkReferences": {}
}