{
  "_format": "hh-sol-artifact-1",
  "contractName": "Handler",
  "sourceName": "contracts/Handler.sol",
  "abi": [
    {
      "anonymous": false,
      "inputs": [
        {
          "indexed": true,
          "internalType": "address",
          "name": "owner",
          "type": "address"
        },
        {
          "indexed": true,
          "internalType": "address",
          "name": "approved",
          "type": "address"
        },
        {
          "indexed": true,
          "internalType": "uint256",
          "name": "tokenId",
          "type": "uint256"
        }
      ],
      "name": "Approval",
      "type": "event"
    },
    {
      "anonymous": false,
      "inputs": [
        {
          "indexed": true,
          "internalType": "address",
          "name": "owner",
          "type": "address"
        },
        {
          "indexed": true,
          "internalType": "address",
          "name": "operator",
          "type": "address"
        },
        {
          "indexed": false,
          "internalType": "bool",
          "name": "approved",
          "type": "bool"
        }
      ],
      "name": "ApprovalForAll",
      "type": "event"
    },
    {
      "anonymous": false,
      "inputs": [
        {
          "indexed": false,
          "internalType": "uint8",
          "name": "version",
          "type": "uint8"
        }
      ],
      "name": "Initialized",
      "type": "event"
    },
    {
      "anonymous": false,
      "inputs": [
        {
          "indexed": true,
          "internalType": "bytes32",
          "name": "role",
          "type": "bytes32"
        },
        {
          "indexed": true,
          "internalType": "bytes32",
          "name": "previousAdminRole",
          "type": "bytes32"
        },
        {
          "indexed": true,
          "internalType": "bytes32",
          "name": "newAdminRole",
          "type": "bytes32"
        }
      ],
      "name": "RoleAdminChanged",
      "type": "event"
    },
    {
      "anonymous": false,
      "inputs": [
        {
          "indexed": true,
          "internalType": "bytes32",
          "name": "role",
          "type": "bytes32"
        },
        {
          "indexed": true,
          "internalType": "address",
          "name": "account",
          "type": "address"
        },
        {
          "indexed": true,
          "internalType": "address",
          "name": "sender",
          "type": "address"
        }
      ],
      "name": "RoleGranted",
      "type": "event"
    },
    {
      "anonymous": false,
      "inputs": [
        {
          "indexed": true,
          "internalType": "bytes32",
          "name": "role",
          "type": "bytes32"
        },
        {
          "indexed": true,
          "internalType": "address",
          "name": "account",
          "type": "address"
        },
        {
          "indexed": true,
          "internalType": "address",
          "name": "sender",
          "type": "address"
        }
      ],
      "name": "RoleRevoked",
      "type": "event"
    },
    {
      "anonymous": false,
      "inputs": [
        {
          "indexed": true,
          "internalType": "address",
          "name": "from",
          "type": "address"
        },
        {
          "indexed": true,
          "internalType": "address",
          "name": "to",
          "type": "address"
        },
        {
          "indexed": true,
          "internalType": "uint256",
          "name": "tokenId",
          "type": "uint256"
        }
      ],
      "name": "Transfer",
      "type": "event"
    },
    {
      "inputs": [],
      "name": "ADMIN",
      "outputs": [
        {
          "internalType": "bytes32",
          "name": "",
          "type": "bytes32"
        }
      ],
      "stateMutability": "view",
      "type": "function"
    },
    {
      "inputs": [],
      "name": "DEFAULT_ADMIN_ROLE",
      "outputs": [
        {
          "internalType": "bytes32",
          "name": "",
          "type": "bytes32"
        }
      ],
      "stateMutability": "view",
      "type": "function"
    },
    {
      "inputs": [],
      "name": "HANDLER",
      "outputs": [
        {
          "internalType": "bytes32",
          "name": "",
          "type": "bytes32"
        }
      ],
      "stateMutability": "view",
      "type": "function"
    },
    {
      "inputs": [
        {
          "internalType": "uint256",
          "name": "_tokenId",
          "type": "uint256"
        }
      ],
      "name": "_getTokenAsset",
      "outputs": [
        {
          "internalType": "uint256",
          "name": "",
          "type": "uint256"
        }
      ],
      "stateMutability": "pure",
      "type": "function"
    },
    {
      "inputs": [
        {
          "internalType": "uint256",
          "name": "_assetId",
          "type": "uint256"
        },
        {
          "internalType": "uint256",
          "name": "_totalRev",
          "type": "uint256"
        },
        {
          "internalType": "uint256",
          "name": "_unitsCount",
          "type": "uint256"
        },
        {
          "internalType": "uint256",
          "name": "_amountPerShare",
          "type": "uint256"
        }
      ],
      "name": "addRevenue",
      "outputs": [],
      "stateMutability": "nonpayable",
      "type": "function"
    },
    {
      "inputs": [
        {
          "internalType": "address",
          "name": "to",
          "type": "address"
        },
        {
          "internalType": "uint256",
          "name": "tokenId",
          "type": "uint256"
        }
      ],
      "name": "approve",
      "outputs": [],
      "stateMutability": "nonpayable",
      "type": "function"
    },
    {
      "inputs": [
        {
          "internalType": "uint256",
          "name": "",
          "type": "uint256"
        }
      ],
      "name": "assetPaused",
      "outputs": [
        {
          "internalType": "bool",
          "name": "",
          "type": "bool"
        }
      ],
      "stateMutability": "view",
      "type": "function"
    },
    {
      "inputs": [
        {
          "internalType": "uint256",
          "name": "",
          "type": "uint256"
        }
      ],
      "name": "assetRevToken",
      "outputs": [
        {
          "internalType": "contract IERC20Upgradeable",
          "name": "",
          "type": "address"
        }
      ],
      "stateMutability": "view",
      "type": "function"
    },
    {
      "inputs": [
        {
          "internalType": "address",
          "name": "owner",
          "type": "address"
        }
      ],
      "name": "balanceOf",
      "outputs": [
        {
          "internalType": "uint256",
          "name": "",
          "type": "uint256"
        }
      ],
      "stateMutability": "view",
      "type": "function"
    },
    {
      "inputs": [
        {
          "internalType": "uint256",
          "name": "_assetId",
          "type": "uint256"
        },
        {
          "internalType": "uint256[]",
          "name": "_tokenIds",
          "type": "uint256[]"
        }
      ],
      "name": "claimRevenue",
      "outputs": [],
      "stateMutability": "nonpayable",
      "type": "function"
    },
    {
      "inputs": [
        {
          "internalType": "uint256[]",
          "name": "_tokenIds",
          "type": "uint256[]"
        },
        {
          "internalType": "bytes",
          "name": "_prefix",
          "type": "bytes"
        },
        {
          "internalType": "uint8",
          "name": "_v",
          "type": "uint8"
        },
        {
          "internalType": "bytes32",
          "name": "_r",
          "type": "bytes32"
        },
        {
          "internalType": "bytes32",
          "name": "_s",
          "type": "bytes32"
        }
      ],
      "name": "claimUnits",
      "outputs": [],
      "stateMutability": "nonpayable",
      "type": "function"
    },
    {
      "inputs": [
        {
          "internalType": "uint256",
          "name": "",
          "type": "uint256"
        }
      ],
      "name": "claimedRev",
      "outputs": [
        {
          "internalType": "uint256",
          "name": "",
          "type": "uint256"
        }
      ],
      "stateMutability": "view",
      "type": "function"
    },
    {
      "inputs": [
        {
          "internalType": "uint256",
          "name": "_assetId",
          "type": "uint256"
        },
        {
          "internalType": "uint256",
          "name": "_tokenCap",
          "type": "uint256"
        },
        {
          "internalType": "contract IERC20Upgradeable",
          "name": "_revToken",
          "type": "address"
        }
      ],
      "name": "createAsset",
      "outputs": [],
      "stateMutability": "nonpayable",
      "type": "function"
    },
    {
      "inputs": [
        {
          "internalType": "uint256",
          "name": "tokenId",
          "type": "uint256"
        }
      ],
      "name": "getApproved",
      "outputs": [
        {
          "internalType": "address",
          "name": "",
          "type": "address"
        }
      ],
      "stateMutability": "view",
      "type": "function"
    },
    {
      "inputs": [
        {
          "internalType": "bytes32",
          "name": "role",
          "type": "bytes32"
        }
      ],
      "name": "getRoleAdmin",
      "outputs": [
        {
          "internalType": "bytes32",
          "name": "",
          "type": "bytes32"
        }
      ],
      "stateMutability": "view",
      "type": "function"
    },
    {
      "inputs": [
        {
          "internalType": "bytes32",
          "name": "role",
          "type": "bytes32"
        },
        {
          "internalType": "address",
          "name": "account",
          "type": "address"
        }
      ],
      "name": "grantRole",
      "outputs": [],
      "stateMutability": "nonpayable",
      "type": "function"
    },
    {
      "inputs": [
        {
          "internalType": "bytes32",
          "name": "role",
          "type": "bytes32"
        },
        {
          "internalType": "address",
          "name": "account",
          "type": "address"
        }
      ],
      "name": "hasRole",
      "outputs": [
        {
          "internalType": "bool",
          "name": "",
          "type": "bool"
        }
      ],
      "stateMutability": "view",
      "type": "function"
    },
    {
      "inputs": [
        {
          "internalType": "address",
          "name": "owner",
          "type": "address"
        },
        {
          "internalType": "address",
          "name": "operator",
          "type": "address"
        }
      ],
      "name": "isApprovedForAll",
      "outputs": [
        {
          "internalType": "bool",
          "name": "",
          "type": "bool"
        }
      ],
      "stateMutability": "view",
      "type": "function"
    },
    {
      "inputs": [
        {
          "internalType": "address",
          "name": "",
          "type": "address"
        }
      ],
      "name": "isWhitelisted",
      "outputs": [
        {
          "internalType": "bool",
          "name": "",
          "type": "bool"
        }
      ],
      "stateMutability": "view",
      "type": "function"
    },
    {
      "inputs": [
        {
          "internalType": "uint256",
          "name": "",
          "type": "uint256"
        }
      ],
      "name": "lastId",
      "outputs": [
        {
          "internalType": "uint256",
          "name": "",
          "type": "uint256"
        }
      ],
      "stateMutability": "view",
      "type": "function"
    },
    {
      "inputs": [
        {
          "internalType": "uint256",
          "name": "_assetId",
          "type": "uint256"
        },
        {
          "internalType": "uint256",
          "name": "_amount",
          "type": "uint256"
        }
      ],
      "name": "mintAsset",
      "outputs": [],
      "stateMutability": "nonpayable",
      "type": "function"
    },
    {
      "inputs": [],
      "name": "name",
      "outputs": [
        {
          "internalType": "string",
          "name": "",
          "type": "string"
        }
      ],
      "stateMutability": "view",
      "type": "function"
    },
    {
      "inputs": [
        {
          "internalType": "uint256",
          "name": "",
          "type": "uint256"
        }
      ],
      "name": "nextId",
      "outputs": [
        {
          "internalType": "uint256",
          "name": "",
          "type": "uint256"
        }
      ],
      "stateMutability": "view",
      "type": "function"
    },
    {
      "inputs": [
        {
          "internalType": "uint256",
          "name": "tokenId",
          "type": "uint256"
        }
      ],
      "name": "ownerOf",
      "outputs": [
        {
          "internalType": "address",
          "name": "",
          "type": "address"
        }
      ],
      "stateMutability": "view",
      "type": "function"
    },
    {
      "inputs": [
        {
          "internalType": "bytes32",
          "name": "role",
          "type": "bytes32"
        },
        {
          "internalType": "address",
          "name": "account",
          "type": "address"
        }
      ],
      "name": "renounceRole",
      "outputs": [],
      "stateMutability": "nonpayable",
      "type": "function"
    },
    {
      "inputs": [
        {
          "internalType": "address",
          "name": "_from",
          "type": "address"
        },
        {
          "internalType": "address",
          "name": "_to",
          "type": "address"
        },
        {
          "internalType": "uint256[]",
          "name": "_tokenIds",
          "type": "uint256[]"
        }
      ],
      "name": "returnUnits",
      "outputs": [],
      "stateMutability": "nonpayable",
      "type": "function"
    },
    {
      "inputs": [
        {
          "internalType": "bytes32",
          "name": "role",
          "type": "bytes32"
        },
        {
          "internalType": "address",
          "name": "account",
          "type": "address"
        }
      ],
      "name": "revokeRole",
      "outputs": [],
      "stateMutability": "nonpayable",
      "type": "function"
    },
    {
      "inputs": [
        {
          "internalType": "address",
          "name": "from",
          "type": "address"
        },
        {
          "internalType": "address",
          "name": "to",
          "type": "address"
        },
        {
          "internalType": "uint256",
          "name": "tokenId",
          "type": "uint256"
        }
      ],
      "name": "safeTransferFrom",
      "outputs": [],
      "stateMutability": "nonpayable",
      "type": "function"
    },
    {
      "inputs": [
        {
          "internalType": "address",
          "name": "from",
          "type": "address"
        },
        {
          "internalType": "address",
          "name": "to",
          "type": "address"
        },
        {
          "internalType": "uint256",
          "name": "tokenId",
          "type": "uint256"
        },
        {
          "internalType": "bytes",
          "name": "data",
          "type": "bytes"
        }
      ],
      "name": "safeTransferFrom",
      "outputs": [],
      "stateMutability": "nonpayable",
      "type": "function"
    },
    {
      "inputs": [
        {
          "internalType": "address",
          "name": "operator",
          "type": "address"
        },
        {
          "internalType": "bool",
          "name": "approved",
          "type": "bool"
        }
      ],
      "name": "setApprovalForAll",
      "outputs": [],
      "stateMutability": "nonpayable",
      "type": "function"
    },
    {
      "inputs": [
        {
          "internalType": "uint256",
          "name": "_assetId",
          "type": "uint256"
        },
        {
          "internalType": "bool",
          "name": "_paused",
          "type": "bool"
        }
      ],
      "name": "setAssetTransfersPaused",
      "outputs": [],
      "stateMutability": "nonpayable",
      "type": "function"
    },
    {
      "inputs": [
        {
          "internalType": "bool",
          "name": "_paused",
          "type": "bool"
        }
      ],
      "name": "setTransfersPaused",
      "outputs": [],
      "stateMutability": "nonpayable",
      "type": "function"
    },
    {
      "inputs": [
        {
          "internalType": "address[]",
          "name": "_users",
          "type": "address[]"
        },
        {
          "internalType": "bool",
          "name": "_isWhitelisted",
          "type": "bool"
        }
      ],
      "name": "setWhitelisted",
      "outputs": [],
      "stateMutability": "nonpayable",
      "type": "function"
    },
    {
      "inputs": [
        {
          "internalType": "bytes4",
          "name": "interfaceId",
          "type": "bytes4"
        }
      ],
      "name": "supportsInterface",
      "outputs": [
        {
          "internalType": "bool",
          "name": "",
          "type": "bool"
        }
      ],
      "stateMutability": "view",
      "type": "function"
    },
    {
      "inputs": [],
      "name": "symbol",
      "outputs": [
        {
          "internalType": "string",
          "name": "",
          "type": "string"
        }
      ],
      "stateMutability": "view",
      "type": "function"
    },
    {
      "inputs": [
        {
          "internalType": "uint256",
          "name": "_tokenId",
          "type": "uint256"
        }
      ],
      "name": "tokenURI",
      "outputs": [
        {
          "internalType": "string",
          "name": "",
          "type": "string"
        }
      ],
      "stateMutability": "view",
      "type": "function"
    },
    {
      "inputs": [
        {
          "internalType": "uint256",
          "name": "",
          "type": "uint256"
        }
      ],
      "name": "totalShareRev",
      "outputs": [
        {
          "internalType": "uint256",
          "name": "",
          "type": "uint256"
        }
      ],
      "stateMutability": "view",
      "type": "function"
    },
    {
      "inputs": [
        {
          "internalType": "address",
          "name": "from",
          "type": "address"
        },
        {
          "internalType": "address",
          "name": "to",
          "type": "address"
        },
        {
          "internalType": "uint256",
          "name": "tokenId",
          "type": "uint256"
        }
      ],
      "name": "transferFrom",
      "outputs": [],
      "stateMutability": "nonpayable",
      "type": "function"
    },
    {
      "inputs": [
        {
          "internalType": "uint256",
          "name": "_assetId",
          "type": "uint256"
        },
        {
          "internalType": "uint256",
          "name": "_tokenCap",
          "type": "uint256"
        }
      ],
      "name": "updateAssetCap",
      "outputs": [],
      "stateMutability": "nonpayable",
      "type": "function"
    },
    {
      "inputs": [
        {
          "internalType": "address",
          "name": "_serverPubKey",
          "type": "address"
        }
      ],
      "name": "updateServer",
      "outputs": [],
      "stateMutability": "nonpayable",
      "type": "function"
    }
  ],
  "bytecode": "0x608060405234801561001057600080fd5b50612bcd806100206000396000f3fe608060405234801561001057600080fd5b50600436106102485760003560e01c806391d148541161013b578063b88dab32116100b8578063c87b56dd1161007c578063c87b56dd14610577578063cf0b3a511461058a578063d547741f146105b3578063e985e9c5146105c6578063f3c4b7041461060257600080fd5b8063b88dab3214610516578063b9a2899414610529578063bfef15201461053e578063c58354b714610551578063c78303171461056457600080fd5b8063a86e6676116100ff578063a86e6676146104aa578063ac2b2055146104bd578063b22aec5a146104dd578063b819fbd4146104f0578063b88d4fde1461050357600080fd5b806391d148541461045457806392877ddc1461046757806395d89b4114610487578063a217fddf1461048f578063a22cb4651461049757600080fd5b806336568abe116101c95780636352211e1161018d5780636352211e146103db57806370a08231146103ee57806376ee32c114610401578063834eb2481461042157806386ed41171461043457600080fd5b806336568abe1461036c5780633af32abf1461037f57806342842e0e146103a257806344e46dff146103b5578063498e5165146103c857600080fd5b806323b40c0b1161021057806323b40c0b146102ed57806323b872dd1461030e578063248a9ca3146103215780632a0acc6a146103445780632f2ff15d1461035957600080fd5b806301ffc9a71461024d57806306fdde0314610275578063081812fc1461028a578063095ea7b3146102b5578063220f27eb146102ca575b600080fd5b61026061025b3660046125e6565b610615565b60405190151581526020015b60405180910390f35b61027d610626565b60405161026c91906128df565b61029d6102983660046125aa565b6106b8565b6040516001600160a01b03909116815260200161026c565b6102c86102c3366004612462565b6106df565b005b6102606102d83660046125aa565b60cc6020526000908152604090205460ff1681565b6103006102fb3660046125aa565b6107fa565b60405190815260200161026c565b6102c861031c36600461238b565b61080a565b61030061032f3660046125aa565b60009081526097602052604090206001015490565b610300600080516020612b7883398151915281565b6102c86103673660046125c2565b61083b565b6102c861037a3660046125c2565b610860565b61026061038d3660046122d4565b60ca6020526000908152604090205460ff1681565b6102c86103b036600461238b565b6108de565b6102c86103c3366004612572565b6108f9565b6102c86103d6366004612720565b61091a565b61029d6103e93660046125aa565b610943565b6103006103fc3660046122d4565b6109a3565b61030061040f3660046125aa565b60ce6020526000908152604090205481565b6102c861042f3660046124e2565b610a29565b6103006104423660046125aa565b60d16020526000908152604090205481565b6102606104623660046125c2565b610b8f565b6103006104753660046125aa565b60cd6020526000908152604090205481565b61027d610bba565b610300600081565b6102c86104a5366004612435565b610bc9565b6102c86104b8366004612328565b610bd4565b6103006104cb3660046125aa565b60d06020526000908152604090205481565b6102c86104eb36600461274d565b610bff565b6102c86104fe3660046126db565b610c70565b6102c86105113660046123cb565b610c92565b6102c86105243660046126ff565b610cc4565b610300600080516020612b5883398151915281565b6102c861054c366004612691565b610ce7565b6102c861055f3660046126ff565b610cf3565b6102c86105723660046122d4565b610d15565b61027d6105853660046125aa565b610d50565b61029d6105983660046125aa565b60cf602052600090815260409020546001600160a01b031681565b6102c86105c13660046125c2565b610e55565b6102606105d43660046122f0565b6001600160a01b039182166000908152606a6020908152604080832093909416825291909152205460ff1690565b6102c861061036600461248d565b610e7a565b600061062082610e9d565b92915050565b60606065805461063590612a9c565b80601f016020809104026020016040519081016040528092919081815260200182805461066190612a9c565b80156106ae5780601f10610683576101008083540402835291602001916106ae565b820191906000526020600020905b81548152906001019060200180831161069157829003601f168201915b5050505050905090565b60006106c382610ec2565b506000908152606960205260409020546001600160a01b031690565b60006106ea82610943565b9050806001600160a01b0316836001600160a01b0316141561075d5760405162461bcd60e51b815260206004820152602160248201527f4552433732313a20617070726f76616c20746f2063757272656e74206f776e656044820152603960f91b60648201526084015b60405180910390fd5b336001600160a01b0382161480610779575061077981336105d4565b6107eb5760405162461bcd60e51b815260206004820152603e60248201527f4552433732313a20617070726f76652063616c6c6572206973206e6f7420746f60448201527f6b656e206f776e6572206e6f7220617070726f76656420666f7220616c6c00006064820152608401610754565b6107f58383610f24565b505050565b6000610620633b9aca0083612a03565b6108143382610f92565b6108305760405162461bcd60e51b815260040161075490612944565b6107f5838383611011565b600082815260976020526040902060010154610856816111b8565b6107f583836111c2565b6001600160a01b03811633146108d05760405162461bcd60e51b815260206004820152602f60248201527f416363657373436f6e74726f6c3a2063616e206f6e6c792072656e6f756e636560448201526e103937b632b9903337b91039b2b63360891b6064820152608401610754565b6108da8282611248565b5050565b6107f583838360405180602001604052806000815250610c92565b600080516020612b78833981519152610911816111b8565b6108da826112af565b600080516020612b78833981519152610932816111b8565b61093d8484846112db565b50505050565b6000818152606760205260408120546001600160a01b0316806106205760405162461bcd60e51b8152602060048201526018602482015277115490cdcc8c4e881a5b9d985b1a59081d1bdad95b88125160421b6044820152606401610754565b60006001600160a01b038216610a0d5760405162461bcd60e51b815260206004820152602960248201527f4552433732313a2061646472657373207a65726f206973206e6f7420612076616044820152683634b21037bbb732b960b91b6064820152608401610754565b506001600160a01b031660009081526068602052604090205490565b600033308888604051602001610a42949392919061284e565b60408051601f198184030181529082905260d2549092506001600160a01b031690600190610a7690889085906020016127aa565b60408051601f198184030181528282528051602091820120600084529083018083525260ff881690820152606081018690526080810185905260a0016020604051602081039080840390855afa158015610ad4573d6000803e3d6000fd5b505050602060405103516001600160a01b031614610b285760405162461bcd60e51b8152602060048201526011602482015270496e76616c6964207369676e617475726560781b6044820152606401610754565b6000610b5a88886000818110610b4e57634e487b7160e01b600052603260045260246000fd5b905060200201356107fa565b600081815260d06020526040902054909150610b78828a8a846113ae565b610b8430338b8b61147e565b505050505050505050565b60009182526097602090815260408084206001600160a01b0393909316845291905290205460ff1690565b60606066805461063590612a9c565b6108da3383836114cd565b600080516020612b78833981519152610bec816111b8565b610bf88585858561147e565b5050505050565b600080516020612b78833981519152610c17816111b8565b81610c228486612a03565b14610c645760405162461bcd60e51b8152602060048201526012602482015271496e76616c696420696e707574206461746160701b6044820152606401610754565b610bf83386868561159c565b600080516020612b78833981519152610c88816111b8565b6107f58383611670565b610c9c3383610f92565b610cb85760405162461bcd60e51b815260040161075490612944565b61093d848484846116a9565b600080516020612b78833981519152610cdc816111b8565b6107f58383306116dc565b6107f5338484846117b4565b600080516020612b78833981519152610d0b816111b8565b6107f58383611a7b565b600080516020612b78833981519152610d2d816111b8565b5060d280546001600160a01b0319166001600160a01b0392909216919091179055565b6000818152606760205260409020546060906001600160a01b0316610dcf5760405162461bcd60e51b815260206004820152602f60248201527f4552433732314d657461646174613a2055524920717565727920666f72206e6f60448201526e3732bc34b9ba32b73a103a37b5b2b760891b6064820152608401610754565b60c95460405163d8bcda2760e01b8152306004820152602481018490526001600160a01b039091169063d8bcda279060440160006040518083038186803b158015610e1957600080fd5b505afa158015610e2d573d6000803e3d6000fd5b505050506040513d6000823e601f3d908101601f19168201604052610620919081019061261e565b600082815260976020526040902060010154610e70816111b8565b6107f58383611248565b600080516020612b78833981519152610e92816111b8565b61093d848484611b4f565b60006001600160e01b03198216637965db0b60e01b1480610620575061062082611be7565b6000818152606760205260409020546001600160a01b0316610f215760405162461bcd60e51b8152602060048201526018602482015277115490cdcc8c4e881a5b9d985b1a59081d1bdad95b88125160421b6044820152606401610754565b50565b600081815260696020526040902080546001600160a01b0319166001600160a01b0384169081179091558190610f5982610943565b6001600160a01b03167f8c5be1e5ebec7d5bd14f71427d1e84f3dd0314c0f7b2291e5b200ac8c7c3b92560405160405180910390a45050565b600080610f9e83610943565b9050806001600160a01b0316846001600160a01b03161480610fe557506001600160a01b038082166000908152606a602090815260408083209388168352929052205460ff165b806110095750836001600160a01b0316610ffe846106b8565b6001600160a01b0316145b949350505050565b826001600160a01b031661102482610943565b6001600160a01b0316146110885760405162461bcd60e51b815260206004820152602560248201527f4552433732313a207472616e736665722066726f6d20696e636f72726563742060448201526437bbb732b960d91b6064820152608401610754565b6001600160a01b0382166110ea5760405162461bcd60e51b8152602060048201526024808201527f4552433732313a207472616e7366657220746f20746865207a65726f206164646044820152637265737360e01b6064820152608401610754565b6110f5838383611c37565b611100600082610f24565b6001600160a01b0383166000908152606860205260408120805460019290611129908490612a42565b90915550506001600160a01b03821660009081526068602052604081208054600192906111579084906129eb565b909155505060008181526067602052604080822080546001600160a01b0319166001600160a01b0386811691821790925591518493918716917fddf252ad1be2c89b69c2b068fc378daa952ba7f163c4a11628f55a4df523b3ef91a4505050565b610f218133611d91565b6111cc8282610b8f565b6108da5760008281526097602090815260408083206001600160a01b03851684529091529020805460ff191660011790556112043390565b6001600160a01b0316816001600160a01b0316837f2f8788117e7eff1d82e926ec794901d17c78024a50270940304540a733656f0d60405160405180910390a45050565b6112528282610b8f565b156108da5760008281526097602090815260408083206001600160a01b0385168085529252808320805460ff1916905551339285917ff6391f5c32d9c69d2a47ea670b442974b53935d1edc7fd64eb21e047a839171b9190a45050565b600080516020612b588339815191526112c7816111b8565b5060cb805460ff1916911515919091179055565b60006112e6816111b8565b600084815260cd6020526040902054156113395760405162461bcd60e51b8152602060048201526014602482015273417373657420616c72656164792065786973747360601b6044820152606401610754565b600084815260cf6020526040902080546001600160a01b0319166001600160a01b03841617905561136e84633b9aca00612a23565b600085815260cd60205260409020558261138c85633b9aca00612a23565b61139691906129eb565b600094855260ce602052604090942093909355505050565b8160005b8181101561147657856113de868684818110610b4e57634e487b7160e01b600052603260045260246000fd5b146114255760405162461bcd60e51b8152602060048201526017602482015276125b9d985b1a59081d1bdad95b88199bdc88185cdcd95d604a1b6044820152606401610754565b8260d1600087878581811061144a57634e487b7160e01b600052603260045260246000fd5b90506020020135815260200190815260200160002081905550808061146e90612ad7565b9150506113b2565b505050505050565b8060005b81811015611476576114bb86868686858181106114af57634e487b7160e01b600052603260045260246000fd5b90506020020135611011565b806114c581612ad7565b915050611482565b816001600160a01b0316836001600160a01b0316141561152f5760405162461bcd60e51b815260206004820152601960248201527f4552433732313a20617070726f766520746f2063616c6c6572000000000000006044820152606401610754565b6001600160a01b038381166000818152606a6020908152604080832094871680845294825291829020805460ff191686151590811790915591519182527f17307eab39ab6107e8899845ad3d59bd9653f200f220920489ca2b5937696c31910160405180910390a3505050565b600080516020612b588339815191526115b4816111b8565b600084815260d06020526040812080548492906115d29084906129eb565b9091555050600084815260cf6020526040908190205490516323b872dd60e01b81526001600160a01b03878116600483015230602483015260448201869052909116906323b872dd90606401602060405180830381600087803b15801561163857600080fd5b505af115801561164c573d6000803e3d6000fd5b505050506040513d601f19601f82011682018060405250810190611476919061258e565b600080516020612b58833981519152611688816111b8565b50600091825260cc6020526040909120805460ff1916911515919091179055565b6116b4848484611011565b6116c084848484611df5565b61093d5760405162461bcd60e51b8152600401610754906128f2565b600080516020612b588339815191526116f4816111b8565b600084815260ce602090815260408083205460cd9092529091205461171a9085906129eb565b111561175d5760405162461bcd60e51b8152602060048201526012602482015271082dadeeadce840caf0c6cacac8e640dac2f60731b6044820152606401610754565b60005b83811015610bf857600085815260cd6020526040902054611782908490611f02565b600085815260cd6020526040812080549161179c83612ad7565b919050555080806117ac90612ad7565b915050611760565b600080516020612b588339815191526117cc816111b8565b6001600160a01b038516600090815260ca602052604090205460ff166118345760405162461bcd60e51b815260206004820152601860248201527f4f776e6572206973206e6f742077686974656c697374656400000000000000006044820152606401610754565b600084815260d060205260408120548390825b828110156119e157886001600160a01b031661188888888481811061187c57634e487b7160e01b600052603260045260246000fd5b90506020020135610943565b6001600160a01b0316146118d45760405162461bcd60e51b815260206004820152601360248201527224b73b30b634b2103a37b5b2b71037bbb732b960691b6044820152606401610754565b876118f8888884818110610b4e57634e487b7160e01b600052603260045260246000fd5b1461193f5760405162461bcd60e51b8152602060048201526017602482015276125b9d985b1a59081d1bdad95b88199bdc88185cdcd95d604a1b6044820152606401610754565b60d1600088888481811061196357634e487b7160e01b600052603260045260246000fd5b90506020020135815260200190815260200160002054826119849190612a42565b61198e90856129eb565b93508160d160008989858181106119b557634e487b7160e01b600052603260045260246000fd5b9050602002013581526020019081526020016000208190555080806119d990612ad7565b915050611847565b50600087815260cf6020526040908190205490516323b872dd60e01b81523060048201526001600160a01b038a8116602483015260448201869052909116906323b872dd90606401602060405180830381600087803b158015611a4357600080fd5b505af1158015611a57573d6000803e3d6000fd5b505050506040513d601f19601f82011682018060405250810190610b84919061258e565b600080516020612b58833981519152611a93816111b8565b81611aa284633b9aca00612a23565b611aac91906129eb565b600084815260cd60205260409020541115611b1f5760405162461bcd60e51b815260206004820152602d60248201527f4173736574206361702063616e206e6f74206265206c6f776572207468616e2060448201526c1b5a5b9d195908185b5bdd5b9d609a1b6064820152608401610754565b81611b2e84633b9aca00612a23565b611b3891906129eb565b600093845260ce6020526040909320929092555050565b600080516020612b58833981519152611b67816111b8565b8260005b81811015611476578360ca6000888885818110611b9857634e487b7160e01b600052603260045260246000fd5b9050602002016020810190611bad91906122d4565b6001600160a01b031681526020810191909152604001600020805460ff191691151591909117905580611bdf81612ad7565b915050611b6b565b60006001600160e01b031982166380ac58cd60e01b1480611c1857506001600160e01b03198216635b5e139f60e01b145b8061062057506301ffc9a760e01b6001600160e01b0319831614610620565b6001600160a01b0383161580611c5557506001600160a01b03831630145b6107f55760cb5460ff1615611cac5760405162461bcd60e51b815260206004820152601e60248201527f5472616e7366657273206172652063757272656e746c792070617573656400006044820152606401610754565b60cc6000611cb9836107fa565b815260208101919091526040016000205460ff1615611d0c5760405162461bcd60e51b815260206004820152600f60248201526e105cdcd95d081a5cc81c185d5cd959608a1b6044820152606401610754565b6001600160a01b038316600090815260ca602052604090205460ff168015611d4c57506001600160a01b038216600090815260ca602052604090205460ff165b6107f55760405162461bcd60e51b815260206004820152601660248201527524b73b30b634b2103a37b5b2b7103a3930b739b332b960511b6044820152606401610754565b611d9b8282610b8f565b6108da57611db3816001600160a01b03166014612050565b611dbe836020612050565b604051602001611dcf9291906127d9565b60408051601f198184030181529082905262461bcd60e51b8252610754916004016128df565b60006001600160a01b0384163b15611ef757604051630a85bd0160e11b81526001600160a01b0385169063150b7a0290611e399033908990889088906004016128a2565b602060405180830381600087803b158015611e5357600080fd5b505af1925050508015611e83575060408051601f3d908101601f19168201909252611e8091810190612602565b60015b611edd573d808015611eb1576040519150601f19603f3d011682016040523d82523d6000602084013e611eb6565b606091505b508051611ed55760405162461bcd60e51b8152600401610754906128f2565b805181602001fd5b6001600160e01b031916630a85bd0160e11b149050611009565b506001949350505050565b6001600160a01b038216611f585760405162461bcd60e51b815260206004820181905260248201527f4552433732313a206d696e7420746f20746865207a65726f20616464726573736044820152606401610754565b6000818152606760205260409020546001600160a01b031615611fbd5760405162461bcd60e51b815260206004820152601c60248201527f4552433732313a20746f6b656e20616c7265616479206d696e746564000000006044820152606401610754565b611fc960008383611c37565b6001600160a01b0382166000908152606860205260408120805460019290611ff29084906129eb565b909155505060008181526067602052604080822080546001600160a01b0319166001600160a01b03861690811790915590518392907fddf252ad1be2c89b69c2b068fc378daa952ba7f163c4a11628f55a4df523b3ef908290a45050565b6060600061205f836002612a23565b61206a9060026129eb565b67ffffffffffffffff81111561209057634e487b7160e01b600052604160045260246000fd5b6040519080825280601f01601f1916602001820160405280156120ba576020820181803683370190505b509050600360fc1b816000815181106120e357634e487b7160e01b600052603260045260246000fd5b60200101906001600160f81b031916908160001a905350600f60fb1b8160018151811061212057634e487b7160e01b600052603260045260246000fd5b60200101906001600160f81b031916908160001a9053506000612144846002612a23565b61214f9060016129eb565b90505b60018111156121e3576f181899199a1a9b1b9c1cb0b131b232b360811b85600f166010811061219157634e487b7160e01b600052603260045260246000fd5b1a60f81b8282815181106121b557634e487b7160e01b600052603260045260246000fd5b60200101906001600160f81b031916908160001a90535060049490941c936121dc81612a85565b9050612152565b5083156122325760405162461bcd60e51b815260206004820181905260248201527f537472696e67733a20686578206c656e67746820696e73756666696369656e746044820152606401610754565b9392505050565b60008083601f84011261224a578081fd5b50813567ffffffffffffffff811115612261578182fd5b6020830191508360208260051b850101111561227c57600080fd5b9250929050565b600082601f830112612293578081fd5b81356122a66122a1826129c3565b612992565b8181528460208386010111156122ba578283fd5b816020850160208301379081016020019190915292915050565b6000602082840312156122e5578081fd5b813561223281612b1e565b60008060408385031215612302578081fd5b823561230d81612b1e565b9150602083013561231d81612b1e565b809150509250929050565b6000806000806060858703121561233d578182fd5b843561234881612b1e565b9350602085013561235881612b1e565b9250604085013567ffffffffffffffff811115612373578283fd5b61237f87828801612239565b95989497509550505050565b60008060006060848603121561239f578283fd5b83356123aa81612b1e565b925060208401356123ba81612b1e565b929592945050506040919091013590565b600080600080608085870312156123e0578384fd5b84356123eb81612b1e565b935060208501356123fb81612b1e565b925060408501359150606085013567ffffffffffffffff81111561241d578182fd5b61242987828801612283565b91505092959194509250565b60008060408385031215612447578182fd5b823561245281612b1e565b9150602083013561231d81612b33565b60008060408385031215612474578182fd5b823561247f81612b1e565b946020939093013593505050565b6000806000604084860312156124a1578283fd5b833567ffffffffffffffff8111156124b7578384fd5b6124c386828701612239565b90945092505060208401356124d781612b33565b809150509250925092565b60008060008060008060a087890312156124fa578384fd5b863567ffffffffffffffff80821115612511578586fd5b61251d8a838b01612239565b90985096506020890135915080821115612535578586fd5b5061254289828a01612283565b945050604087013560ff81168114612558578283fd5b959894975092956060810135946080909101359350915050565b600060208284031215612583578081fd5b813561223281612b33565b60006020828403121561259f578081fd5b815161223281612b33565b6000602082840312156125bb578081fd5b5035919050565b600080604083850312156125d4578182fd5b82359150602083013561231d81612b1e565b6000602082840312156125f7578081fd5b813561223281612b41565b600060208284031215612613578081fd5b815161223281612b41565b60006020828403121561262f578081fd5b815167ffffffffffffffff811115612645578182fd5b8201601f81018413612655578182fd5b80516126636122a1826129c3565b818152856020838501011115612677578384fd5b612688826020830160208601612a59565b95945050505050565b6000806000604084860312156126a5578081fd5b83359250602084013567ffffffffffffffff8111156126c2578182fd5b6126ce86828701612239565b9497909650939450505050565b600080604083850312156126ed578182fd5b82359150602083013561231d81612b33565b60008060408385031215612711578182fd5b50508035926020909101359150565b600080600060608486031215612734578081fd5b833592506020840135915060408401356124d781612b1e565b60008060008060808587031215612762578182fd5b5050823594602084013594506040840135936060013592509050565b60008151808452612796816020860160208601612a59565b601f01601f19169290920160200192915050565b600083516127bc818460208801612a59565b8351908301906127d0818360208801612a59565b01949350505050565b7f416363657373436f6e74726f6c3a206163636f756e7420000000000000000000815260008351612811816017850160208801612a59565b7001034b99036b4b9b9b4b733903937b6329607d1b6017918401918201528351612842816028840160208801612a59565b01602801949350505050565b6001600160a01b03858116825284166020820152606060408201819052810182905260006001600160fb1b03831115612885578081fd5b8260051b8085608085013791909101608001908152949350505050565b6001600160a01b03858116825284166020820152604081018390526080606082018190526000906128d59083018461277e565b9695505050505050565b602081526000612232602083018461277e565b60208082526032908201527f4552433732313a207472616e7366657220746f206e6f6e20455243373231526560408201527131b2b4bb32b91034b6b83632b6b2b73a32b960711b606082015260800190565b6020808252602e908201527f4552433732313a2063616c6c6572206973206e6f7420746f6b656e206f776e6560408201526d1c881b9bdc88185c1c1c9bdd995960921b606082015260800190565b604051601f8201601f1916810167ffffffffffffffff811182821017156129bb576129bb612b08565b604052919050565b600067ffffffffffffffff8211156129dd576129dd612b08565b50601f01601f191660200190565b600082198211156129fe576129fe612af2565b500190565b600082612a1e57634e487b7160e01b81526012600452602481fd5b500490565b6000816000190483118215151615612a3d57612a3d612af2565b500290565b600082821015612a5457612a54612af2565b500390565b60005b83811015612a74578181015183820152602001612a5c565b8381111561093d5750506000910152565b600081612a9457612a94612af2565b506000190190565b600181811c90821680612ab057607f821691505b60208210811415612ad157634e487b7160e01b600052602260045260246000fd5b50919050565b6000600019821415612aeb57612aeb612af2565b5060010190565b634e487b7160e01b600052601160045260246000fd5b634e487b7160e01b600052604160045260246000fd5b6001600160a01b0381168114610f2157600080fd5b8015158114610f2157600080fd5b6001600160e01b031981168114610f2157600080fdfef40ec076ff2e3a403e1c18632267861d39085e7f359ca5665846f335632cf819df8b4c520ffe197c5343c6f5aec59570151ef9a492f2c624fd45ddde6135ec42a26469706673582212209cdffc1bf6ba17345ae22ce9d4cac10bc7a9509c8796a9934303da06a69ed7f864736f6c63430008040033",
  "linkReferences": {},
  "deployedLinkReferences": {}
}