{
  "_format": "hh-sol-artifact-1",
  "contractName": "Handler",
  "sourceName": "contracts/Handler.sol",
  "abi": [
    {
      "anonymous": false,
      "inputs": [
        {
          "indexed": true,
          "internalType": "address",
          "name": "owner",
          "type": "address"
        },
        {
          "indexed": true,
          "internalType": "address",
          "name": "approved",
          "type": "address"
        },
        {
          "indexed": true,
          "internalType": "uint256",
          "name": "tokenId",
          "type": "uint256"
        }
      ],
      "name": "Approval",
      "type": "event"
    },
    {
      "anonymous": false,
      "inputs": [
        {
          "indexed": true,
          "internalType": "address",
          "name": "owner",
          "type": "address"
        },
        {
          "indexed": true,
          "internalType": "address",
          "name": "operator",
          "type": "address"
        },
        {
          "indexed": false,
          "internalType": "bool",
          "name": "approved",
          "type": "bool"
        }
      ],
      "name": "ApprovalForAll",
      "type": "event"
    },
    {
      "anonymous": false,
      "inputs": [
        {
          "indexed": false,
          "internalType": "uint8",
          "name": "version",
          "type": "uint8"
        }
      ],
      "name": "Initialized",
      "type": "event"
    },
    {
      "anonymous": false,
      "inputs": [
        {
          "indexed": true,
          "internalType": "bytes32",
          "name": "role",
          "type": "bytes32"
        },
        {
          "indexed": true,
          "internalType": "bytes32",
          "name": "previousAdminRole",
          "type": "bytes32"
        },
        {
          "indexed": true,
          "internalType": "bytes32",
          "name": "newAdminRole",
          "type": "bytes32"
        }
      ],
      "name": "RoleAdminChanged",
      "type": "event"
    },
    {
      "anonymous": false,
      "inputs": [
        {
          "indexed": true,
          "internalType": "bytes32",
          "name": "role",
          "type": "bytes32"
        },
        {
          "indexed": true,
          "internalType": "address",
          "name": "account",
          "type": "address"
        },
        {
          "indexed": true,
          "internalType": "address",
          "name": "sender",
          "type": "address"
        }
      ],
      "name": "RoleGranted",
      "type": "event"
    },
    {
      "anonymous": false,
      "inputs": [
        {
          "indexed": true,
          "internalType": "bytes32",
          "name": "role",
          "type": "bytes32"
        },
        {
          "indexed": true,
          "internalType": "address",
          "name": "account",
          "type": "address"
        },
        {
          "indexed": true,
          "internalType": "address",
          "name": "sender",
          "type": "address"
        }
      ],
      "name": "RoleRevoked",
      "type": "event"
    },
    {
      "anonymous": false,
      "inputs": [
        {
          "indexed": true,
          "internalType": "address",
          "name": "from",
          "type": "address"
        },
        {
          "indexed": true,
          "internalType": "address",
          "name": "to",
          "type": "address"
        },
        {
          "indexed": true,
          "internalType": "uint256",
          "name": "tokenId",
          "type": "uint256"
        }
      ],
      "name": "Transfer",
      "type": "event"
    },
    {
      "inputs": [],
      "name": "ADMIN",
      "outputs": [
        {
          "internalType": "bytes32",
          "name": "",
          "type": "bytes32"
        }
      ],
      "stateMutability": "view",
      "type": "function"
    },
    {
      "inputs": [],
      "name": "DEFAULT_ADMIN_ROLE",
      "outputs": [
        {
          "internalType": "bytes32",
          "name": "",
          "type": "bytes32"
        }
      ],
      "stateMutability": "view",
      "type": "function"
    },
    {
      "inputs": [],
      "name": "HANDLER",
      "outputs": [
        {
          "internalType": "bytes32",
          "name": "",
          "type": "bytes32"
        }
      ],
      "stateMutability": "view",
      "type": "function"
    },
    {
      "inputs": [
        {
          "internalType": "uint256",
          "name": "_tokenId",
          "type": "uint256"
        }
      ],
      "name": "_getTokenAsset",
      "outputs": [
        {
          "internalType": "uint256",
          "name": "",
          "type": "uint256"
        }
      ],
      "stateMutability": "pure",
      "type": "function"
    },
    {
      "inputs": [
        {
          "internalType": "uint256",
          "name": "_assetId",
          "type": "uint256"
        },
        {
          "internalType": "uint256",
          "name": "_totalRev",
          "type": "uint256"
        },
        {
          "internalType": "uint256",
          "name": "_unitsCount",
          "type": "uint256"
        },
        {
          "internalType": "uint256",
          "name": "_amountPerShare",
          "type": "uint256"
        }
      ],
      "name": "addRevenue",
      "outputs": [],
      "stateMutability": "nonpayable",
      "type": "function"
    },
    {
      "inputs": [
        {
          "internalType": "address",
          "name": "to",
          "type": "address"
        },
        {
          "internalType": "uint256",
          "name": "tokenId",
          "type": "uint256"
        }
      ],
      "name": "approve",
      "outputs": [],
      "stateMutability": "nonpayable",
      "type": "function"
    },
    {
      "inputs": [
        {
          "internalType": "uint256",
          "name": "",
          "type": "uint256"
        }
      ],
      "name": "assetPaused",
      "outputs": [
        {
          "internalType": "bool",
          "name": "",
          "type": "bool"
        }
      ],
      "stateMutability": "view",
      "type": "function"
    },
    {
      "inputs": [
        {
          "internalType": "uint256",
          "name": "",
          "type": "uint256"
        }
      ],
      "name": "assetRevToken",
      "outputs": [
        {
          "internalType": "contract IERC20Upgradeable",
          "name": "",
          "type": "address"
        }
      ],
      "stateMutability": "view",
      "type": "function"
    },
    {
      "inputs": [
        {
          "internalType": "address",
          "name": "owner",
          "type": "address"
        }
      ],
      "name": "balanceOf",
      "outputs": [
        {
          "internalType": "uint256",
          "name": "",
          "type": "uint256"
        }
      ],
      "stateMutability": "view",
      "type": "function"
    },
    {
      "inputs": [
        {
          "internalType": "uint256",
          "name": "_assetId",
          "type": "uint256"
        },
        {
          "internalType": "uint256[]",
          "name": "_tokenIds",
          "type": "uint256[]"
        }
      ],
      "name": "claimRevenue",
      "outputs": [],
      "stateMutability": "nonpayable",
      "type": "function"
    },
    {
      "inputs": [
        {
          "internalType": "uint256[]",
          "name": "_tokenIds",
          "type": "uint256[]"
        },
        {
          "internalType": "bytes",
          "name": "_prefix",
          "type": "bytes"
        },
        {
          "internalType": "uint8",
          "name": "_v",
          "type": "uint8"
        },
        {
          "internalType": "bytes32",
          "name": "_r",
          "type": "bytes32"
        },
        {
          "internalType": "bytes32",
          "name": "_s",
          "type": "bytes32"
        }
      ],
      "name": "claimUnits",
      "outputs": [],
      "stateMutability": "nonpayable",
      "type": "function"
    },
    {
      "inputs": [
        {
          "internalType": "uint256",
          "name": "",
          "type": "uint256"
        }
      ],
      "name": "claimedRev",
      "outputs": [
        {
          "internalType": "uint256",
          "name": "",
          "type": "uint256"
        }
      ],
      "stateMutability": "view",
      "type": "function"
    },
    {
      "inputs": [
        {
          "internalType": "uint256",
          "name": "_assetId",
          "type": "uint256"
        },
        {
          "internalType": "uint256",
          "name": "_tokenCap",
          "type": "uint256"
        },
        {
          "internalType": "contract IERC20Upgradeable",
          "name": "_revToken",
          "type": "address"
        }
      ],
      "name": "createAsset",
      "outputs": [],
      "stateMutability": "nonpayable",
      "type": "function"
    },
    {
      "inputs": [
        {
          "internalType": "uint256",
          "name": "tokenId",
          "type": "uint256"
        }
      ],
      "name": "getApproved",
      "outputs": [
        {
          "internalType": "address",
          "name": "",
          "type": "address"
        }
      ],
      "stateMutability": "view",
      "type": "function"
    },
    {
      "inputs": [
        {
          "internalType": "bytes32",
          "name": "role",
          "type": "bytes32"
        }
      ],
      "name": "getRoleAdmin",
      "outputs": [
        {
          "internalType": "bytes32",
          "name": "",
          "type": "bytes32"
        }
      ],
      "stateMutability": "view",
      "type": "function"
    },
    {
      "inputs": [
        {
          "internalType": "bytes32",
          "name": "role",
          "type": "bytes32"
        },
        {
          "internalType": "address",
          "name": "account",
          "type": "address"
        }
      ],
      "name": "grantRole",
      "outputs": [],
      "stateMutability": "nonpayable",
      "type": "function"
    },
    {
      "inputs": [
        {
          "internalType": "bytes32",
          "name": "role",
          "type": "bytes32"
        },
        {
          "internalType": "address",
          "name": "account",
          "type": "address"
        }
      ],
      "name": "hasRole",
      "outputs": [
        {
          "internalType": "bool",
          "name": "",
          "type": "bool"
        }
      ],
      "stateMutability": "view",
      "type": "function"
    },
    {
      "inputs": [
        {
          "internalType": "address",
          "name": "owner",
          "type": "address"
        },
        {
          "internalType": "address",
          "name": "operator",
          "type": "address"
        }
      ],
      "name": "isApprovedForAll",
      "outputs": [
        {
          "internalType": "bool",
          "name": "",
          "type": "bool"
        }
      ],
      "stateMutability": "view",
      "type": "function"
    },
    {
      "inputs": [
        {
          "internalType": "address",
          "name": "",
          "type": "address"
        }
      ],
      "name": "isWhitelisted",
      "outputs": [
        {
          "internalType": "bool",
          "name": "",
          "type": "bool"
        }
      ],
      "stateMutability": "view",
      "type": "function"
    },
    {
      "inputs": [
        {
          "internalType": "uint256",
          "name": "",
          "type": "uint256"
        }
      ],
      "name": "lastId",
      "outputs": [
        {
          "internalType": "uint256",
          "name": "",
          "type": "uint256"
        }
      ],
      "stateMutability": "view",
      "type": "function"
    },
    {
      "inputs": [
        {
          "internalType": "uint256",
          "name": "_assetId",
          "type": "uint256"
        },
        {
          "internalType": "uint256",
          "name": "_amount",
          "type": "uint256"
        }
      ],
      "name": "mintAsset",
      "outputs": [],
      "stateMutability": "nonpayable",
      "type": "function"
    },
    {
      "inputs": [],
      "name": "name",
      "outputs": [
        {
          "internalType": "string",
          "name": "",
          "type": "string"
        }
      ],
      "stateMutability": "view",
      "type": "function"
    },
    {
      "inputs": [
        {
          "internalType": "uint256",
          "name": "",
          "type": "uint256"
        }
      ],
      "name": "nextId",
      "outputs": [
        {
          "internalType": "uint256",
          "name": "",
          "type": "uint256"
        }
      ],
      "stateMutability": "view",
      "type": "function"
    },
    {
      "inputs": [
        {
          "internalType": "uint256",
          "name": "tokenId",
          "type": "uint256"
        }
      ],
      "name": "ownerOf",
      "outputs": [
        {
          "internalType": "address",
          "name": "",
          "type": "address"
        }
      ],
      "stateMutability": "view",
      "type": "function"
    },
    {
      "inputs": [
        {
          "internalType": "bool",
          "name": "_pause",
          "type": "bool"
        }
      ],
      "name": "pauseHandler",
      "outputs": [],
      "stateMutability": "nonpayable",
      "type": "function"
    },
    {
      "inputs": [
        {
          "internalType": "bytes32",
          "name": "role",
          "type": "bytes32"
        },
        {
          "internalType": "address",
          "name": "account",
          "type": "address"
        }
      ],
      "name": "renounceRole",
      "outputs": [],
      "stateMutability": "nonpayable",
      "type": "function"
    },
    {
      "inputs": [
        {
          "internalType": "address",
          "name": "_from",
          "type": "address"
        },
        {
          "internalType": "address",
          "name": "_to",
          "type": "address"
        },
        {
          "internalType": "uint256[]",
          "name": "_tokenIds",
          "type": "uint256[]"
        }
      ],
      "name": "returnUnits",
      "outputs": [],
      "stateMutability": "nonpayable",
      "type": "function"
    },
    {
      "inputs": [
        {
          "internalType": "bytes32",
          "name": "role",
          "type": "bytes32"
        },
        {
          "internalType": "address",
          "name": "account",
          "type": "address"
        }
      ],
      "name": "revokeRole",
      "outputs": [],
      "stateMutability": "nonpayable",
      "type": "function"
    },
    {
      "inputs": [
        {
          "internalType": "address",
          "name": "from",
          "type": "address"
        },
        {
          "internalType": "address",
          "name": "to",
          "type": "address"
        },
        {
          "internalType": "uint256",
          "name": "tokenId",
          "type": "uint256"
        }
      ],
      "name": "safeTransferFrom",
      "outputs": [],
      "stateMutability": "nonpayable",
      "type": "function"
    },
    {
      "inputs": [
        {
          "internalType": "address",
          "name": "from",
          "type": "address"
        },
        {
          "internalType": "address",
          "name": "to",
          "type": "address"
        },
        {
          "internalType": "uint256",
          "name": "tokenId",
          "type": "uint256"
        },
        {
          "internalType": "bytes",
          "name": "data",
          "type": "bytes"
        }
      ],
      "name": "safeTransferFrom",
      "outputs": [],
      "stateMutability": "nonpayable",
      "type": "function"
    },
    {
      "inputs": [
        {
          "internalType": "address",
          "name": "operator",
          "type": "address"
        },
        {
          "internalType": "bool",
          "name": "approved",
          "type": "bool"
        }
      ],
      "name": "setApprovalForAll",
      "outputs": [],
      "stateMutability": "nonpayable",
      "type": "function"
    },
    {
      "inputs": [
        {
          "internalType": "uint256",
          "name": "_assetId",
          "type": "uint256"
        },
        {
          "internalType": "bool",
          "name": "_paused",
          "type": "bool"
        }
      ],
      "name": "setAssetTransfersPaused",
      "outputs": [],
      "stateMutability": "nonpayable",
      "type": "function"
    },
    {
      "inputs": [
        {
          "internalType": "bool",
          "name": "_paused",
          "type": "bool"
        }
      ],
      "name": "setTransfersPaused",
      "outputs": [],
      "stateMutability": "nonpayable",
      "type": "function"
    },
    {
      "inputs": [
        {
          "internalType": "address[]",
          "name": "_users",
          "type": "address[]"
        },
        {
          "internalType": "bool",
          "name": "_isWhitelisted",
          "type": "bool"
        }
      ],
      "name": "setWhitelisted",
      "outputs": [],
      "stateMutability": "nonpayable",
      "type": "function"
    },
    {
      "inputs": [
        {
          "internalType": "bytes4",
          "name": "interfaceId",
          "type": "bytes4"
        }
      ],
      "name": "supportsInterface",
      "outputs": [
        {
          "internalType": "bool",
          "name": "",
          "type": "bool"
        }
      ],
      "stateMutability": "view",
      "type": "function"
    },
    {
      "inputs": [],
      "name": "symbol",
      "outputs": [
        {
          "internalType": "string",
          "name": "",
          "type": "string"
        }
      ],
      "stateMutability": "view",
      "type": "function"
    },
    {
      "inputs": [
        {
          "internalType": "uint256",
          "name": "_tokenId",
          "type": "uint256"
        }
      ],
      "name": "tokenURI",
      "outputs": [
        {
          "internalType": "string",
          "name": "",
          "type": "string"
        }
      ],
      "stateMutability": "view",
      "type": "function"
    },
    {
      "inputs": [
        {
          "internalType": "uint256",
          "name": "",
          "type": "uint256"
        }
      ],
      "name": "totalShareRev",
      "outputs": [
        {
          "internalType": "uint256",
          "name": "",
          "type": "uint256"
        }
      ],
      "stateMutability": "view",
      "type": "function"
    },
    {
      "inputs": [
        {
          "internalType": "address",
          "name": "from",
          "type": "address"
        },
        {
          "internalType": "address",
          "name": "to",
          "type": "address"
        },
        {
          "internalType": "uint256",
          "name": "tokenId",
          "type": "uint256"
        }
      ],
      "name": "transferFrom",
      "outputs": [],
      "stateMutability": "nonpayable",
      "type": "function"
    },
    {
      "inputs": [
        {
          "internalType": "bool",
          "name": "_unpause",
          "type": "bool"
        }
      ],
      "name": "unpauseHandler",
      "outputs": [],
      "stateMutability": "nonpayable",
      "type": "function"
    },
    {
      "inputs": [
        {
          "internalType": "uint256",
          "name": "_assetId",
          "type": "uint256"
        },
        {
          "internalType": "uint256",
          "name": "_tokenCap",
          "type": "uint256"
        }
      ],
      "name": "updateAssetCap",
      "outputs": [],
      "stateMutability": "nonpayable",
      "type": "function"
    },
    {
      "inputs": [
        {
          "internalType": "address",
          "name": "_serverPubKey",
          "type": "address"
        }
      ],
      "name": "updateServer",
      "outputs": [],
      "stateMutability": "nonpayable",
      "type": "function"
    }
  ],
  "bytecode": "0x608060405234801561001057600080fd5b50612cc7806100206000396000f3fe608060405234801561001057600080fd5b506004361061025e5760003560e01c806392877ddc11610146578063b88d4fde116100c3578063c783031711610087578063c78303171461058d578063c87b56dd146105a0578063cf0b3a51146105b3578063d547741f146105dc578063e985e9c5146105ef578063f3c4b7041461062b57600080fd5b8063b88d4fde1461052c578063b88dab321461053f578063b9a2899414610552578063bfef152014610567578063c58354b71461057a57600080fd5b8063a86e66761161010a578063a86e6676146104d3578063ac2b2055146104e6578063b0e7b3941461049d578063b22aec5a14610506578063b819fbd41461051957600080fd5b806392877ddc1461047d5780639293da2a1461049d57806395d89b41146104b0578063a217fddf146104b8578063a22cb465146104c057600080fd5b806336568abe116101df5780636352211e116101a35780636352211e146103f157806370a082311461040457806376ee32c114610417578063834eb2481461043757806386ed41171461044a57806391d148541461046a57600080fd5b806336568abe146103825780633af32abf1461039557806342842e0e146103b857806344e46dff146103cb578063498e5165146103de57600080fd5b806323b40c0b1161022657806323b40c0b1461030357806323b872dd14610324578063248a9ca3146103375780632a0acc6a1461035a5780632f2ff15d1461036f57600080fd5b806301ffc9a71461026357806306fdde031461028b578063081812fc146102a0578063095ea7b3146102cb578063220f27eb146102e0575b600080fd5b6102766102713660046126e0565b61063e565b60405190151581526020015b60405180910390f35b61029361064f565b60405161028291906129d9565b6102b36102ae3660046126a4565b6106e1565b6040516001600160a01b039091168152602001610282565b6102de6102d936600461255c565b610708565b005b6102766102ee3660046126a4565b60cc6020526000908152604090205460ff1681565b6103166103113660046126a4565b610823565b604051908152602001610282565b6102de610332366004612485565b610833565b6103166103453660046126a4565b60009081526097602052604090206001015490565b610316600080516020612c7283398151915281565b6102de61037d3660046126bc565b610864565b6102de6103903660046126bc565b610889565b6102766103a33660046123ce565b60ca6020526000908152604090205460ff1681565b6102de6103c6366004612485565b610907565b6102de6103d936600461266c565b610922565b6102de6103ec36600461281a565b610943565b6102b36103ff3660046126a4565b61096c565b6103166104123660046123ce565b6109cc565b6103166104253660046126a4565b60ce6020526000908152604090205481565b6102de6104453660046125dc565b610a52565b6103166104583660046126a4565b60d16020526000908152604090205481565b6102766104783660046126bc565b610c05565b61031661048b3660046126a4565b60cd6020526000908152604090205481565b6102de6104ab36600461266c565b610c30565b610293610c67565b610316600081565b6102de6104ce36600461252f565b610c76565b6102de6104e1366004612422565b610c81565b6103166104f43660046126a4565b60d06020526000908152604090205481565b6102de610514366004612847565b610cac565b6102de6105273660046127d5565b610d1d565b6102de61053a3660046124c5565b610d3f565b6102de61054d3660046127f9565b610d71565b610316600080516020612c5283398151915281565b6102de61057536600461278b565b610d94565b6102de6105883660046127f9565b610ded565b6102de61059b3660046123ce565b610e0f565b6102936105ae3660046126a4565b610e4a565b6102b36105c13660046126a4565b60cf602052600090815260409020546001600160a01b031681565b6102de6105ea3660046126bc565b610f4f565b6102766105fd3660046123ea565b6001600160a01b039182166000908152606a6020908152604080832093909416825291909152205460ff1690565b6102de610639366004612587565b610f74565b600061064982610f97565b92915050565b60606065805461065e90612b96565b80601f016020809104026020016040519081016040528092919081815260200182805461068a90612b96565b80156106d75780601f106106ac576101008083540402835291602001916106d7565b820191906000526020600020905b8154815290600101906020018083116106ba57829003601f168201915b5050505050905090565b60006106ec82610fbc565b506000908152606960205260409020546001600160a01b031690565b60006107138261096c565b9050806001600160a01b0316836001600160a01b031614156107865760405162461bcd60e51b815260206004820152602160248201527f4552433732313a20617070726f76616c20746f2063757272656e74206f776e656044820152603960f91b60648201526084015b60405180910390fd5b336001600160a01b03821614806107a257506107a281336105fd565b6108145760405162461bcd60e51b815260206004820152603e60248201527f4552433732313a20617070726f76652063616c6c6572206973206e6f7420746f60448201527f6b656e206f776e6572206e6f7220617070726f76656420666f7220616c6c0000606482015260840161077d565b61081e838361101e565b505050565b6000610649633b9aca0083612afd565b61083d338261108c565b6108595760405162461bcd60e51b815260040161077d90612a3e565b61081e83838361110b565b60008281526097602052604090206001015461087f816112b2565b61081e83836112bc565b6001600160a01b03811633146108f95760405162461bcd60e51b815260206004820152602f60248201527f416363657373436f6e74726f6c3a2063616e206f6e6c792072656e6f756e636560448201526e103937b632b9903337b91039b2b63360891b606482015260840161077d565b6109038282611342565b5050565b61081e83838360405180602001604052806000815250610d3f565b600080516020612c7283398151915261093a816112b2565b610903826113a9565b600080516020612c7283398151915261095b816112b2565b6109668484846113d5565b50505050565b6000818152606760205260408120546001600160a01b0316806106495760405162461bcd60e51b8152602060048201526018602482015277115490cdcc8c4e881a5b9d985b1a59081d1bdad95b88125160421b604482015260640161077d565b60006001600160a01b038216610a365760405162461bcd60e51b815260206004820152602960248201527f4552433732313a2061646472657373207a65726f206973206e6f7420612076616044820152683634b21037bbb732b960b91b606482015260840161077d565b506001600160a01b031660009081526068602052604090205490565b60d354600160a01b900460ff1615610a9f5760405162461bcd60e51b815260206004820152601060248201526f14185d5cd8589b194e881c185d5cd95960821b604482015260640161077d565b600033308888604051602001610ab89493929190612948565b60408051601f198184030181529082905260d2549092506001600160a01b031690600190610aec90889085906020016128a4565b60408051601f198184030181528282528051602091820120600084529083018083525260ff881690820152606081018690526080810185905260a0016020604051602081039080840390855afa158015610b4a573d6000803e3d6000fd5b505050602060405103516001600160a01b031614610b9e5760405162461bcd60e51b8152602060048201526011602482015270496e76616c6964207369676e617475726560781b604482015260640161077d565b6000610bd088886000818110610bc457634e487b7160e01b600052603260045260246000fd5b90506020020135610823565b600081815260d06020526040902054909150610bee828a8a846114a8565b610bfa30338b8b611578565b505050505050505050565b60009182526097602090815260408084206001600160a01b0393909316845291905290205460ff1690565b600080516020612c72833981519152610c48816112b2565b5060d38054911515600160a01b0260ff60a01b19909216919091179055565b60606066805461065e90612b96565b6109033383836115c7565b600080516020612c72833981519152610c99816112b2565b610ca585858585611578565b5050505050565b600080516020612c72833981519152610cc4816112b2565b81610ccf8486612afd565b14610d115760405162461bcd60e51b8152602060048201526012602482015271496e76616c696420696e707574206461746160701b604482015260640161077d565b610ca533868685611696565b600080516020612c72833981519152610d35816112b2565b61081e838361176a565b610d49338361108c565b610d655760405162461bcd60e51b815260040161077d90612a3e565b610966848484846117a3565b600080516020612c72833981519152610d89816112b2565b61081e8383306117d6565b60d354600160a01b900460ff1615610de15760405162461bcd60e51b815260206004820152601060248201526f14185d5cd8589b194e881c185d5cd95960821b604482015260640161077d565b61081e338484846118ae565b600080516020612c72833981519152610e05816112b2565b61081e8383611b75565b600080516020612c72833981519152610e27816112b2565b5060d280546001600160a01b0319166001600160a01b0392909216919091179055565b6000818152606760205260409020546060906001600160a01b0316610ec95760405162461bcd60e51b815260206004820152602f60248201527f4552433732314d657461646174613a2055524920717565727920666f72206e6f60448201526e3732bc34b9ba32b73a103a37b5b2b760891b606482015260840161077d565b60c95460405163d8bcda2760e01b8152306004820152602481018490526001600160a01b039091169063d8bcda279060440160006040518083038186803b158015610f1357600080fd5b505afa158015610f27573d6000803e3d6000fd5b505050506040513d6000823e601f3d908101601f191682016040526106499190810190612718565b600082815260976020526040902060010154610f6a816112b2565b61081e8383611342565b600080516020612c72833981519152610f8c816112b2565b610966848484611c49565b60006001600160e01b03198216637965db0b60e01b1480610649575061064982611ce1565b6000818152606760205260409020546001600160a01b031661101b5760405162461bcd60e51b8152602060048201526018602482015277115490cdcc8c4e881a5b9d985b1a59081d1bdad95b88125160421b604482015260640161077d565b50565b600081815260696020526040902080546001600160a01b0319166001600160a01b03841690811790915581906110538261096c565b6001600160a01b03167f8c5be1e5ebec7d5bd14f71427d1e84f3dd0314c0f7b2291e5b200ac8c7c3b92560405160405180910390a45050565b6000806110988361096c565b9050806001600160a01b0316846001600160a01b031614806110df57506001600160a01b038082166000908152606a602090815260408083209388168352929052205460ff165b806111035750836001600160a01b03166110f8846106e1565b6001600160a01b0316145b949350505050565b826001600160a01b031661111e8261096c565b6001600160a01b0316146111825760405162461bcd60e51b815260206004820152602560248201527f4552433732313a207472616e736665722066726f6d20696e636f72726563742060448201526437bbb732b960d91b606482015260840161077d565b6001600160a01b0382166111e45760405162461bcd60e51b8152602060048201526024808201527f4552433732313a207472616e7366657220746f20746865207a65726f206164646044820152637265737360e01b606482015260840161077d565b6111ef838383611d31565b6111fa60008261101e565b6001600160a01b0383166000908152606860205260408120805460019290611223908490612b3c565b90915550506001600160a01b0382166000908152606860205260408120805460019290611251908490612ae5565b909155505060008181526067602052604080822080546001600160a01b0319166001600160a01b0386811691821790925591518493918716917fddf252ad1be2c89b69c2b068fc378daa952ba7f163c4a11628f55a4df523b3ef91a4505050565b61101b8133611e8b565b6112c68282610c05565b6109035760008281526097602090815260408083206001600160a01b03851684529091529020805460ff191660011790556112fe3390565b6001600160a01b0316816001600160a01b0316837f2f8788117e7eff1d82e926ec794901d17c78024a50270940304540a733656f0d60405160405180910390a45050565b61134c8282610c05565b156109035760008281526097602090815260408083206001600160a01b0385168085529252808320805460ff1916905551339285917ff6391f5c32d9c69d2a47ea670b442974b53935d1edc7fd64eb21e047a839171b9190a45050565b600080516020612c528339815191526113c1816112b2565b5060cb805460ff1916911515919091179055565b60006113e0816112b2565b600084815260cd6020526040902054156114335760405162461bcd60e51b8152602060048201526014602482015273417373657420616c72656164792065786973747360601b604482015260640161077d565b600084815260cf6020526040902080546001600160a01b0319166001600160a01b03841617905561146884633b9aca00612b1d565b600085815260cd60205260409020558261148685633b9aca00612b1d565b6114909190612ae5565b600094855260ce602052604090942093909355505050565b8160005b8181101561157057856114d8868684818110610bc457634e487b7160e01b600052603260045260246000fd5b1461151f5760405162461bcd60e51b8152602060048201526017602482015276125b9d985b1a59081d1bdad95b88199bdc88185cdcd95d604a1b604482015260640161077d565b8260d1600087878581811061154457634e487b7160e01b600052603260045260246000fd5b90506020020135815260200190815260200160002081905550808061156890612bd1565b9150506114ac565b505050505050565b8060005b81811015611570576115b586868686858181106115a957634e487b7160e01b600052603260045260246000fd5b9050602002013561110b565b806115bf81612bd1565b91505061157c565b816001600160a01b0316836001600160a01b031614156116295760405162461bcd60e51b815260206004820152601960248201527f4552433732313a20617070726f766520746f2063616c6c657200000000000000604482015260640161077d565b6001600160a01b038381166000818152606a6020908152604080832094871680845294825291829020805460ff191686151590811790915591519182527f17307eab39ab6107e8899845ad3d59bd9653f200f220920489ca2b5937696c31910160405180910390a3505050565b600080516020612c528339815191526116ae816112b2565b600084815260d06020526040812080548492906116cc908490612ae5565b9091555050600084815260cf6020526040908190205490516323b872dd60e01b81526001600160a01b03878116600483015230602483015260448201869052909116906323b872dd90606401602060405180830381600087803b15801561173257600080fd5b505af1158015611746573d6000803e3d6000fd5b505050506040513d601f19601f820116820180604052508101906115709190612688565b600080516020612c52833981519152611782816112b2565b50600091825260cc6020526040909120805460ff1916911515919091179055565b6117ae84848461110b565b6117ba84848484611eef565b6109665760405162461bcd60e51b815260040161077d906129ec565b600080516020612c528339815191526117ee816112b2565b600084815260ce602090815260408083205460cd90925290912054611814908590612ae5565b11156118575760405162461bcd60e51b8152602060048201526012602482015271082dadeeadce840caf0c6cacac8e640dac2f60731b604482015260640161077d565b60005b83811015610ca557600085815260cd602052604090205461187c908490611ffc565b600085815260cd6020526040812080549161189683612bd1565b919050555080806118a690612bd1565b91505061185a565b600080516020612c528339815191526118c6816112b2565b6001600160a01b038516600090815260ca602052604090205460ff1661192e5760405162461bcd60e51b815260206004820152601860248201527f4f776e6572206973206e6f742077686974656c69737465640000000000000000604482015260640161077d565b600084815260d060205260408120548390825b82811015611adb57886001600160a01b031661198288888481811061197657634e487b7160e01b600052603260045260246000fd5b9050602002013561096c565b6001600160a01b0316146119ce5760405162461bcd60e51b815260206004820152601360248201527224b73b30b634b2103a37b5b2b71037bbb732b960691b604482015260640161077d565b876119f2888884818110610bc457634e487b7160e01b600052603260045260246000fd5b14611a395760405162461bcd60e51b8152602060048201526017602482015276125b9d985b1a59081d1bdad95b88199bdc88185cdcd95d604a1b604482015260640161077d565b60d16000888884818110611a5d57634e487b7160e01b600052603260045260246000fd5b9050602002013581526020019081526020016000205482611a7e9190612b3c565b611a889085612ae5565b93508160d16000898985818110611aaf57634e487b7160e01b600052603260045260246000fd5b905060200201358152602001908152602001600020819055508080611ad390612bd1565b915050611941565b50600087815260cf6020526040908190205490516323b872dd60e01b81523060048201526001600160a01b038a8116602483015260448201869052909116906323b872dd90606401602060405180830381600087803b158015611b3d57600080fd5b505af1158015611b51573d6000803e3d6000fd5b505050506040513d601f19601f82011682018060405250810190610bfa9190612688565b600080516020612c52833981519152611b8d816112b2565b81611b9c84633b9aca00612b1d565b611ba69190612ae5565b600084815260cd60205260409020541115611c195760405162461bcd60e51b815260206004820152602d60248201527f4173736574206361702063616e206e6f74206265206c6f776572207468616e2060448201526c1b5a5b9d195908185b5bdd5b9d609a1b606482015260840161077d565b81611c2884633b9aca00612b1d565b611c329190612ae5565b600093845260ce6020526040909320929092555050565b600080516020612c52833981519152611c61816112b2565b8260005b81811015611570578360ca6000888885818110611c9257634e487b7160e01b600052603260045260246000fd5b9050602002016020810190611ca791906123ce565b6001600160a01b031681526020810191909152604001600020805460ff191691151591909117905580611cd981612bd1565b915050611c65565b60006001600160e01b031982166380ac58cd60e01b1480611d1257506001600160e01b03198216635b5e139f60e01b145b8061064957506301ffc9a760e01b6001600160e01b0319831614610649565b6001600160a01b0383161580611d4f57506001600160a01b03831630145b61081e5760cb5460ff1615611da65760405162461bcd60e51b815260206004820152601e60248201527f5472616e7366657273206172652063757272656e746c79207061757365640000604482015260640161077d565b60cc6000611db383610823565b815260208101919091526040016000205460ff1615611e065760405162461bcd60e51b815260206004820152600f60248201526e105cdcd95d081a5cc81c185d5cd959608a1b604482015260640161077d565b6001600160a01b038316600090815260ca602052604090205460ff168015611e4657506001600160a01b038216600090815260ca602052604090205460ff165b61081e5760405162461bcd60e51b815260206004820152601660248201527524b73b30b634b2103a37b5b2b7103a3930b739b332b960511b604482015260640161077d565b611e958282610c05565b61090357611ead816001600160a01b0316601461214a565b611eb883602061214a565b604051602001611ec99291906128d3565b60408051601f198184030181529082905262461bcd60e51b825261077d916004016129d9565b60006001600160a01b0384163b15611ff157604051630a85bd0160e11b81526001600160a01b0385169063150b7a0290611f3390339089908890889060040161299c565b602060405180830381600087803b158015611f4d57600080fd5b505af1925050508015611f7d575060408051601f3d908101601f19168201909252611f7a918101906126fc565b60015b611fd7573d808015611fab576040519150601f19603f3d011682016040523d82523d6000602084013e611fb0565b606091505b508051611fcf5760405162461bcd60e51b815260040161077d906129ec565b805181602001fd5b6001600160e01b031916630a85bd0160e11b149050611103565b506001949350505050565b6001600160a01b0382166120525760405162461bcd60e51b815260206004820181905260248201527f4552433732313a206d696e7420746f20746865207a65726f2061646472657373604482015260640161077d565b6000818152606760205260409020546001600160a01b0316156120b75760405162461bcd60e51b815260206004820152601c60248201527f4552433732313a20746f6b656e20616c7265616479206d696e74656400000000604482015260640161077d565b6120c360008383611d31565b6001600160a01b03821660009081526068602052604081208054600192906120ec908490612ae5565b909155505060008181526067602052604080822080546001600160a01b0319166001600160a01b03861690811790915590518392907fddf252ad1be2c89b69c2b068fc378daa952ba7f163c4a11628f55a4df523b3ef908290a45050565b60606000612159836002612b1d565b612164906002612ae5565b67ffffffffffffffff81111561218a57634e487b7160e01b600052604160045260246000fd5b6040519080825280601f01601f1916602001820160405280156121b4576020820181803683370190505b509050600360fc1b816000815181106121dd57634e487b7160e01b600052603260045260246000fd5b60200101906001600160f81b031916908160001a905350600f60fb1b8160018151811061221a57634e487b7160e01b600052603260045260246000fd5b60200101906001600160f81b031916908160001a905350600061223e846002612b1d565b612249906001612ae5565b90505b60018111156122dd576f181899199a1a9b1b9c1cb0b131b232b360811b85600f166010811061228b57634e487b7160e01b600052603260045260246000fd5b1a60f81b8282815181106122af57634e487b7160e01b600052603260045260246000fd5b60200101906001600160f81b031916908160001a90535060049490941c936122d681612b7f565b905061224c565b50831561232c5760405162461bcd60e51b815260206004820181905260248201527f537472696e67733a20686578206c656e67746820696e73756666696369656e74604482015260640161077d565b9392505050565b60008083601f840112612344578081fd5b50813567ffffffffffffffff81111561235b578182fd5b6020830191508360208260051b850101111561237657600080fd5b9250929050565b600082601f83011261238d578081fd5b81356123a061239b82612abd565b612a8c565b8181528460208386010111156123b4578283fd5b816020850160208301379081016020019190915292915050565b6000602082840312156123df578081fd5b813561232c81612c18565b600080604083850312156123fc578081fd5b823561240781612c18565b9150602083013561241781612c18565b809150509250929050565b60008060008060608587031215612437578182fd5b843561244281612c18565b9350602085013561245281612c18565b9250604085013567ffffffffffffffff81111561246d578283fd5b61247987828801612333565b95989497509550505050565b600080600060608486031215612499578283fd5b83356124a481612c18565b925060208401356124b481612c18565b929592945050506040919091013590565b600080600080608085870312156124da578384fd5b84356124e581612c18565b935060208501356124f581612c18565b925060408501359150606085013567ffffffffffffffff811115612517578182fd5b6125238782880161237d565b91505092959194509250565b60008060408385031215612541578182fd5b823561254c81612c18565b9150602083013561241781612c2d565b6000806040838503121561256e578182fd5b823561257981612c18565b946020939093013593505050565b60008060006040848603121561259b578283fd5b833567ffffffffffffffff8111156125b1578384fd5b6125bd86828701612333565b90945092505060208401356125d181612c2d565b809150509250925092565b60008060008060008060a087890312156125f4578384fd5b863567ffffffffffffffff8082111561260b578586fd5b6126178a838b01612333565b9098509650602089013591508082111561262f578586fd5b5061263c89828a0161237d565b945050604087013560ff81168114612652578283fd5b959894975092956060810135946080909101359350915050565b60006020828403121561267d578081fd5b813561232c81612c2d565b600060208284031215612699578081fd5b815161232c81612c2d565b6000602082840312156126b5578081fd5b5035919050565b600080604083850312156126ce578182fd5b82359150602083013561241781612c18565b6000602082840312156126f1578081fd5b813561232c81612c3b565b60006020828403121561270d578081fd5b815161232c81612c3b565b600060208284031215612729578081fd5b815167ffffffffffffffff81111561273f578182fd5b8201601f8101841361274f578182fd5b805161275d61239b82612abd565b818152856020838501011115612771578384fd5b612782826020830160208601612b53565b95945050505050565b60008060006040848603121561279f578081fd5b83359250602084013567ffffffffffffffff8111156127bc578182fd5b6127c886828701612333565b9497909650939450505050565b600080604083850312156127e7578182fd5b82359150602083013561241781612c2d565b6000806040838503121561280b578182fd5b50508035926020909101359150565b60008060006060848603121561282e578081fd5b833592506020840135915060408401356125d181612c18565b6000806000806080858703121561285c578182fd5b5050823594602084013594506040840135936060013592509050565b60008151808452612890816020860160208601612b53565b601f01601f19169290920160200192915050565b600083516128b6818460208801612b53565b8351908301906128ca818360208801612b53565b01949350505050565b7f416363657373436f6e74726f6c3a206163636f756e742000000000000000000081526000835161290b816017850160208801612b53565b7001034b99036b4b9b9b4b733903937b6329607d1b601791840191820152835161293c816028840160208801612b53565b01602801949350505050565b6001600160a01b03858116825284166020820152606060408201819052810182905260006001600160fb1b0383111561297f578081fd5b8260051b8085608085013791909101608001908152949350505050565b6001600160a01b03858116825284166020820152604081018390526080606082018190526000906129cf90830184612878565b9695505050505050565b60208152600061232c6020830184612878565b60208082526032908201527f4552433732313a207472616e7366657220746f206e6f6e20455243373231526560408201527131b2b4bb32b91034b6b83632b6b2b73a32b960711b606082015260800190565b6020808252602e908201527f4552433732313a2063616c6c6572206973206e6f7420746f6b656e206f776e6560408201526d1c881b9bdc88185c1c1c9bdd995960921b606082015260800190565b604051601f8201601f1916810167ffffffffffffffff81118282101715612ab557612ab5612c02565b604052919050565b600067ffffffffffffffff821115612ad757612ad7612c02565b50601f01601f191660200190565b60008219821115612af857612af8612bec565b500190565b600082612b1857634e487b7160e01b81526012600452602481fd5b500490565b6000816000190483118215151615612b3757612b37612bec565b500290565b600082821015612b4e57612b4e612bec565b500390565b60005b83811015612b6e578181015183820152602001612b56565b838111156109665750506000910152565b600081612b8e57612b8e612bec565b506000190190565b600181811c90821680612baa57607f821691505b60208210811415612bcb57634e487b7160e01b600052602260045260246000fd5b50919050565b6000600019821415612be557612be5612bec565b5060010190565b634e487b7160e01b600052601160045260246000fd5b634e487b7160e01b600052604160045260246000fd5b6001600160a01b038116811461101b57600080fd5b801515811461101b57600080fd5b6001600160e01b03198116811461101b57600080fdfef40ec076ff2e3a403e1c18632267861d39085e7f359ca5665846f335632cf819df8b4c520ffe197c5343c6f5aec59570151ef9a492f2c624fd45ddde6135ec42a264697066735822122039d1e2ebae0e9fbe441c28cdc21d6408b7a1aed9f427dfbfc10d22ec971b123764736f6c63430008040033",
  "linkReferences": {},
  "deployedLinkReferences": {}
}