{
  "_format": "hh-sol-artifact-1",
  "contractName": "Handler",
  "sourceName": "contracts/Handler.sol",
  "abi": [
    {
      "anonymous": false,
      "inputs": [
        {
          "indexed": true,
          "internalType": "address",
          "name": "owner",
          "type": "address"
        },
        {
          "indexed": true,
          "internalType": "address",
          "name": "approved",
          "type": "address"
        },
        {
          "indexed": true,
          "internalType": "uint256",
          "name": "tokenId",
          "type": "uint256"
        }
      ],
      "name": "Approval",
      "type": "event"
    },
    {
      "anonymous": false,
      "inputs": [
        {
          "indexed": true,
          "internalType": "address",
          "name": "owner",
          "type": "address"
        },
        {
          "indexed": true,
          "internalType": "address",
          "name": "operator",
          "type": "address"
        },
        {
          "indexed": false,
          "internalType": "bool",
          "name": "approved",
          "type": "bool"
        }
      ],
      "name": "ApprovalForAll",
      "type": "event"
    },
    {
      "anonymous": false,
      "inputs": [
        {
          "indexed": false,
          "internalType": "uint8",
          "name": "version",
          "type": "uint8"
        }
      ],
      "name": "Initialized",
      "type": "event"
    },
    {
      "anonymous": false,
      "inputs": [
        {
          "indexed": false,
          "internalType": "address",
          "name": "account",
          "type": "address"
        }
      ],
      "name": "Paused",
      "type": "event"
    },
    {
      "anonymous": false,
      "inputs": [
        {
          "indexed": true,
          "internalType": "bytes32",
          "name": "role",
          "type": "bytes32"
        },
        {
          "indexed": true,
          "internalType": "bytes32",
          "name": "previousAdminRole",
          "type": "bytes32"
        },
        {
          "indexed": true,
          "internalType": "bytes32",
          "name": "newAdminRole",
          "type": "bytes32"
        }
      ],
      "name": "RoleAdminChanged",
      "type": "event"
    },
    {
      "anonymous": false,
      "inputs": [
        {
          "indexed": true,
          "internalType": "bytes32",
          "name": "role",
          "type": "bytes32"
        },
        {
          "indexed": true,
          "internalType": "address",
          "name": "account",
          "type": "address"
        },
        {
          "indexed": true,
          "internalType": "address",
          "name": "sender",
          "type": "address"
        }
      ],
      "name": "RoleGranted",
      "type": "event"
    },
    {
      "anonymous": false,
      "inputs": [
        {
          "indexed": true,
          "internalType": "bytes32",
          "name": "role",
          "type": "bytes32"
        },
        {
          "indexed": true,
          "internalType": "address",
          "name": "account",
          "type": "address"
        },
        {
          "indexed": true,
          "internalType": "address",
          "name": "sender",
          "type": "address"
        }
      ],
      "name": "RoleRevoked",
      "type": "event"
    },
    {
      "anonymous": false,
      "inputs": [
        {
          "indexed": true,
          "internalType": "address",
          "name": "from",
          "type": "address"
        },
        {
          "indexed": true,
          "internalType": "address",
          "name": "to",
          "type": "address"
        },
        {
          "indexed": true,
          "internalType": "uint256",
          "name": "tokenId",
          "type": "uint256"
        }
      ],
      "name": "Transfer",
      "type": "event"
    },
    {
      "anonymous": false,
      "inputs": [
        {
          "indexed": false,
          "internalType": "address",
          "name": "account",
          "type": "address"
        }
      ],
      "name": "Unpaused",
      "type": "event"
    },
    {
      "inputs": [],
      "name": "ADMIN",
      "outputs": [
        {
          "internalType": "bytes32",
          "name": "",
          "type": "bytes32"
        }
      ],
      "stateMutability": "view",
      "type": "function"
    },
    {
      "inputs": [],
      "name": "DEFAULT_ADMIN_ROLE",
      "outputs": [
        {
          "internalType": "bytes32",
          "name": "",
          "type": "bytes32"
        }
      ],
      "stateMutability": "view",
      "type": "function"
    },
    {
      "inputs": [],
      "name": "HANDLER",
      "outputs": [
        {
          "internalType": "bytes32",
          "name": "",
          "type": "bytes32"
        }
      ],
      "stateMutability": "view",
      "type": "function"
    },
    {
      "inputs": [
        {
          "internalType": "uint256",
          "name": "_tokenId",
          "type": "uint256"
        }
      ],
      "name": "_getTokenAsset",
      "outputs": [
        {
          "internalType": "uint256",
          "name": "",
          "type": "uint256"
        }
      ],
      "stateMutability": "pure",
      "type": "function"
    },
    {
      "inputs": [
        {
          "internalType": "uint256",
          "name": "_assetId",
          "type": "uint256"
        },
        {
          "internalType": "uint256",
          "name": "_totalRev",
          "type": "uint256"
        },
        {
          "internalType": "uint256",
          "name": "_unitsCount",
          "type": "uint256"
        },
        {
          "internalType": "uint256",
          "name": "_amountPerShare",
          "type": "uint256"
        }
      ],
      "name": "addRevenue",
      "outputs": [],
      "stateMutability": "nonpayable",
      "type": "function"
    },
    {
      "inputs": [
        {
          "internalType": "address",
          "name": "to",
          "type": "address"
        },
        {
          "internalType": "uint256",
          "name": "tokenId",
          "type": "uint256"
        }
      ],
      "name": "approve",
      "outputs": [],
      "stateMutability": "nonpayable",
      "type": "function"
    },
    {
      "inputs": [
        {
          "internalType": "uint256",
          "name": "",
          "type": "uint256"
        }
      ],
      "name": "assetPaused",
      "outputs": [
        {
          "internalType": "bool",
          "name": "",
          "type": "bool"
        }
      ],
      "stateMutability": "view",
      "type": "function"
    },
    {
      "inputs": [
        {
          "internalType": "uint256",
          "name": "",
          "type": "uint256"
        }
      ],
      "name": "assetRevToken",
      "outputs": [
        {
          "internalType": "contract IERC20Upgradeable",
          "name": "",
          "type": "address"
        }
      ],
      "stateMutability": "view",
      "type": "function"
    },
    {
      "inputs": [
        {
          "internalType": "address",
          "name": "owner",
          "type": "address"
        }
      ],
      "name": "balanceOf",
      "outputs": [
        {
          "internalType": "uint256",
          "name": "",
          "type": "uint256"
        }
      ],
      "stateMutability": "view",
      "type": "function"
    },
    {
      "inputs": [
        {
          "internalType": "uint256",
          "name": "_assetId",
          "type": "uint256"
        },
        {
          "internalType": "uint256[]",
          "name": "_tokenIds",
          "type": "uint256[]"
        }
      ],
      "name": "claimRevenue",
      "outputs": [],
      "stateMutability": "nonpayable",
      "type": "function"
    },
    {
      "inputs": [
        {
          "internalType": "uint256[]",
          "name": "_tokenIds",
          "type": "uint256[]"
        },
        {
          "internalType": "bytes",
          "name": "_prefix",
          "type": "bytes"
        },
        {
          "internalType": "uint8",
          "name": "_v",
          "type": "uint8"
        },
        {
          "internalType": "bytes32",
          "name": "_r",
          "type": "bytes32"
        },
        {
          "internalType": "bytes32",
          "name": "_s",
          "type": "bytes32"
        }
      ],
      "name": "claimUnits",
      "outputs": [],
      "stateMutability": "nonpayable",
      "type": "function"
    },
    {
      "inputs": [
        {
          "internalType": "uint256",
          "name": "",
          "type": "uint256"
        }
      ],
      "name": "claimedRev",
      "outputs": [
        {
          "internalType": "uint256",
          "name": "",
          "type": "uint256"
        }
      ],
      "stateMutability": "view",
      "type": "function"
    },
    {
      "inputs": [
        {
          "internalType": "uint256",
          "name": "_assetId",
          "type": "uint256"
        },
        {
          "internalType": "uint256",
          "name": "_tokenCap",
          "type": "uint256"
        },
        {
          "internalType": "contract IERC20Upgradeable",
          "name": "_revToken",
          "type": "address"
        }
      ],
      "name": "createAsset",
      "outputs": [],
      "stateMutability": "nonpayable",
      "type": "function"
    },
    {
      "inputs": [
        {
          "internalType": "uint256",
          "name": "tokenId",
          "type": "uint256"
        }
      ],
      "name": "getApproved",
      "outputs": [
        {
          "internalType": "address",
          "name": "",
          "type": "address"
        }
      ],
      "stateMutability": "view",
      "type": "function"
    },
    {
      "inputs": [
        {
          "internalType": "bytes32",
          "name": "role",
          "type": "bytes32"
        }
      ],
      "name": "getRoleAdmin",
      "outputs": [
        {
          "internalType": "bytes32",
          "name": "",
          "type": "bytes32"
        }
      ],
      "stateMutability": "view",
      "type": "function"
    },
    {
      "inputs": [
        {
          "internalType": "bytes32",
          "name": "role",
          "type": "bytes32"
        },
        {
          "internalType": "address",
          "name": "account",
          "type": "address"
        }
      ],
      "name": "grantRole",
      "outputs": [],
      "stateMutability": "nonpayable",
      "type": "function"
    },
    {
      "inputs": [
        {
          "internalType": "bytes32",
          "name": "role",
          "type": "bytes32"
        },
        {
          "internalType": "address",
          "name": "account",
          "type": "address"
        }
      ],
      "name": "hasRole",
      "outputs": [
        {
          "internalType": "bool",
          "name": "",
          "type": "bool"
        }
      ],
      "stateMutability": "view",
      "type": "function"
    },
    {
      "inputs": [
        {
          "internalType": "address",
          "name": "owner",
          "type": "address"
        },
        {
          "internalType": "address",
          "name": "operator",
          "type": "address"
        }
      ],
      "name": "isApprovedForAll",
      "outputs": [
        {
          "internalType": "bool",
          "name": "",
          "type": "bool"
        }
      ],
      "stateMutability": "view",
      "type": "function"
    },
    {
      "inputs": [
        {
          "internalType": "address",
          "name": "",
          "type": "address"
        }
      ],
      "name": "isWhitelisted",
      "outputs": [
        {
          "internalType": "bool",
          "name": "",
          "type": "bool"
        }
      ],
      "stateMutability": "view",
      "type": "function"
    },
    {
      "inputs": [
        {
          "internalType": "uint256",
          "name": "",
          "type": "uint256"
        }
      ],
      "name": "lastId",
      "outputs": [
        {
          "internalType": "uint256",
          "name": "",
          "type": "uint256"
        }
      ],
      "stateMutability": "view",
      "type": "function"
    },
    {
      "inputs": [
        {
          "internalType": "uint256",
          "name": "_assetId",
          "type": "uint256"
        },
        {
          "internalType": "uint256",
          "name": "_amount",
          "type": "uint256"
        }
      ],
      "name": "mintAsset",
      "outputs": [],
      "stateMutability": "nonpayable",
      "type": "function"
    },
    {
      "inputs": [],
      "name": "name",
      "outputs": [
        {
          "internalType": "string",
          "name": "",
          "type": "string"
        }
      ],
      "stateMutability": "view",
      "type": "function"
    },
    {
      "inputs": [
        {
          "internalType": "uint256",
          "name": "",
          "type": "uint256"
        }
      ],
      "name": "nextId",
      "outputs": [
        {
          "internalType": "uint256",
          "name": "",
          "type": "uint256"
        }
      ],
      "stateMutability": "view",
      "type": "function"
    },
    {
      "inputs": [
        {
          "internalType": "uint256",
          "name": "tokenId",
          "type": "uint256"
        }
      ],
      "name": "ownerOf",
      "outputs": [
        {
          "internalType": "address",
          "name": "",
          "type": "address"
        }
      ],
      "stateMutability": "view",
      "type": "function"
    },
    {
      "inputs": [],
      "name": "pauseHandler",
      "outputs": [],
      "stateMutability": "nonpayable",
      "type": "function"
    },
    {
      "inputs": [],
      "name": "paused",
      "outputs": [
        {
          "internalType": "bool",
          "name": "",
          "type": "bool"
        }
      ],
      "stateMutability": "view",
      "type": "function"
    },
    {
      "inputs": [
        {
          "internalType": "bytes32",
          "name": "role",
          "type": "bytes32"
        },
        {
          "internalType": "address",
          "name": "account",
          "type": "address"
        }
      ],
      "name": "renounceRole",
      "outputs": [],
      "stateMutability": "nonpayable",
      "type": "function"
    },
    {
      "inputs": [
        {
          "internalType": "address",
          "name": "_from",
          "type": "address"
        },
        {
          "internalType": "address",
          "name": "_to",
          "type": "address"
        },
        {
          "internalType": "uint256[]",
          "name": "_tokenIds",
          "type": "uint256[]"
        }
      ],
      "name": "returnUnits",
      "outputs": [],
      "stateMutability": "nonpayable",
      "type": "function"
    },
    {
      "inputs": [
        {
          "internalType": "bytes32",
          "name": "role",
          "type": "bytes32"
        },
        {
          "internalType": "address",
          "name": "account",
          "type": "address"
        }
      ],
      "name": "revokeRole",
      "outputs": [],
      "stateMutability": "nonpayable",
      "type": "function"
    },
    {
      "inputs": [
        {
          "internalType": "address",
          "name": "from",
          "type": "address"
        },
        {
          "internalType": "address",
          "name": "to",
          "type": "address"
        },
        {
          "internalType": "uint256",
          "name": "tokenId",
          "type": "uint256"
        }
      ],
      "name": "safeTransferFrom",
      "outputs": [],
      "stateMutability": "nonpayable",
      "type": "function"
    },
    {
      "inputs": [
        {
          "internalType": "address",
          "name": "from",
          "type": "address"
        },
        {
          "internalType": "address",
          "name": "to",
          "type": "address"
        },
        {
          "internalType": "uint256",
          "name": "tokenId",
          "type": "uint256"
        },
        {
          "internalType": "bytes",
          "name": "data",
          "type": "bytes"
        }
      ],
      "name": "safeTransferFrom",
      "outputs": [],
      "stateMutability": "nonpayable",
      "type": "function"
    },
    {
      "inputs": [
        {
          "internalType": "address",
          "name": "operator",
          "type": "address"
        },
        {
          "internalType": "bool",
          "name": "approved",
          "type": "bool"
        }
      ],
      "name": "setApprovalForAll",
      "outputs": [],
      "stateMutability": "nonpayable",
      "type": "function"
    },
    {
      "inputs": [
        {
          "internalType": "uint256",
          "name": "_assetId",
          "type": "uint256"
        },
        {
          "internalType": "bool",
          "name": "_paused",
          "type": "bool"
        }
      ],
      "name": "setAssetTransfersPaused",
      "outputs": [],
      "stateMutability": "nonpayable",
      "type": "function"
    },
    {
      "inputs": [
        {
          "internalType": "bool",
          "name": "_paused",
          "type": "bool"
        }
      ],
      "name": "setTransfersPaused",
      "outputs": [],
      "stateMutability": "nonpayable",
      "type": "function"
    },
    {
      "inputs": [
        {
          "internalType": "address[]",
          "name": "_users",
          "type": "address[]"
        },
        {
          "internalType": "bool",
          "name": "_isWhitelisted",
          "type": "bool"
        }
      ],
      "name": "setWhitelisted",
      "outputs": [],
      "stateMutability": "nonpayable",
      "type": "function"
    },
    {
      "inputs": [
        {
          "internalType": "bytes4",
          "name": "interfaceId",
          "type": "bytes4"
        }
      ],
      "name": "supportsInterface",
      "outputs": [
        {
          "internalType": "bool",
          "name": "",
          "type": "bool"
        }
      ],
      "stateMutability": "view",
      "type": "function"
    },
    {
      "inputs": [],
      "name": "symbol",
      "outputs": [
        {
          "internalType": "string",
          "name": "",
          "type": "string"
        }
      ],
      "stateMutability": "view",
      "type": "function"
    },
    {
      "inputs": [
        {
          "internalType": "uint256",
          "name": "_tokenId",
          "type": "uint256"
        }
      ],
      "name": "tokenURI",
      "outputs": [
        {
          "internalType": "string",
          "name": "",
          "type": "string"
        }
      ],
      "stateMutability": "view",
      "type": "function"
    },
    {
      "inputs": [
        {
          "internalType": "uint256",
          "name": "",
          "type": "uint256"
        }
      ],
      "name": "totalShareRev",
      "outputs": [
        {
          "internalType": "uint256",
          "name": "",
          "type": "uint256"
        }
      ],
      "stateMutability": "view",
      "type": "function"
    },
    {
      "inputs": [
        {
          "internalType": "address",
          "name": "from",
          "type": "address"
        },
        {
          "internalType": "address",
          "name": "to",
          "type": "address"
        },
        {
          "internalType": "uint256",
          "name": "tokenId",
          "type": "uint256"
        }
      ],
      "name": "transferFrom",
      "outputs": [],
      "stateMutability": "nonpayable",
      "type": "function"
    },
    {
      "inputs": [],
      "name": "unpauseHandler",
      "outputs": [],
      "stateMutability": "nonpayable",
      "type": "function"
    },
    {
      "inputs": [
        {
          "internalType": "uint256",
          "name": "_assetId",
          "type": "uint256"
        },
        {
          "internalType": "uint256",
          "name": "_tokenCap",
          "type": "uint256"
        }
      ],
      "name": "updateAssetCap",
      "outputs": [],
      "stateMutability": "nonpayable",
      "type": "function"
    },
    {
      "inputs": [
        {
          "internalType": "address",
          "name": "_serverPubKey",
          "type": "address"
        }
      ],
      "name": "updateServer",
      "outputs": [],
      "stateMutability": "nonpayable",
      "type": "function"
    }
  ],
  "bytecode": "0x608060405234801561001057600080fd5b50612d8f806100206000396000f3fe608060405234801561001057600080fd5b50600436106102695760003560e01c806386ed411711610151578063b88dab32116100c3578063c87b56dd11610087578063c87b56dd146105ae578063cf0b3a51146105c1578063d547741f146105eb578063e985e9c5146105fe578063f3c4b7041461063a578063f7bb00c41461064d57600080fd5b8063b88dab321461054d578063b9a2899414610560578063bfef152014610575578063c58354b714610588578063c78303171461059b57600080fd5b8063a22cb46511610115578063a22cb465146104cd578063a86e6676146104e0578063ac2b2055146104f3578063b22aec5a14610514578063b819fbd414610527578063b88d4fde1461053a57600080fd5b806386ed41171461046957806391d148541461048a57806392877ddc1461049d57806395d89b41146104bd578063a217fddf146104c557600080fd5b806336568abe116101ea578063498e5165116101ae578063498e5165146103f15780635c975abb146104045780636352211e1461040f57806370a082311461042257806376ee32c114610435578063834eb2481461045657600080fd5b806336568abe1461038d5780633691e3ef146103a05780633af32abf146103a857806342842e0e146103cb57806344e46dff146103de57600080fd5b806323b40c0b1161023157806323b40c0b1461030e57806323b872dd1461032f578063248a9ca3146103425780632a0acc6a146103655780632f2ff15d1461037a57600080fd5b806301ffc9a71461026e57806306fdde0314610296578063081812fc146102ab578063095ea7b3146102d6578063220f27eb146102eb575b600080fd5b61028161027c3660046127a8565b610655565b60405190151581526020015b60405180910390f35b61029e610666565b60405161028d9190612aa1565b6102be6102b936600461276c565b6106f8565b6040516001600160a01b03909116815260200161028d565b6102e96102e4366004612624565b61071f565b005b6102816102f936600461276c565b60fe6020526000908152604090205460ff1681565b61032161031c36600461276c565b61083a565b60405190815260200161028d565b6102e961033d36600461254d565b61084a565b61032161035036600461276c565b60009081526097602052604090206001015490565b610321600080516020612d3a83398151915281565b6102e9610388366004612784565b61087b565b6102e961039b366004612784565b6108a0565b6102e961091e565b6102816103b6366004612496565b60fc6020526000908152604090205460ff1681565b6102e96103d936600461254d565b610941565b6102e96103ec366004612734565b61095c565b6102e96103ff3660046128e2565b61097d565b60c95460ff16610281565b6102be61041d36600461276c565b6109a6565b610321610430366004612496565b610a06565b61032161044336600461276c565b6101006020526000908152604090205481565b6102e96104643660046126a4565b610a8c565b61032161047736600461276c565b6101036020526000908152604090205481565b610281610498366004612784565b610bfc565b6103216104ab36600461276c565b60ff6020526000908152604090205481565b61029e610c27565b610321600081565b6102e96104db3660046125f7565b610c36565b6102e96104ee3660046124ea565b610c41565b61032161050136600461276c565b6101026020526000908152604090205481565b6102e961052236600461290f565b610c6c565b6102e961053536600461289d565b610cdd565b6102e961054836600461258d565b610cff565b6102e961055b3660046128c1565b610d31565b610321600080516020612d1a83398151915281565b6102e9610583366004612853565b610d54565b6102e96105963660046128c1565b610d68565b6102e96105a9366004612496565b610d8a565b61029e6105bc36600461276c565b610dc6565b6102be6105cf36600461276c565b610101602052600090815260409020546001600160a01b031681565b6102e96105f9366004612784565b610ecb565b61028161060c3660046124b2565b6001600160a01b039182166000908152606a6020908152604080832093909416825291909152205460ff1690565b6102e961064836600461264f565b610ef0565b6102e9610f13565b600061066082610f33565b92915050565b60606065805461067590612c5e565b80601f01602080910402602001604051908101604052809291908181526020018280546106a190612c5e565b80156106ee5780601f106106c3576101008083540402835291602001916106ee565b820191906000526020600020905b8154815290600101906020018083116106d157829003601f168201915b5050505050905090565b600061070382610f58565b506000908152606960205260409020546001600160a01b031690565b600061072a826109a6565b9050806001600160a01b0316836001600160a01b0316141561079d5760405162461bcd60e51b815260206004820152602160248201527f4552433732313a20617070726f76616c20746f2063757272656e74206f776e656044820152603960f91b60648201526084015b60405180910390fd5b336001600160a01b03821614806107b957506107b9813361060c565b61082b5760405162461bcd60e51b815260206004820152603e60248201527f4552433732313a20617070726f76652063616c6c6572206973206e6f7420746f60448201527f6b656e206f776e6572206e6f7220617070726f76656420666f7220616c6c00006064820152608401610794565b6108358383610fb7565b505050565b6000610660633b9aca0083612bc5565b6108543382611025565b6108705760405162461bcd60e51b815260040161079490612b06565b6108358383836110a4565b6000828152609760205260409020600101546108968161124b565b6108358383611255565b6001600160a01b03811633146109105760405162461bcd60e51b815260206004820152602f60248201527f416363657373436f6e74726f6c3a2063616e206f6e6c792072656e6f756e636560448201526e103937b632b9903337b91039b2b63360891b6064820152608401610794565b61091a82826112db565b5050565b600080516020612d3a8339815191526109368161124b565b61093e611342565b50565b61083583838360405180602001604052806000815250610cff565b600080516020612d3a8339815191526109748161124b565b61091a8261139c565b600080516020612d3a8339815191526109958161124b565b6109a08484846113c8565b50505050565b6000818152606760205260408120546001600160a01b0316806106605760405162461bcd60e51b8152602060048201526018602482015277115490cdcc8c4e881a5b9d985b1a59081d1bdad95b88125160421b6044820152606401610794565b60006001600160a01b038216610a705760405162461bcd60e51b815260206004820152602960248201527f4552433732313a2061646472657373207a65726f206973206e6f7420612076616044820152683634b21037bbb732b960b91b6064820152608401610794565b506001600160a01b031660009081526068602052604090205490565b610a9461149d565b600033308888604051602001610aad9493929190612a10565b60408051601f19818403018152908290526104ec549092506001600160a01b031690600190610ae2908890859060200161296c565b60408051601f198184030181528282528051602091820120600084529083018083525260ff881690820152606081018690526080810185905260a0016020604051602081039080840390855afa158015610b40573d6000803e3d6000fd5b505050602060405103516001600160a01b031614610b945760405162461bcd60e51b8152602060048201526011602482015270496e76616c6964207369676e617475726560781b6044820152606401610794565b6000610bc688886000818110610bba57634e487b7160e01b600052603260045260246000fd5b9050602002013561083a565b60008181526101026020526040902054909150610be5828a8a846114e5565b610bf130338b8b6115b6565b505050505050505050565b60009182526097602090815260408084206001600160a01b0393909316845291905290205460ff1690565b60606066805461067590612c5e565b61091a338383611605565b600080516020612d3a833981519152610c598161124b565b610c65858585856115b6565b5050505050565b600080516020612d3a833981519152610c848161124b565b81610c8f8486612bc5565b14610cd15760405162461bcd60e51b8152602060048201526012602482015271496e76616c696420696e707574206461746160701b6044820152606401610794565b610c65338686856116d4565b600080516020612d3a833981519152610cf58161124b565b61083583836117aa565b610d093383611025565b610d255760405162461bcd60e51b815260040161079490612b06565b6109a0848484846117e3565b600080516020612d3a833981519152610d498161124b565b610835838330611816565b610d5c61149d565b610835338484846118ef565b600080516020612d3a833981519152610d808161124b565b6108358383611bba565b600080516020612d3a833981519152610da28161124b565b506104ec80546001600160a01b0319166001600160a01b0392909216919091179055565b6000818152606760205260409020546060906001600160a01b0316610e455760405162461bcd60e51b815260206004820152602f60248201527f4552433732314d657461646174613a2055524920717565727920666f72206e6f60448201526e3732bc34b9ba32b73a103a37b5b2b760891b6064820152608401610794565b60fb5460405163d8bcda2760e01b8152306004820152602481018490526001600160a01b039091169063d8bcda279060440160006040518083038186803b158015610e8f57600080fd5b505afa158015610ea3573d6000803e3d6000fd5b505050506040513d6000823e601f3d908101601f1916820160405261066091908101906127e0565b600082815260976020526040902060010154610ee68161124b565b61083583836112db565b600080516020612d3a833981519152610f088161124b565b6109a0848484611c8f565b600080516020612d3a833981519152610f2b8161124b565b61093e611d27565b60006001600160e01b03198216637965db0b60e01b1480610660575061066082611d60565b6000818152606760205260409020546001600160a01b031661093e5760405162461bcd60e51b8152602060048201526018602482015277115490cdcc8c4e881a5b9d985b1a59081d1bdad95b88125160421b6044820152606401610794565b600081815260696020526040902080546001600160a01b0319166001600160a01b0384169081179091558190610fec826109a6565b6001600160a01b03167f8c5be1e5ebec7d5bd14f71427d1e84f3dd0314c0f7b2291e5b200ac8c7c3b92560405160405180910390a45050565b600080611031836109a6565b9050806001600160a01b0316846001600160a01b0316148061107857506001600160a01b038082166000908152606a602090815260408083209388168352929052205460ff165b8061109c5750836001600160a01b0316611091846106f8565b6001600160a01b0316145b949350505050565b826001600160a01b03166110b7826109a6565b6001600160a01b03161461111b5760405162461bcd60e51b815260206004820152602560248201527f4552433732313a207472616e736665722066726f6d20696e636f72726563742060448201526437bbb732b960d91b6064820152608401610794565b6001600160a01b03821661117d5760405162461bcd60e51b8152602060048201526024808201527f4552433732313a207472616e7366657220746f20746865207a65726f206164646044820152637265737360e01b6064820152608401610794565b611188838383611db0565b611193600082610fb7565b6001600160a01b03831660009081526068602052604081208054600192906111bc908490612c04565b90915550506001600160a01b03821660009081526068602052604081208054600192906111ea908490612bad565b909155505060008181526067602052604080822080546001600160a01b0319166001600160a01b0386811691821790925591518493918716917fddf252ad1be2c89b69c2b068fc378daa952ba7f163c4a11628f55a4df523b3ef91a4505050565b61093e8133611f0a565b61125f8282610bfc565b61091a5760008281526097602090815260408083206001600160a01b03851684529091529020805460ff191660011790556112973390565b6001600160a01b0316816001600160a01b0316837f2f8788117e7eff1d82e926ec794901d17c78024a50270940304540a733656f0d60405160405180910390a45050565b6112e58282610bfc565b1561091a5760008281526097602090815260408083206001600160a01b0385168085529252808320805460ff1916905551339285917ff6391f5c32d9c69d2a47ea670b442974b53935d1edc7fd64eb21e047a839171b9190a45050565b61134a61149d565b60c9805460ff191660011790557f62e78cea01bee320cd4e420270b5ea74000d11b0c9f74754ebdbfc544b05a25861137f3390565b6040516001600160a01b03909116815260200160405180910390a1565b600080516020612d1a8339815191526113b48161124b565b5060fd805460ff1916911515919091179055565b60006113d38161124b565b600084815260ff6020526040902054156114265760405162461bcd60e51b8152602060048201526014602482015273417373657420616c72656164792065786973747360601b6044820152606401610794565b60008481526101016020526040902080546001600160a01b0319166001600160a01b03841617905561145c84633b9aca00612be5565b600085815260ff60205260409020558261147a85633b9aca00612be5565b6114849190612bad565b6000948552610100602052604090942093909355505050565b60c95460ff16156114e35760405162461bcd60e51b815260206004820152601060248201526f14185d5cd8589b194e881c185d5cd95960821b6044820152606401610794565b565b8160005b818110156115ae5785611515868684818110610bba57634e487b7160e01b600052603260045260246000fd5b1461155c5760405162461bcd60e51b8152602060048201526017602482015276125b9d985b1a59081d1bdad95b88199bdc88185cdcd95d604a1b6044820152606401610794565b82610103600087878581811061158257634e487b7160e01b600052603260045260246000fd5b9050602002013581526020019081526020016000208190555080806115a690612c99565b9150506114e9565b505050505050565b8060005b818110156115ae576115f386868686858181106115e757634e487b7160e01b600052603260045260246000fd5b905060200201356110a4565b806115fd81612c99565b9150506115ba565b816001600160a01b0316836001600160a01b031614156116675760405162461bcd60e51b815260206004820152601960248201527f4552433732313a20617070726f766520746f2063616c6c6572000000000000006044820152606401610794565b6001600160a01b038381166000818152606a6020908152604080832094871680845294825291829020805460ff191686151590811790915591519182527f17307eab39ab6107e8899845ad3d59bd9653f200f220920489ca2b5937696c31910160405180910390a3505050565b600080516020612d1a8339815191526116ec8161124b565b600084815261010260205260408120805484929061170b908490612bad565b909155505060008481526101016020526040908190205490516323b872dd60e01b81526001600160a01b03878116600483015230602483015260448201869052909116906323b872dd90606401602060405180830381600087803b15801561177257600080fd5b505af1158015611786573d6000803e3d6000fd5b505050506040513d601f19601f820116820180604052508101906115ae9190612750565b600080516020612d1a8339815191526117c28161124b565b50600091825260fe6020526040909120805460ff1916911515919091179055565b6117ee8484846110a4565b6117fa84848484611f6e565b6109a05760405162461bcd60e51b815260040161079490612ab4565b600080516020612d1a83398151915261182e8161124b565b6000848152610100602090815260408083205460ff90925290912054611855908590612bad565b11156118985760405162461bcd60e51b8152602060048201526012602482015271082dadeeadce840caf0c6cacac8e640dac2f60731b6044820152606401610794565b60005b83811015610c6557600085815260ff60205260409020546118bd90849061207b565b600085815260ff602052604081208054916118d783612c99565b919050555080806118e790612c99565b91505061189b565b600080516020612d1a8339815191526119078161124b565b6001600160a01b038516600090815260fc602052604090205460ff1661196f5760405162461bcd60e51b815260206004820152601860248201527f4f776e6572206973206e6f742077686974656c697374656400000000000000006044820152606401610794565b600084815261010260205260408120548390825b82811015611b1f57886001600160a01b03166119c48888848181106119b857634e487b7160e01b600052603260045260246000fd5b905060200201356109a6565b6001600160a01b031614611a105760405162461bcd60e51b815260206004820152601360248201527224b73b30b634b2103a37b5b2b71037bbb732b960691b6044820152606401610794565b87611a34888884818110610bba57634e487b7160e01b600052603260045260246000fd5b14611a7b5760405162461bcd60e51b8152602060048201526017602482015276125b9d985b1a59081d1bdad95b88199bdc88185cdcd95d604a1b6044820152606401610794565b6101036000888884818110611aa057634e487b7160e01b600052603260045260246000fd5b9050602002013581526020019081526020016000205482611ac19190612c04565b611acb9085612bad565b9350816101036000898985818110611af357634e487b7160e01b600052603260045260246000fd5b905060200201358152602001908152602001600020819055508080611b1790612c99565b915050611983565b5060008781526101016020526040908190205490516323b872dd60e01b81523060048201526001600160a01b038a8116602483015260448201869052909116906323b872dd90606401602060405180830381600087803b158015611b8257600080fd5b505af1158015611b96573d6000803e3d6000fd5b505050506040513d601f19601f82011682018060405250810190610bf19190612750565b600080516020612d1a833981519152611bd28161124b565b81611be184633b9aca00612be5565b611beb9190612bad565b600084815260ff60205260409020541115611c5e5760405162461bcd60e51b815260206004820152602d60248201527f4173736574206361702063616e206e6f74206265206c6f776572207468616e2060448201526c1b5a5b9d195908185b5bdd5b9d609a1b6064820152608401610794565b81611c6d84633b9aca00612be5565b611c779190612bad565b60009384526101006020526040909320929092555050565b600080516020612d1a833981519152611ca78161124b565b8260005b818110156115ae578360fc6000888885818110611cd857634e487b7160e01b600052603260045260246000fd5b9050602002016020810190611ced9190612496565b6001600160a01b031681526020810191909152604001600020805460ff191691151591909117905580611d1f81612c99565b915050611cab565b611d2f6121c9565b60c9805460ff191690557f5db9ee0a495bf2e6ff9c91a7834c1ba4fdd244a5e8aa4e537bd38aeae4b073aa3361137f565b60006001600160e01b031982166380ac58cd60e01b1480611d9157506001600160e01b03198216635b5e139f60e01b145b8061066057506301ffc9a760e01b6001600160e01b0319831614610660565b6001600160a01b0383161580611dce57506001600160a01b03831630145b6108355760fd5460ff1615611e255760405162461bcd60e51b815260206004820152601e60248201527f5472616e7366657273206172652063757272656e746c792070617573656400006044820152606401610794565b60fe6000611e328361083a565b815260208101919091526040016000205460ff1615611e855760405162461bcd60e51b815260206004820152600f60248201526e105cdcd95d081a5cc81c185d5cd959608a1b6044820152606401610794565b6001600160a01b038316600090815260fc602052604090205460ff168015611ec557506001600160a01b038216600090815260fc602052604090205460ff165b6108355760405162461bcd60e51b815260206004820152601660248201527524b73b30b634b2103a37b5b2b7103a3930b739b332b960511b6044820152606401610794565b611f148282610bfc565b61091a57611f2c816001600160a01b03166014612212565b611f37836020612212565b604051602001611f4892919061299b565b60408051601f198184030181529082905262461bcd60e51b825261079491600401612aa1565b60006001600160a01b0384163b1561207057604051630a85bd0160e11b81526001600160a01b0385169063150b7a0290611fb2903390899088908890600401612a64565b602060405180830381600087803b158015611fcc57600080fd5b505af1925050508015611ffc575060408051601f3d908101601f19168201909252611ff9918101906127c4565b60015b612056573d80801561202a576040519150601f19603f3d011682016040523d82523d6000602084013e61202f565b606091505b50805161204e5760405162461bcd60e51b815260040161079490612ab4565b805181602001fd5b6001600160e01b031916630a85bd0160e11b14905061109c565b506001949350505050565b6001600160a01b0382166120d15760405162461bcd60e51b815260206004820181905260248201527f4552433732313a206d696e7420746f20746865207a65726f20616464726573736044820152606401610794565b6000818152606760205260409020546001600160a01b0316156121365760405162461bcd60e51b815260206004820152601c60248201527f4552433732313a20746f6b656e20616c7265616479206d696e746564000000006044820152606401610794565b61214260008383611db0565b6001600160a01b038216600090815260686020526040812080546001929061216b908490612bad565b909155505060008181526067602052604080822080546001600160a01b0319166001600160a01b03861690811790915590518392907fddf252ad1be2c89b69c2b068fc378daa952ba7f163c4a11628f55a4df523b3ef908290a45050565b60c95460ff166114e35760405162461bcd60e51b815260206004820152601460248201527314185d5cd8589b194e881b9bdd081c185d5cd95960621b6044820152606401610794565b60606000612221836002612be5565b61222c906002612bad565b67ffffffffffffffff81111561225257634e487b7160e01b600052604160045260246000fd5b6040519080825280601f01601f19166020018201604052801561227c576020820181803683370190505b509050600360fc1b816000815181106122a557634e487b7160e01b600052603260045260246000fd5b60200101906001600160f81b031916908160001a905350600f60fb1b816001815181106122e257634e487b7160e01b600052603260045260246000fd5b60200101906001600160f81b031916908160001a9053506000612306846002612be5565b612311906001612bad565b90505b60018111156123a5576f181899199a1a9b1b9c1cb0b131b232b360811b85600f166010811061235357634e487b7160e01b600052603260045260246000fd5b1a60f81b82828151811061237757634e487b7160e01b600052603260045260246000fd5b60200101906001600160f81b031916908160001a90535060049490941c9361239e81612c47565b9050612314565b5083156123f45760405162461bcd60e51b815260206004820181905260248201527f537472696e67733a20686578206c656e67746820696e73756666696369656e746044820152606401610794565b9392505050565b60008083601f84011261240c578081fd5b50813567ffffffffffffffff811115612423578182fd5b6020830191508360208260051b850101111561243e57600080fd5b9250929050565b600082601f830112612455578081fd5b813561246861246382612b85565b612b54565b81815284602083860101111561247c578283fd5b816020850160208301379081016020019190915292915050565b6000602082840312156124a7578081fd5b81356123f481612ce0565b600080604083850312156124c4578081fd5b82356124cf81612ce0565b915060208301356124df81612ce0565b809150509250929050565b600080600080606085870312156124ff578182fd5b843561250a81612ce0565b9350602085013561251a81612ce0565b9250604085013567ffffffffffffffff811115612535578283fd5b612541878288016123fb565b95989497509550505050565b600080600060608486031215612561578283fd5b833561256c81612ce0565b9250602084013561257c81612ce0565b929592945050506040919091013590565b600080600080608085870312156125a2578384fd5b84356125ad81612ce0565b935060208501356125bd81612ce0565b925060408501359150606085013567ffffffffffffffff8111156125df578182fd5b6125eb87828801612445565b91505092959194509250565b60008060408385031215612609578182fd5b823561261481612ce0565b915060208301356124df81612cf5565b60008060408385031215612636578182fd5b823561264181612ce0565b946020939093013593505050565b600080600060408486031215612663578283fd5b833567ffffffffffffffff811115612679578384fd5b612685868287016123fb565b909450925050602084013561269981612cf5565b809150509250925092565b60008060008060008060a087890312156126bc578384fd5b863567ffffffffffffffff808211156126d3578586fd5b6126df8a838b016123fb565b909850965060208901359150808211156126f7578586fd5b5061270489828a01612445565b945050604087013560ff8116811461271a578283fd5b959894975092956060810135946080909101359350915050565b600060208284031215612745578081fd5b81356123f481612cf5565b600060208284031215612761578081fd5b81516123f481612cf5565b60006020828403121561277d578081fd5b5035919050565b60008060408385031215612796578182fd5b8235915060208301356124df81612ce0565b6000602082840312156127b9578081fd5b81356123f481612d03565b6000602082840312156127d5578081fd5b81516123f481612d03565b6000602082840312156127f1578081fd5b815167ffffffffffffffff811115612807578182fd5b8201601f81018413612817578182fd5b805161282561246382612b85565b818152856020838501011115612839578384fd5b61284a826020830160208601612c1b565b95945050505050565b600080600060408486031215612867578081fd5b83359250602084013567ffffffffffffffff811115612884578182fd5b612890868287016123fb565b9497909650939450505050565b600080604083850312156128af578182fd5b8235915060208301356124df81612cf5565b600080604083850312156128d3578182fd5b50508035926020909101359150565b6000806000606084860312156128f6578081fd5b8335925060208401359150604084013561269981612ce0565b60008060008060808587031215612924578182fd5b5050823594602084013594506040840135936060013592509050565b60008151808452612958816020860160208601612c1b565b601f01601f19169290920160200192915050565b6000835161297e818460208801612c1b565b835190830190612992818360208801612c1b565b01949350505050565b7f416363657373436f6e74726f6c3a206163636f756e74200000000000000000008152600083516129d3816017850160208801612c1b565b7001034b99036b4b9b9b4b733903937b6329607d1b6017918401918201528351612a04816028840160208801612c1b565b01602801949350505050565b6001600160a01b03858116825284166020820152606060408201819052810182905260006001600160fb1b03831115612a47578081fd5b8260051b8085608085013791909101608001908152949350505050565b6001600160a01b0385811682528416602082015260408101839052608060608201819052600090612a9790830184612940565b9695505050505050565b6020815260006123f46020830184612940565b60208082526032908201527f4552433732313a207472616e7366657220746f206e6f6e20455243373231526560408201527131b2b4bb32b91034b6b83632b6b2b73a32b960711b606082015260800190565b6020808252602e908201527f4552433732313a2063616c6c6572206973206e6f7420746f6b656e206f776e6560408201526d1c881b9bdc88185c1c1c9bdd995960921b606082015260800190565b604051601f8201601f1916810167ffffffffffffffff81118282101715612b7d57612b7d612cca565b604052919050565b600067ffffffffffffffff821115612b9f57612b9f612cca565b50601f01601f191660200190565b60008219821115612bc057612bc0612cb4565b500190565b600082612be057634e487b7160e01b81526012600452602481fd5b500490565b6000816000190483118215151615612bff57612bff612cb4565b500290565b600082821015612c1657612c16612cb4565b500390565b60005b83811015612c36578181015183820152602001612c1e565b838111156109a05750506000910152565b600081612c5657612c56612cb4565b506000190190565b600181811c90821680612c7257607f821691505b60208210811415612c9357634e487b7160e01b600052602260045260246000fd5b50919050565b6000600019821415612cad57612cad612cb4565b5060010190565b634e487b7160e01b600052601160045260246000fd5b634e487b7160e01b600052604160045260246000fd5b6001600160a01b038116811461093e57600080fd5b801515811461093e57600080fd5b6001600160e01b03198116811461093e57600080fdfef40ec076ff2e3a403e1c18632267861d39085e7f359ca5665846f335632cf819df8b4c520ffe197c5343c6f5aec59570151ef9a492f2c624fd45ddde6135ec42a2646970667358221220bcdd32e273b6117f2dfb295be1c0454190d41d0de6d15226d5de67fe9ebc323464736f6c63430008040033",
  "linkReferences": {},
  "deployedLinkReferences": {}
}