{
  "_format": "hh-sol-artifact-1",
  "contractName": "ChromiaNetResolver",
  "sourceName": "contracts/helpers/ChromiaNetResolver.sol",
  "abi": [
    {
      "inputs": [],
      "stateMutability": "nonpayable",
      "type": "constructor"
    },
    {
      "anonymous": false,
      "inputs": [
        {
          "indexed": true,
          "internalType": "address",
          "name": "previousOwner",
          "type": "address"
        },
        {
          "indexed": true,
          "internalType": "address",
          "name": "newOwner",
          "type": "address"
        }
      ],
      "name": "OwnershipTransferred",
      "type": "event"
    },
    {
      "inputs": [
        {
          "internalType": "string",
          "name": "newBaseURI",
          "type": "string"
        }
      ],
      "name": "changeBaseURI",
      "outputs": [],
      "stateMutability": "nonpayable",
      "type": "function"
    },
    {
      "inputs": [
        {
          "internalType": "address",
          "name": "contractAddress",
          "type": "address"
        },
        {
          "internalType": "uint256",
          "name": "id",
          "type": "uint256"
        }
      ],
      "name": "getNFTURI",
      "outputs": [
        {
          "internalType": "string",
          "name": "",
          "type": "string"
        }
      ],
      "stateMutability": "view",
      "type": "function"
    },
    {
      "inputs": [],
      "name": "owner",
      "outputs": [
        {
          "internalType": "address",
          "name": "",
          "type": "address"
        }
      ],
      "stateMutability": "view",
      "type": "function"
    },
    {
      "inputs": [],
      "name": "renounceOwnership",
      "outputs": [],
      "stateMutability": "nonpayable",
      "type": "function"
    },
    {
      "inputs": [
        {
          "internalType": "address",
          "name": "newOwner",
          "type": "address"
        }
      ],
      "name": "transferOwnership",
      "outputs": [],
      "stateMutability": "nonpayable",
      "type": "function"
    }
  ],
  "bytecode": "0x608060405234801561001057600080fd5b5061001a33610064565b60408051808201909152601d8082527f68747470733a2f2f6368726f6d69612e6e65742f6f652f6d617469632f000000602090920191825261005e916001916100b4565b50610188565b600080546001600160a01b038381166001600160a01b0319831681178455604051919092169283917f8be0079c531659141344cd1fd0a4f28419497f9722a3daafe3b4186f6b6457e09190a35050565b8280546100c09061014d565b90600052602060002090601f0160209004810192826100e25760008555610128565b82601f106100fb57805160ff1916838001178555610128565b82800160010185558215610128579182015b8281111561012857825182559160200191906001019061010d565b50610134929150610138565b5090565b5b808211156101345760008155600101610139565b600181811c9082168061016157607f821691505b6020821081141561018257634e487b7160e01b600052602260045260246000fd5b50919050565b61095f806101976000396000f3fe608060405234801561001057600080fd5b50600436106100575760003560e01c806339a0c6f91461005c578063715018a6146100715780638da5cb5b14610079578063d8bcda2714610099578063f2fde38b146100b9575b600080fd5b61006f61006a36600461066e565b6100cc565b005b61006f6100e5565b6000546040516001600160a01b0390911681526020015b60405180910390f35b6100ac6100a7366004610645565b6100f9565b60405161009091906107b7565b61006f6100c736600461062b565b610143565b6100d46101c1565b6100e060018383610576565b505050565b6100ed6101c1565b6100f7600061021b565b565b606060016101116001600160a01b038516601461026b565b61011a84610454565b60405160200161012c939291906106f7565b604051602081830303815290604052905092915050565b61014b6101c1565b6001600160a01b0381166101b55760405162461bcd60e51b815260206004820152602660248201527f4f776e61626c653a206e6577206f776e657220697320746865207a65726f206160448201526564647265737360d01b60648201526084015b60405180910390fd5b6101be8161021b565b50565b6000546001600160a01b031633146100f75760405162461bcd60e51b815260206004820181905260248201527f4f776e61626c653a2063616c6c6572206973206e6f7420746865206f776e657260448201526064016101ac565b600080546001600160a01b038381166001600160a01b0319831681178455604051919092169283917f8be0079c531659141344cd1fd0a4f28419497f9722a3daafe3b4186f6b6457e09190a35050565b6060600061027a836002610816565b6102859060026107ea565b67ffffffffffffffff8111156102ab57634e487b7160e01b600052604160045260246000fd5b6040519080825280601f01601f1916602001820160405280156102d5576020820181803683370190505b509050600360fc1b816000815181106102fe57634e487b7160e01b600052603260045260246000fd5b60200101906001600160f81b031916908160001a905350600f60fb1b8160018151811061033b57634e487b7160e01b600052603260045260246000fd5b60200101906001600160f81b031916908160001a905350600061035f846002610816565b61036a9060016107ea565b90505b60018111156103fe576f181899199a1a9b1b9c1cb0b131b232b360811b85600f16601081106103ac57634e487b7160e01b600052603260045260246000fd5b1a60f81b8282815181106103d057634e487b7160e01b600052603260045260246000fd5b60200101906001600160f81b031916908160001a90535060049490941c936103f78161087c565b905061036d565b50831561044d5760405162461bcd60e51b815260206004820181905260248201527f537472696e67733a20686578206c656e67746820696e73756666696369656e7460448201526064016101ac565b9392505050565b6060816104785750506040805180820190915260018152600360fc1b602082015290565b8160005b81156104a2578061048c816108ce565b915061049b9050600a83610802565b915061047c565b60008167ffffffffffffffff8111156104cb57634e487b7160e01b600052604160045260246000fd5b6040519080825280601f01601f1916602001820160405280156104f5576020820181803683370190505b5090505b841561056e5761050a600183610835565b9150610517600a866108e9565b6105229060306107ea565b60f81b81838151811061054557634e487b7160e01b600052603260045260246000fd5b60200101906001600160f81b031916908160001a905350610567600a86610802565b94506104f9565b949350505050565b82805461058290610893565b90600052602060002090601f0160209004810192826105a457600085556105ea565b82601f106105bd5782800160ff198235161785556105ea565b828001600101855582156105ea579182015b828111156105ea5782358255916020019190600101906105cf565b506105f69291506105fa565b5090565b5b808211156105f657600081556001016105fb565b80356001600160a01b038116811461062657600080fd5b919050565b60006020828403121561063c578081fd5b61044d8261060f565b60008060408385031215610657578081fd5b6106608361060f565b946020939093013593505050565b60008060208385031215610680578182fd5b823567ffffffffffffffff80821115610697578384fd5b818501915085601f8301126106aa578384fd5b8135818111156106b8578485fd5b8660208285010111156106c9578485fd5b60209290920196919550909350505050565b600081516106ed81856020860161084c565b9290920192915050565b600080855482600182811c91508083168061071357607f831692505b602080841082141561073357634e487b7160e01b87526022600452602487fd5b818015610747576001811461075857610784565b60ff19861689528489019650610784565b60008c815260209020885b8681101561077c5781548b820152908501908301610763565b505084890196505b5050505050506107ad6107a761079a83886106db565b602f60f81b815260010190565b856106db565b9695505050505050565b60208152600082518060208401526107d681604085016020870161084c565b601f01601f19169190910160400192915050565b600082198211156107fd576107fd6108fd565b500190565b60008261081157610811610913565b500490565b6000816000190483118215151615610830576108306108fd565b500290565b600082821015610847576108476108fd565b500390565b60005b8381101561086757818101518382015260200161084f565b83811115610876576000848401525b50505050565b60008161088b5761088b6108fd565b506000190190565b600181811c908216806108a757607f821691505b602082108114156108c857634e487b7160e01b600052602260045260246000fd5b50919050565b60006000198214156108e2576108e26108fd565b5060010190565b6000826108f8576108f8610913565b500690565b634e487b7160e01b600052601160045260246000fd5b634e487b7160e01b600052601260045260246000fdfea26469706673582212201b5791e8e88a0eb4084938f400ceb250f1befa0e22b3da11d1f81717a96a4dc864736f6c63430008040033",
  "linkReferences": {},
  "deployedLinkReferences": {}
}