{
  "_format": "hh-sol-artifact-1",
  "contractName": "AssetIssuerState",
  "sourceName": "contracts/AssetIssuerState.sol",
  "abi": [
    {
      "inputs": [
        {
          "internalType": "string",
          "name": "_name",
          "type": "string"
        },
        {
          "internalType": "string",
          "name": "_symbol",
          "type": "string"
        },
        {
          "internalType": "contract ICNR",
          "name": "_CNR",
          "type": "address"
        },
        {
          "internalType": "address",
          "name": "_default_admin",
          "type": "address"
        }
      ],
      "stateMutability": "nonpayable",
      "type": "constructor"
    },
    {
      "anonymous": false,
      "inputs": [
        {
          "indexed": true,
          "internalType": "address",
          "name": "owner",
          "type": "address"
        },
        {
          "indexed": true,
          "internalType": "address",
          "name": "approved",
          "type": "address"
        },
        {
          "indexed": true,
          "internalType": "uint256",
          "name": "tokenId",
          "type": "uint256"
        }
      ],
      "name": "Approval",
      "type": "event"
    },
    {
      "anonymous": false,
      "inputs": [
        {
          "indexed": true,
          "internalType": "address",
          "name": "owner",
          "type": "address"
        },
        {
          "indexed": true,
          "internalType": "address",
          "name": "operator",
          "type": "address"
        },
        {
          "indexed": false,
          "internalType": "bool",
          "name": "approved",
          "type": "bool"
        }
      ],
      "name": "ApprovalForAll",
      "type": "event"
    },
    {
      "anonymous": false,
      "inputs": [
        {
          "indexed": true,
          "internalType": "bytes32",
          "name": "role",
          "type": "bytes32"
        },
        {
          "indexed": true,
          "internalType": "bytes32",
          "name": "previousAdminRole",
          "type": "bytes32"
        },
        {
          "indexed": true,
          "internalType": "bytes32",
          "name": "newAdminRole",
          "type": "bytes32"
        }
      ],
      "name": "RoleAdminChanged",
      "type": "event"
    },
    {
      "anonymous": false,
      "inputs": [
        {
          "indexed": true,
          "internalType": "bytes32",
          "name": "role",
          "type": "bytes32"
        },
        {
          "indexed": true,
          "internalType": "address",
          "name": "account",
          "type": "address"
        },
        {
          "indexed": true,
          "internalType": "address",
          "name": "sender",
          "type": "address"
        }
      ],
      "name": "RoleGranted",
      "type": "event"
    },
    {
      "anonymous": false,
      "inputs": [
        {
          "indexed": true,
          "internalType": "bytes32",
          "name": "role",
          "type": "bytes32"
        },
        {
          "indexed": true,
          "internalType": "address",
          "name": "account",
          "type": "address"
        },
        {
          "indexed": true,
          "internalType": "address",
          "name": "sender",
          "type": "address"
        }
      ],
      "name": "RoleRevoked",
      "type": "event"
    },
    {
      "anonymous": false,
      "inputs": [
        {
          "indexed": true,
          "internalType": "address",
          "name": "from",
          "type": "address"
        },
        {
          "indexed": true,
          "internalType": "address",
          "name": "to",
          "type": "address"
        },
        {
          "indexed": true,
          "internalType": "uint256",
          "name": "tokenId",
          "type": "uint256"
        }
      ],
      "name": "Transfer",
      "type": "event"
    },
    {
      "inputs": [],
      "name": "DEFAULT_ADMIN_ROLE",
      "outputs": [
        {
          "internalType": "bytes32",
          "name": "",
          "type": "bytes32"
        }
      ],
      "stateMutability": "view",
      "type": "function"
    },
    {
      "inputs": [],
      "name": "HANDLER",
      "outputs": [
        {
          "internalType": "bytes32",
          "name": "",
          "type": "bytes32"
        }
      ],
      "stateMutability": "view",
      "type": "function"
    },
    {
      "inputs": [
        {
          "internalType": "address",
          "name": "_from",
          "type": "address"
        },
        {
          "internalType": "uint256",
          "name": "_assetId",
          "type": "uint256"
        },
        {
          "internalType": "uint256",
          "name": "_totalRev",
          "type": "uint256"
        },
        {
          "internalType": "uint256",
          "name": "_amountPerToken",
          "type": "uint256"
        }
      ],
      "name": "addRevenue",
      "outputs": [],
      "stateMutability": "nonpayable",
      "type": "function"
    },
    {
      "inputs": [
        {
          "internalType": "address",
          "name": "to",
          "type": "address"
        },
        {
          "internalType": "uint256",
          "name": "tokenId",
          "type": "uint256"
        }
      ],
      "name": "approve",
      "outputs": [],
      "stateMutability": "nonpayable",
      "type": "function"
    },
    {
      "inputs": [
        {
          "internalType": "uint256",
          "name": "",
          "type": "uint256"
        }
      ],
      "name": "assetPaused",
      "outputs": [
        {
          "internalType": "bool",
          "name": "",
          "type": "bool"
        }
      ],
      "stateMutability": "view",
      "type": "function"
    },
    {
      "inputs": [
        {
          "internalType": "uint256",
          "name": "",
          "type": "uint256"
        }
      ],
      "name": "assetRevToken",
      "outputs": [
        {
          "internalType": "contract IERC20",
          "name": "",
          "type": "address"
        }
      ],
      "stateMutability": "view",
      "type": "function"
    },
    {
      "inputs": [
        {
          "internalType": "address",
          "name": "owner",
          "type": "address"
        }
      ],
      "name": "balanceOf",
      "outputs": [
        {
          "internalType": "uint256",
          "name": "",
          "type": "uint256"
        }
      ],
      "stateMutability": "view",
      "type": "function"
    },
    {
      "inputs": [
        {
          "internalType": "address",
          "name": "_owner",
          "type": "address"
        },
        {
          "internalType": "uint256",
          "name": "_assetId",
          "type": "uint256"
        },
        {
          "internalType": "uint256[]",
          "name": "_tokenIds",
          "type": "uint256[]"
        }
      ],
      "name": "claimRevenue",
      "outputs": [],
      "stateMutability": "nonpayable",
      "type": "function"
    },
    {
      "inputs": [
        {
          "internalType": "address",
          "name": "_from",
          "type": "address"
        },
        {
          "internalType": "address",
          "name": "_to",
          "type": "address"
        },
        {
          "internalType": "uint256[]",
          "name": "_tokenIds",
          "type": "uint256[]"
        }
      ],
      "name": "claimUnits",
      "outputs": [],
      "stateMutability": "nonpayable",
      "type": "function"
    },
    {
      "inputs": [
        {
          "internalType": "uint256",
          "name": "",
          "type": "uint256"
        }
      ],
      "name": "claimedRev",
      "outputs": [
        {
          "internalType": "uint256",
          "name": "",
          "type": "uint256"
        }
      ],
      "stateMutability": "view",
      "type": "function"
    },
    {
      "inputs": [
        {
          "internalType": "uint256",
          "name": "_assetId",
          "type": "uint256"
        },
        {
          "internalType": "uint256",
          "name": "_tokenCap",
          "type": "uint256"
        },
        {
          "internalType": "contract IERC20",
          "name": "_revToken",
          "type": "address"
        }
      ],
      "name": "createAsset",
      "outputs": [],
      "stateMutability": "nonpayable",
      "type": "function"
    },
    {
      "inputs": [
        {
          "internalType": "uint256",
          "name": "tokenId",
          "type": "uint256"
        }
      ],
      "name": "getApproved",
      "outputs": [
        {
          "internalType": "address",
          "name": "",
          "type": "address"
        }
      ],
      "stateMutability": "view",
      "type": "function"
    },
    {
      "inputs": [
        {
          "internalType": "bytes32",
          "name": "role",
          "type": "bytes32"
        }
      ],
      "name": "getRoleAdmin",
      "outputs": [
        {
          "internalType": "bytes32",
          "name": "",
          "type": "bytes32"
        }
      ],
      "stateMutability": "view",
      "type": "function"
    },
    {
      "inputs": [
        {
          "internalType": "uint256",
          "name": "_tokenId",
          "type": "uint256"
        }
      ],
      "name": "getTokenAsset",
      "outputs": [
        {
          "internalType": "uint256",
          "name": "",
          "type": "uint256"
        }
      ],
      "stateMutability": "pure",
      "type": "function"
    },
    {
      "inputs": [
        {
          "internalType": "bytes32",
          "name": "role",
          "type": "bytes32"
        },
        {
          "internalType": "address",
          "name": "account",
          "type": "address"
        }
      ],
      "name": "grantRole",
      "outputs": [],
      "stateMutability": "nonpayable",
      "type": "function"
    },
    {
      "inputs": [
        {
          "internalType": "bytes32",
          "name": "role",
          "type": "bytes32"
        },
        {
          "internalType": "address",
          "name": "account",
          "type": "address"
        }
      ],
      "name": "hasRole",
      "outputs": [
        {
          "internalType": "bool",
          "name": "",
          "type": "bool"
        }
      ],
      "stateMutability": "view",
      "type": "function"
    },
    {
      "inputs": [
        {
          "internalType": "address",
          "name": "owner",
          "type": "address"
        },
        {
          "internalType": "address",
          "name": "operator",
          "type": "address"
        }
      ],
      "name": "isApprovedForAll",
      "outputs": [
        {
          "internalType": "bool",
          "name": "",
          "type": "bool"
        }
      ],
      "stateMutability": "view",
      "type": "function"
    },
    {
      "inputs": [
        {
          "internalType": "address",
          "name": "",
          "type": "address"
        }
      ],
      "name": "isWhitelisted",
      "outputs": [
        {
          "internalType": "bool",
          "name": "",
          "type": "bool"
        }
      ],
      "stateMutability": "view",
      "type": "function"
    },
    {
      "inputs": [
        {
          "internalType": "uint256",
          "name": "",
          "type": "uint256"
        }
      ],
      "name": "lastId",
      "outputs": [
        {
          "internalType": "uint256",
          "name": "",
          "type": "uint256"
        }
      ],
      "stateMutability": "view",
      "type": "function"
    },
    {
      "inputs": [
        {
          "internalType": "uint256",
          "name": "_assetId",
          "type": "uint256"
        },
        {
          "internalType": "uint256",
          "name": "_amount",
          "type": "uint256"
        },
        {
          "internalType": "address",
          "name": "_to",
          "type": "address"
        }
      ],
      "name": "mintAsset",
      "outputs": [],
      "stateMutability": "nonpayable",
      "type": "function"
    },
    {
      "inputs": [],
      "name": "name",
      "outputs": [
        {
          "internalType": "string",
          "name": "",
          "type": "string"
        }
      ],
      "stateMutability": "view",
      "type": "function"
    },
    {
      "inputs": [
        {
          "internalType": "uint256",
          "name": "",
          "type": "uint256"
        }
      ],
      "name": "nextId",
      "outputs": [
        {
          "internalType": "uint256",
          "name": "",
          "type": "uint256"
        }
      ],
      "stateMutability": "view",
      "type": "function"
    },
    {
      "inputs": [
        {
          "internalType": "uint256",
          "name": "tokenId",
          "type": "uint256"
        }
      ],
      "name": "ownerOf",
      "outputs": [
        {
          "internalType": "address",
          "name": "",
          "type": "address"
        }
      ],
      "stateMutability": "view",
      "type": "function"
    },
    {
      "inputs": [
        {
          "internalType": "bytes32",
          "name": "role",
          "type": "bytes32"
        },
        {
          "internalType": "address",
          "name": "account",
          "type": "address"
        }
      ],
      "name": "renounceRole",
      "outputs": [],
      "stateMutability": "nonpayable",
      "type": "function"
    },
    {
      "inputs": [
        {
          "internalType": "bytes32",
          "name": "role",
          "type": "bytes32"
        },
        {
          "internalType": "address",
          "name": "account",
          "type": "address"
        }
      ],
      "name": "revokeRole",
      "outputs": [],
      "stateMutability": "nonpayable",
      "type": "function"
    },
    {
      "inputs": [
        {
          "internalType": "address",
          "name": "from",
          "type": "address"
        },
        {
          "internalType": "address",
          "name": "to",
          "type": "address"
        },
        {
          "internalType": "uint256",
          "name": "tokenId",
          "type": "uint256"
        }
      ],
      "name": "safeTransferFrom",
      "outputs": [],
      "stateMutability": "nonpayable",
      "type": "function"
    },
    {
      "inputs": [
        {
          "internalType": "address",
          "name": "from",
          "type": "address"
        },
        {
          "internalType": "address",
          "name": "to",
          "type": "address"
        },
        {
          "internalType": "uint256",
          "name": "tokenId",
          "type": "uint256"
        },
        {
          "internalType": "bytes",
          "name": "data",
          "type": "bytes"
        }
      ],
      "name": "safeTransferFrom",
      "outputs": [],
      "stateMutability": "nonpayable",
      "type": "function"
    },
    {
      "inputs": [
        {
          "internalType": "address",
          "name": "operator",
          "type": "address"
        },
        {
          "internalType": "bool",
          "name": "approved",
          "type": "bool"
        }
      ],
      "name": "setApprovalForAll",
      "outputs": [],
      "stateMutability": "nonpayable",
      "type": "function"
    },
    {
      "inputs": [
        {
          "internalType": "uint256",
          "name": "_assetId",
          "type": "uint256"
        },
        {
          "internalType": "bool",
          "name": "_paused",
          "type": "bool"
        }
      ],
      "name": "setAssetTransfersPaused",
      "outputs": [],
      "stateMutability": "nonpayable",
      "type": "function"
    },
    {
      "inputs": [
        {
          "internalType": "uint256",
          "name": "_assetId",
          "type": "uint256"
        },
        {
          "internalType": "uint256[]",
          "name": "_tokenIds",
          "type": "uint256[]"
        },
        {
          "internalType": "uint256",
          "name": "_amount",
          "type": "uint256"
        }
      ],
      "name": "setClaimed",
      "outputs": [],
      "stateMutability": "nonpayable",
      "type": "function"
    },
    {
      "inputs": [
        {
          "internalType": "bool",
          "name": "_paused",
          "type": "bool"
        }
      ],
      "name": "setTransfersPaused",
      "outputs": [],
      "stateMutability": "nonpayable",
      "type": "function"
    },
    {
      "inputs": [
        {
          "internalType": "address[]",
          "name": "_users",
          "type": "address[]"
        },
        {
          "internalType": "bool",
          "name": "_whitelisted",
          "type": "bool"
        }
      ],
      "name": "setWhitelisted",
      "outputs": [],
      "stateMutability": "nonpayable",
      "type": "function"
    },
    {
      "inputs": [
        {
          "internalType": "bytes4",
          "name": "interfaceId",
          "type": "bytes4"
        }
      ],
      "name": "supportsInterface",
      "outputs": [
        {
          "internalType": "bool",
          "name": "",
          "type": "bool"
        }
      ],
      "stateMutability": "view",
      "type": "function"
    },
    {
      "inputs": [],
      "name": "symbol",
      "outputs": [
        {
          "internalType": "string",
          "name": "",
          "type": "string"
        }
      ],
      "stateMutability": "view",
      "type": "function"
    },
    {
      "inputs": [
        {
          "internalType": "uint256",
          "name": "_tokenId",
          "type": "uint256"
        }
      ],
      "name": "tokenURI",
      "outputs": [
        {
          "internalType": "string",
          "name": "",
          "type": "string"
        }
      ],
      "stateMutability": "view",
      "type": "function"
    },
    {
      "inputs": [
        {
          "internalType": "uint256",
          "name": "",
          "type": "uint256"
        }
      ],
      "name": "totalShareRev",
      "outputs": [
        {
          "internalType": "uint256",
          "name": "",
          "type": "uint256"
        }
      ],
      "stateMutability": "view",
      "type": "function"
    },
    {
      "inputs": [
        {
          "internalType": "address",
          "name": "from",
          "type": "address"
        },
        {
          "internalType": "address",
          "name": "to",
          "type": "address"
        },
        {
          "internalType": "uint256",
          "name": "tokenId",
          "type": "uint256"
        }
      ],
      "name": "transferFrom",
      "outputs": [],
      "stateMutability": "nonpayable",
      "type": "function"
    },
    {
      "inputs": [
        {
          "internalType": "uint256",
          "name": "_assetId",
          "type": "uint256"
        },
        {
          "internalType": "uint256",
          "name": "_tokenCap",
          "type": "uint256"
        }
      ],
      "name": "updateAssetTokenCap",
      "outputs": [],
      "stateMutability": "nonpayable",
      "type": "function"
    }
  ],
  "bytecode": "0x60806040526009805460ff191690553480156200001b57600080fd5b5060405162002b9438038062002b948339810160408190526200003e91620002a0565b8351849084906200005790600090602085019062000147565b5080516200006d90600190602084019062000147565b5050600780546001600160a01b0319166001600160a01b0385161790555062000098600082620000a2565b505050506200039d565b60008281526006602090815260408083206001600160a01b038516845290915290205460ff16620001435760008281526006602090815260408083206001600160a01b03851684529091529020805460ff19166001179055620001023390565b6001600160a01b0316816001600160a01b0316837f2f8788117e7eff1d82e926ec794901d17c78024a50270940304540a733656f0d60405160405180910390a45b5050565b828054620001559062000331565b90600052602060002090601f016020900481019282620001795760008555620001c4565b82601f106200019457805160ff1916838001178555620001c4565b82800160010185558215620001c4579182015b82811115620001c4578251825591602001919060010190620001a7565b50620001d2929150620001d6565b5090565b5b80821115620001d25760008155600101620001d7565b600082601f830112620001fe578081fd5b81516001600160401b03808211156200021b576200021b6200036e565b604051601f8301601f19908116603f011681019082821181831017156200024657620002466200036e565b8160405283815260209250868385880101111562000262578485fd5b8491505b8382101562000285578582018301518183018401529082019062000266565b838211156200029657848385830101525b9695505050505050565b60008060008060808587031215620002b6578384fd5b84516001600160401b0380821115620002cd578586fd5b620002db88838901620001ed565b95506020870151915080821115620002f1578485fd5b506200030087828801620001ed565b9350506040850151620003138162000384565b6060860151909250620003268162000384565b939692955090935050565b600181811c908216806200034657607f821691505b602082108114156200036857634e487b7160e01b600052602260045260246000fd5b50919050565b634e487b7160e01b600052604160045260246000fd5b6001600160a01b03811681146200039a57600080fd5b50565b6127e780620003ad6000396000f3fe608060405234801561001057600080fd5b50600436106102325760003560e01c806376ee32c111610130578063b819fbd4116100b8578063cf0b3a511161007c578063cf0b3a5114610539578063d547741f14610562578063e985e9c514610575578063ed26490d146105b1578063f3c4b704146105c457600080fd5b8063b819fbd4146104d8578063b88d4fde146104eb578063b9a28994146104fe578063c79eaa4014610513578063c87b56dd1461052657600080fd5b806395d89b41116100ff57806395d89b4114610482578063a217fddf1461048a578063a22cb46514610492578063ac2b2055146104a5578063b7544301146104c557600080fd5b806376ee32c11461040f57806386ed41171461042f57806391d148541461044f57806392877ddc1461046257600080fd5b806334ec9d6f116101be57806344e46dff1161018257806344e46dff146103b0578063498e5165146103c35780636352211e146103d6578063665b89a7146103e957806370a08231146103fc57600080fd5b806334ec9d6f146103415780633504977c1461035457806336568abe146103675780633af32abf1461037a57806342842e0e1461039d57600080fd5b8063220f27eb11610205578063220f27eb146102b457806323b872dd146102d7578063248a9ca3146102ea5780632743062d1461031b5780632f2ff15d1461032e57600080fd5b806301ffc9a71461023757806306fdde031461025f578063081812fc14610274578063095ea7b31461029f575b600080fd5b61024a6102453660046122cd565b6105d7565b60405190151581526020015b60405180910390f35b6102676105e8565b6040516102569190612519565b610287610282366004612291565b61067a565b6040516001600160a01b039091168152602001610256565b6102b26102ad36600461215d565b6106a1565b005b61024a6102c2366004612291565b600a6020526000908152604090205460ff1681565b6102b26102e5366004612049565b6107bc565b61030d6102f8366004612291565b60009081526006602052604090206001015490565b604051908152602001610256565b6102b26103293660046121ca565b6107ed565b6102b261033c3660046122a9565b6108c9565b6102b261034f366004611fe6565b6108ee565b6102b2610362366004612378565b61095e565b6102b26103753660046122a9565b610a4a565b61024a610388366004611f92565b60086020526000908152604090205460ff1681565b6102b26103ab366004612049565b610ac8565b6102b26103be366004612259565b610ae3565b6102b26103d136600461240e565b610b0f565b6102876103e4366004612291565b610bef565b61030d6103f7366004612291565b610c4f565b61030d61040a366004611f92565b610c5f565b61030d61041d366004612291565b600c6020526000908152604090205481565b61030d61043d366004612291565b600f6020526000908152604090205481565b61024a61045d3660046122a9565b610ce5565b61030d610470366004612291565b600b6020526000908152604090205481565b610267610d10565b61030d600081565b6102b26104a0366004612130565b610d1f565b61030d6104b3366004612291565b600e6020526000908152604090205481565b6102b26104d33660046123ed565b610d2a565b6102b26104e63660046123c9565b610dfe565b6102b26104f9366004612089565b610e37565b61030d60008051602061279283398151915281565b6102b261052136600461240e565b610e6f565b610267610534366004612291565b610f4e565b610287610547366004612291565b600d602052600090815260409020546001600160a01b031681565b6102b26105703660046122a9565b611053565b61024a610583366004611fae565b6001600160a01b03918216600090815260056020908152604080832093909416825291909152205460ff1690565b6102b26105bf366004612188565b611078565b6102b26105d2366004612204565b61134a565b60006105e2826113e2565b92915050565b6060600080546105f7906126d6565b80601f0160208091040260200160405190810160405280929190818152602001828054610623906126d6565b80156106705780601f1061064557610100808354040283529160200191610670565b820191906000526020600020905b81548152906001019060200180831161065357829003601f168201915b5050505050905090565b600061068582611407565b506000908152600460205260409020546001600160a01b031690565b60006106ac82610bef565b9050806001600160a01b0316836001600160a01b0316141561071f5760405162461bcd60e51b815260206004820152602160248201527f4552433732313a20617070726f76616c20746f2063757272656e74206f776e656044820152603960f91b60648201526084015b60405180910390fd5b336001600160a01b038216148061073b575061073b8133610583565b6107ad5760405162461bcd60e51b815260206004820152603e60248201527f4552433732313a20617070726f76652063616c6c6572206973206e6f7420746f60448201527f6b656e206f776e6572206e6f7220617070726f76656420666f7220616c6c00006064820152608401610716565b6107b78383611469565b505050565b6107c633826114d7565b6107e25760405162461bcd60e51b81526004016107169061257e565b6107b7838383611556565b600080516020612792833981519152610805816116fd565b6000848152600e602052604081208054849290610823908490612625565b90915550506000848152600d6020526040908190205490516323b872dd60e01b81526001600160a01b03878116600483015230602483015260448201869052909116906323b872dd90606401602060405180830381600087803b15801561088957600080fd5b505af115801561089d573d6000803e3d6000fd5b505050506040513d601f19601f820116820180604052508101906108c19190612275565b505050505050565b6000828152600660205260409020600101546108e4816116fd565b6107b78383611707565b600080516020612792833981519152610906816116fd565b8160005b8181101561095557610943878787878581811061093757634e487b7160e01b600052603260045260246000fd5b90506020020135611556565b8061094d81612711565b91505061090a565b50505050505050565b600080516020612792833981519152610976816116fd565b8260005b8181101561095557866109b28787848181106109a657634e487b7160e01b600052603260045260246000fd5b90506020020135610c4f565b146109f95760405162461bcd60e51b8152602060048201526017602482015276125b9d985b1a59081d1bdad95b88199bdc88185cdcd95d604a1b6044820152606401610716565b83600f6000888885818110610a1e57634e487b7160e01b600052603260045260246000fd5b905060200201358152602001908152602001600020819055508080610a4290612711565b91505061097a565b6001600160a01b0381163314610aba5760405162461bcd60e51b815260206004820152602f60248201527f416363657373436f6e74726f6c3a2063616e206f6e6c792072656e6f756e636560448201526e103937b632b9903337b91039b2b63360891b6064820152608401610716565b610ac4828261178d565b5050565b6107b783838360405180602001604052806000815250610e37565b600080516020612792833981519152610afb816116fd565b506009805460ff1916911515919091179055565b600080516020612792833981519152610b27816116fd565b6000848152600b602052604090205415610b7a5760405162461bcd60e51b8152602060048201526014602482015273417373657420616c72656164792065786973747360601b6044820152606401610716565b6000848152600d6020526040902080546001600160a01b0319166001600160a01b038416179055610baf84633b9aca0061265d565b6000858152600b602052604090205582610bcd85633b9aca0061265d565b610bd79190612625565b6000948552600c602052604090942093909355505050565b6000818152600260205260408120546001600160a01b0316806105e25760405162461bcd60e51b8152602060048201526018602482015277115490cdcc8c4e881a5b9d985b1a59081d1bdad95b88125160421b6044820152606401610716565b60006105e2633b9aca008361263d565b60006001600160a01b038216610cc95760405162461bcd60e51b815260206004820152602960248201527f4552433732313a2061646472657373207a65726f206973206e6f7420612076616044820152683634b21037bbb732b960b91b6064820152608401610716565b506001600160a01b031660009081526003602052604090205490565b60009182526006602090815260408084206001600160a01b0393909316845291905290205460ff1690565b6060600180546105f7906126d6565b610ac43383836117f4565b600080516020612792833981519152610d42816116fd565b81610d5184633b9aca0061265d565b610d5b9190612625565b6000848152600b60205260409020541115610dce5760405162461bcd60e51b815260206004820152602d60248201527f4173736574206361702063616e206e6f74206265206c6f776572207468616e2060448201526c1b5a5b9d195908185b5bdd5b9d609a1b6064820152608401610716565b81610ddd84633b9aca0061265d565b610de79190612625565b6000938452600c6020526040909320929092555050565b600080516020612792833981519152610e16816116fd565b506000918252600a6020526040909120805460ff1916911515919091179055565b610e4133836114d7565b610e5d5760405162461bcd60e51b81526004016107169061257e565b610e69848484846118c3565b50505050565b600080516020612792833981519152610e87816116fd565b6000848152600c6020908152604080832054600b90925290912054610ead908590612625565b1115610ef05760405162461bcd60e51b8152602060048201526012602482015271082dadeeadce840caf0c6cacac8e640dac2f60731b6044820152606401610716565b60005b83811015610f47576000858152600b6020526040902054610f159084906118f6565b6000858152600b60205260408120805491610f2f83612711565b91905055508080610f3f90612711565b915050610ef3565b5050505050565b6000818152600260205260409020546060906001600160a01b0316610fcd5760405162461bcd60e51b815260206004820152602f60248201527f4552433732314d657461646174613a2055524920717565727920666f72206e6f60448201526e3732bc34b9ba32b73a103a37b5b2b760891b6064820152608401610716565b60075460405163d8bcda2760e01b8152306004820152602481018490526001600160a01b039091169063d8bcda279060440160006040518083038186803b15801561101757600080fd5b505afa15801561102b573d6000803e3d6000fd5b505050506040513d6000823e601f3d908101601f191682016040526105e29190810190612305565b60008281526006602052604090206001015461106e816116fd565b6107b7838361178d565b600080516020612792833981519152611090816116fd565b6001600160a01b03851660009081526008602052604090205460ff166110f85760405162461bcd60e51b815260206004820152601860248201527f4f776e6572206973206e6f742077686974656c697374656400000000000000006044820152606401610716565b6000848152600e60205260408120548390825b828110156112a557886001600160a01b031661114c88888481811061114057634e487b7160e01b600052603260045260246000fd5b90506020020135610bef565b6001600160a01b0316146111985760405162461bcd60e51b815260206004820152601360248201527224b73b30b634b2103a37b5b2b71037bbb732b960691b6044820152606401610716565b876111bc8888848181106109a657634e487b7160e01b600052603260045260246000fd5b146112035760405162461bcd60e51b8152602060048201526017602482015276125b9d985b1a59081d1bdad95b88199bdc88185cdcd95d604a1b6044820152606401610716565b600f600088888481811061122757634e487b7160e01b600052603260045260246000fd5b9050602002013581526020019081526020016000205482611248919061267c565b6112529085612625565b935081600f600089898581811061127957634e487b7160e01b600052603260045260246000fd5b90506020020135815260200190815260200160002081905550808061129d90612711565b91505061110b565b506000878152600d6020526040908190205490516323b872dd60e01b81523060048201526001600160a01b038a8116602483015260448201869052909116906323b872dd90606401602060405180830381600087803b15801561130757600080fd5b505af115801561131b573d6000803e3d6000fd5b505050506040513d601f19601f8201168201806040525081019061133f9190612275565b505050505050505050565b600080516020612792833981519152611362816116fd565b8260005b818110156108c157836008600088888581811061139357634e487b7160e01b600052603260045260246000fd5b90506020020160208101906113a89190611f92565b6001600160a01b031681526020810191909152604001600020805460ff1916911515919091179055806113da81612711565b915050611366565b60006001600160e01b03198216637965db0b60e01b14806105e257506105e282611a44565b6000818152600260205260409020546001600160a01b03166114665760405162461bcd60e51b8152602060048201526018602482015277115490cdcc8c4e881a5b9d985b1a59081d1bdad95b88125160421b6044820152606401610716565b50565b600081815260046020526040902080546001600160a01b0319166001600160a01b038416908117909155819061149e82610bef565b6001600160a01b03167f8c5be1e5ebec7d5bd14f71427d1e84f3dd0314c0f7b2291e5b200ac8c7c3b92560405160405180910390a45050565b6000806114e383610bef565b9050806001600160a01b0316846001600160a01b0316148061152a57506001600160a01b0380821660009081526005602090815260408083209388168352929052205460ff165b8061154e5750836001600160a01b03166115438461067a565b6001600160a01b0316145b949350505050565b826001600160a01b031661156982610bef565b6001600160a01b0316146115cd5760405162461bcd60e51b815260206004820152602560248201527f4552433732313a207472616e736665722066726f6d20696e636f72726563742060448201526437bbb732b960d91b6064820152608401610716565b6001600160a01b03821661162f5760405162461bcd60e51b8152602060048201526024808201527f4552433732313a207472616e7366657220746f20746865207a65726f206164646044820152637265737360e01b6064820152608401610716565b61163a838383611a94565b611645600082611469565b6001600160a01b038316600090815260036020526040812080546001929061166e90849061267c565b90915550506001600160a01b038216600090815260036020526040812080546001929061169c908490612625565b909155505060008181526002602052604080822080546001600160a01b0319166001600160a01b0386811691821790925591518493918716917fddf252ad1be2c89b69c2b068fc378daa952ba7f163c4a11628f55a4df523b3ef91a4505050565b6114668133611bee565b6117118282610ce5565b610ac45760008281526006602090815260408083206001600160a01b03851684529091529020805460ff191660011790556117493390565b6001600160a01b0316816001600160a01b0316837f2f8788117e7eff1d82e926ec794901d17c78024a50270940304540a733656f0d60405160405180910390a45050565b6117978282610ce5565b15610ac45760008281526006602090815260408083206001600160a01b0385168085529252808320805460ff1916905551339285917ff6391f5c32d9c69d2a47ea670b442974b53935d1edc7fd64eb21e047a839171b9190a45050565b816001600160a01b0316836001600160a01b031614156118565760405162461bcd60e51b815260206004820152601960248201527f4552433732313a20617070726f766520746f2063616c6c6572000000000000006044820152606401610716565b6001600160a01b03838116600081815260056020908152604080832094871680845294825291829020805460ff191686151590811790915591519182527f17307eab39ab6107e8899845ad3d59bd9653f200f220920489ca2b5937696c31910160405180910390a3505050565b6118ce848484611556565b6118da84848484611c52565b610e695760405162461bcd60e51b81526004016107169061252c565b6001600160a01b03821661194c5760405162461bcd60e51b815260206004820181905260248201527f4552433732313a206d696e7420746f20746865207a65726f20616464726573736044820152606401610716565b6000818152600260205260409020546001600160a01b0316156119b15760405162461bcd60e51b815260206004820152601c60248201527f4552433732313a20746f6b656e20616c7265616479206d696e746564000000006044820152606401610716565b6119bd60008383611a94565b6001600160a01b03821660009081526003602052604081208054600192906119e6908490612625565b909155505060008181526002602052604080822080546001600160a01b0319166001600160a01b03861690811790915590518392907fddf252ad1be2c89b69c2b068fc378daa952ba7f163c4a11628f55a4df523b3ef908290a45050565b60006001600160e01b031982166380ac58cd60e01b1480611a7557506001600160e01b03198216635b5e139f60e01b145b806105e257506301ffc9a760e01b6001600160e01b03198316146105e2565b6001600160a01b0383161580611ab257506001600160a01b03831630145b6107b75760095460ff1615611b095760405162461bcd60e51b815260206004820152601e60248201527f5472616e7366657273206172652063757272656e746c792070617573656400006044820152606401610716565b600a6000611b1683610c4f565b815260208101919091526040016000205460ff1615611b695760405162461bcd60e51b815260206004820152600f60248201526e105cdcd95d081a5cc81c185d5cd959608a1b6044820152606401610716565b6001600160a01b03831660009081526008602052604090205460ff168015611ba957506001600160a01b03821660009081526008602052604090205460ff165b6107b75760405162461bcd60e51b815260206004820152601660248201527524b73b30b634b2103a37b5b2b7103a3930b739b332b960511b6044820152606401610716565b611bf88282610ce5565b610ac457611c10816001600160a01b03166014611d5f565b611c1b836020611d5f565b604051602001611c2c929190612467565b60408051601f198184030181529082905262461bcd60e51b825261071691600401612519565b60006001600160a01b0384163b15611d5457604051630a85bd0160e11b81526001600160a01b0385169063150b7a0290611c969033908990889088906004016124dc565b602060405180830381600087803b158015611cb057600080fd5b505af1925050508015611ce0575060408051601f3d908101601f19168201909252611cdd918101906122e9565b60015b611d3a573d808015611d0e576040519150601f19603f3d011682016040523d82523d6000602084013e611d13565b606091505b508051611d325760405162461bcd60e51b81526004016107169061252c565b805181602001fd5b6001600160e01b031916630a85bd0160e11b14905061154e565b506001949350505050565b60606000611d6e83600261265d565b611d79906002612625565b67ffffffffffffffff811115611d9f57634e487b7160e01b600052604160045260246000fd5b6040519080825280601f01601f191660200182016040528015611dc9576020820181803683370190505b509050600360fc1b81600081518110611df257634e487b7160e01b600052603260045260246000fd5b60200101906001600160f81b031916908160001a905350600f60fb1b81600181518110611e2f57634e487b7160e01b600052603260045260246000fd5b60200101906001600160f81b031916908160001a9053506000611e5384600261265d565b611e5e906001612625565b90505b6001811115611ef2576f181899199a1a9b1b9c1cb0b131b232b360811b85600f1660108110611ea057634e487b7160e01b600052603260045260246000fd5b1a60f81b828281518110611ec457634e487b7160e01b600052603260045260246000fd5b60200101906001600160f81b031916908160001a90535060049490941c93611eeb816126bf565b9050611e61565b508315611f415760405162461bcd60e51b815260206004820181905260248201527f537472696e67733a20686578206c656e67746820696e73756666696369656e746044820152606401610716565b9392505050565b60008083601f840112611f59578081fd5b50813567ffffffffffffffff811115611f70578182fd5b6020830191508360208260051b8501011115611f8b57600080fd5b9250929050565b600060208284031215611fa3578081fd5b8135611f4181612758565b60008060408385031215611fc0578081fd5b8235611fcb81612758565b91506020830135611fdb81612758565b809150509250929050565b60008060008060608587031215611ffb578182fd5b843561200681612758565b9350602085013561201681612758565b9250604085013567ffffffffffffffff811115612031578283fd5b61203d87828801611f48565b95989497509550505050565b60008060006060848603121561205d578283fd5b833561206881612758565b9250602084013561207881612758565b929592945050506040919091013590565b6000806000806080858703121561209e578384fd5b84356120a981612758565b935060208501356120b981612758565b925060408501359150606085013567ffffffffffffffff8111156120db578182fd5b8501601f810187136120eb578182fd5b80356120fe6120f9826125fd565b6125cc565b818152886020838501011115612112578384fd5b81602084016020830137908101602001929092525092959194509250565b60008060408385031215612142578182fd5b823561214d81612758565b91506020830135611fdb8161276d565b6000806040838503121561216f578182fd5b823561217a81612758565b946020939093013593505050565b6000806000806060858703121561219d578384fd5b84356121a881612758565b935060208501359250604085013567ffffffffffffffff811115612031578283fd5b600080600080608085870312156121df578081fd5b84356121ea81612758565b966020860135965060408601359560600135945092505050565b600080600060408486031215612218578081fd5b833567ffffffffffffffff81111561222e578182fd5b61223a86828701611f48565b909450925050602084013561224e8161276d565b809150509250925092565b60006020828403121561226a578081fd5b8135611f418161276d565b600060208284031215612286578081fd5b8151611f418161276d565b6000602082840312156122a2578081fd5b5035919050565b600080604083850312156122bb578182fd5b823591506020830135611fdb81612758565b6000602082840312156122de578081fd5b8135611f418161277b565b6000602082840312156122fa578081fd5b8151611f418161277b565b600060208284031215612316578081fd5b815167ffffffffffffffff81111561232c578182fd5b8201601f8101841361233c578182fd5b805161234a6120f9826125fd565b81815285602083850101111561235e578384fd5b61236f826020830160208601612693565b95945050505050565b6000806000806060858703121561238d578182fd5b84359350602085013567ffffffffffffffff8111156123aa578283fd5b6123b687828801611f48565b9598909750949560400135949350505050565b600080604083850312156123db578182fd5b823591506020830135611fdb8161276d565b600080604083850312156123ff578182fd5b50508035926020909101359150565b600080600060608486031215612422578081fd5b8335925060208401359150604084013561224e81612758565b60008151808452612453816020860160208601612693565b601f01601f19169290920160200192915050565b7f416363657373436f6e74726f6c3a206163636f756e742000000000000000000081526000835161249f816017850160208801612693565b7001034b99036b4b9b9b4b733903937b6329607d1b60179184019182015283516124d0816028840160208801612693565b01602801949350505050565b6001600160a01b038581168252841660208201526040810183905260806060820181905260009061250f9083018461243b565b9695505050505050565b602081526000611f41602083018461243b565b60208082526032908201527f4552433732313a207472616e7366657220746f206e6f6e20455243373231526560408201527131b2b4bb32b91034b6b83632b6b2b73a32b960711b606082015260800190565b6020808252602e908201527f4552433732313a2063616c6c6572206973206e6f7420746f6b656e206f776e6560408201526d1c881b9bdc88185c1c1c9bdd995960921b606082015260800190565b604051601f8201601f1916810167ffffffffffffffff811182821017156125f5576125f5612742565b604052919050565b600067ffffffffffffffff82111561261757612617612742565b50601f01601f191660200190565b600082198211156126385761263861272c565b500190565b60008261265857634e487b7160e01b81526012600452602481fd5b500490565b60008160001904831182151516156126775761267761272c565b500290565b60008282101561268e5761268e61272c565b500390565b60005b838110156126ae578181015183820152602001612696565b83811115610e695750506000910152565b6000816126ce576126ce61272c565b506000190190565b600181811c908216806126ea57607f821691505b6020821081141561270b57634e487b7160e01b600052602260045260246000fd5b50919050565b60006000198214156127255761272561272c565b5060010190565b634e487b7160e01b600052601160045260246000fd5b634e487b7160e01b600052604160045260246000fd5b6001600160a01b038116811461146657600080fd5b801515811461146657600080fd5b6001600160e01b03198116811461146657600080fdfef40ec076ff2e3a403e1c18632267861d39085e7f359ca5665846f335632cf819a2646970667358221220a40a8e391f3185c8de3d579b733e7556f83c426d37e8532e7a2bc2bdbef099c164736f6c63430008040033",
  "linkReferences": {},
  "deployedLinkReferences": {}
}