{
  "_format": "hh-sol-artifact-1",
  "contractName": "AssetProxy",
  "sourceName": "contracts/AssetProxy.sol",
  "abi": [
    {
      "anonymous": false,
      "inputs": [
        {
          "indexed": true,
          "internalType": "address",
          "name": "owner",
          "type": "address"
        },
        {
          "indexed": true,
          "internalType": "address",
          "name": "approved",
          "type": "address"
        },
        {
          "indexed": true,
          "internalType": "uint256",
          "name": "tokenId",
          "type": "uint256"
        }
      ],
      "name": "Approval",
      "type": "event"
    },
    {
      "anonymous": false,
      "inputs": [
        {
          "indexed": true,
          "internalType": "address",
          "name": "owner",
          "type": "address"
        },
        {
          "indexed": true,
          "internalType": "address",
          "name": "operator",
          "type": "address"
        },
        {
          "indexed": false,
          "internalType": "bool",
          "name": "approved",
          "type": "bool"
        }
      ],
      "name": "ApprovalForAll",
      "type": "event"
    },
    {
      "anonymous": false,
      "inputs": [
        {
          "indexed": false,
          "internalType": "uint8",
          "name": "version",
          "type": "uint8"
        }
      ],
      "name": "Initialized",
      "type": "event"
    },
    {
      "anonymous": false,
      "inputs": [
        {
          "indexed": false,
          "internalType": "address",
          "name": "account",
          "type": "address"
        }
      ],
      "name": "Paused",
      "type": "event"
    },
    {
      "anonymous": false,
      "inputs": [
        {
          "indexed": true,
          "internalType": "bytes32",
          "name": "role",
          "type": "bytes32"
        },
        {
          "indexed": true,
          "internalType": "bytes32",
          "name": "previousAdminRole",
          "type": "bytes32"
        },
        {
          "indexed": true,
          "internalType": "bytes32",
          "name": "newAdminRole",
          "type": "bytes32"
        }
      ],
      "name": "RoleAdminChanged",
      "type": "event"
    },
    {
      "anonymous": false,
      "inputs": [
        {
          "indexed": true,
          "internalType": "bytes32",
          "name": "role",
          "type": "bytes32"
        },
        {
          "indexed": true,
          "internalType": "address",
          "name": "account",
          "type": "address"
        },
        {
          "indexed": true,
          "internalType": "address",
          "name": "sender",
          "type": "address"
        }
      ],
      "name": "RoleGranted",
      "type": "event"
    },
    {
      "anonymous": false,
      "inputs": [
        {
          "indexed": true,
          "internalType": "bytes32",
          "name": "role",
          "type": "bytes32"
        },
        {
          "indexed": true,
          "internalType": "address",
          "name": "account",
          "type": "address"
        },
        {
          "indexed": true,
          "internalType": "address",
          "name": "sender",
          "type": "address"
        }
      ],
      "name": "RoleRevoked",
      "type": "event"
    },
    {
      "anonymous": false,
      "inputs": [
        {
          "indexed": true,
          "internalType": "address",
          "name": "from",
          "type": "address"
        },
        {
          "indexed": true,
          "internalType": "address",
          "name": "to",
          "type": "address"
        },
        {
          "indexed": true,
          "internalType": "uint256",
          "name": "tokenId",
          "type": "uint256"
        }
      ],
      "name": "Transfer",
      "type": "event"
    },
    {
      "anonymous": false,
      "inputs": [
        {
          "indexed": false,
          "internalType": "address",
          "name": "account",
          "type": "address"
        }
      ],
      "name": "Unpaused",
      "type": "event"
    },
    {
      "inputs": [],
      "name": "ADMIN",
      "outputs": [
        {
          "internalType": "bytes32",
          "name": "",
          "type": "bytes32"
        }
      ],
      "stateMutability": "view",
      "type": "function"
    },
    {
      "inputs": [],
      "name": "DEFAULT_ADMIN_ROLE",
      "outputs": [
        {
          "internalType": "bytes32",
          "name": "",
          "type": "bytes32"
        }
      ],
      "stateMutability": "view",
      "type": "function"
    },
    {
      "inputs": [],
      "name": "HANDLER",
      "outputs": [
        {
          "internalType": "bytes32",
          "name": "",
          "type": "bytes32"
        }
      ],
      "stateMutability": "view",
      "type": "function"
    },
    {
      "inputs": [
        {
          "internalType": "uint256",
          "name": "_tokenId",
          "type": "uint256"
        }
      ],
      "name": "_getTokenAsset",
      "outputs": [
        {
          "internalType": "uint256",
          "name": "",
          "type": "uint256"
        }
      ],
      "stateMutability": "pure",
      "type": "function"
    },
    {
      "inputs": [
        {
          "internalType": "uint256",
          "name": "_assetId",
          "type": "uint256"
        },
        {
          "internalType": "uint256",
          "name": "_totalRev",
          "type": "uint256"
        },
        {
          "internalType": "uint256",
          "name": "_unitsCount",
          "type": "uint256"
        },
        {
          "internalType": "uint256",
          "name": "_amountPerShare",
          "type": "uint256"
        }
      ],
      "name": "addRevenue",
      "outputs": [],
      "stateMutability": "nonpayable",
      "type": "function"
    },
    {
      "inputs": [
        {
          "internalType": "address",
          "name": "to",
          "type": "address"
        },
        {
          "internalType": "uint256",
          "name": "tokenId",
          "type": "uint256"
        }
      ],
      "name": "approve",
      "outputs": [],
      "stateMutability": "nonpayable",
      "type": "function"
    },
    {
      "inputs": [
        {
          "internalType": "uint256",
          "name": "",
          "type": "uint256"
        }
      ],
      "name": "assetPaused",
      "outputs": [
        {
          "internalType": "bool",
          "name": "",
          "type": "bool"
        }
      ],
      "stateMutability": "view",
      "type": "function"
    },
    {
      "inputs": [
        {
          "internalType": "uint256",
          "name": "",
          "type": "uint256"
        }
      ],
      "name": "assetRevToken",
      "outputs": [
        {
          "internalType": "contract IERC20Upgradeable",
          "name": "",
          "type": "address"
        }
      ],
      "stateMutability": "view",
      "type": "function"
    },
    {
      "inputs": [
        {
          "internalType": "address",
          "name": "owner",
          "type": "address"
        }
      ],
      "name": "balanceOf",
      "outputs": [
        {
          "internalType": "uint256",
          "name": "",
          "type": "uint256"
        }
      ],
      "stateMutability": "view",
      "type": "function"
    },
    {
      "inputs": [
        {
          "internalType": "uint256",
          "name": "_assetId",
          "type": "uint256"
        },
        {
          "internalType": "uint256[]",
          "name": "_tokenIds",
          "type": "uint256[]"
        }
      ],
      "name": "claimRevenue",
      "outputs": [],
      "stateMutability": "nonpayable",
      "type": "function"
    },
    {
      "inputs": [
        {
          "internalType": "uint256[]",
          "name": "_tokenIds",
          "type": "uint256[]"
        },
        {
          "internalType": "bytes",
          "name": "_prefix",
          "type": "bytes"
        },
        {
          "internalType": "uint8",
          "name": "_v",
          "type": "uint8"
        },
        {
          "internalType": "bytes32",
          "name": "_r",
          "type": "bytes32"
        },
        {
          "internalType": "bytes32",
          "name": "_s",
          "type": "bytes32"
        }
      ],
      "name": "claimUnits",
      "outputs": [],
      "stateMutability": "nonpayable",
      "type": "function"
    },
    {
      "inputs": [
        {
          "internalType": "uint256",
          "name": "",
          "type": "uint256"
        }
      ],
      "name": "claimedRev",
      "outputs": [
        {
          "internalType": "uint256",
          "name": "",
          "type": "uint256"
        }
      ],
      "stateMutability": "view",
      "type": "function"
    },
    {
      "inputs": [
        {
          "internalType": "uint256",
          "name": "_assetId",
          "type": "uint256"
        },
        {
          "internalType": "uint256",
          "name": "_tokenCap",
          "type": "uint256"
        },
        {
          "internalType": "contract IERC20Upgradeable",
          "name": "_revToken",
          "type": "address"
        }
      ],
      "name": "createAsset",
      "outputs": [],
      "stateMutability": "nonpayable",
      "type": "function"
    },
    {
      "inputs": [
        {
          "internalType": "uint256",
          "name": "tokenId",
          "type": "uint256"
        }
      ],
      "name": "getApproved",
      "outputs": [
        {
          "internalType": "address",
          "name": "",
          "type": "address"
        }
      ],
      "stateMutability": "view",
      "type": "function"
    },
    {
      "inputs": [
        {
          "internalType": "bytes32",
          "name": "role",
          "type": "bytes32"
        }
      ],
      "name": "getRoleAdmin",
      "outputs": [
        {
          "internalType": "bytes32",
          "name": "",
          "type": "bytes32"
        }
      ],
      "stateMutability": "view",
      "type": "function"
    },
    {
      "inputs": [
        {
          "internalType": "bytes32",
          "name": "role",
          "type": "bytes32"
        },
        {
          "internalType": "address",
          "name": "account",
          "type": "address"
        }
      ],
      "name": "grantRole",
      "outputs": [],
      "stateMutability": "nonpayable",
      "type": "function"
    },
    {
      "inputs": [
        {
          "internalType": "bytes32",
          "name": "role",
          "type": "bytes32"
        },
        {
          "internalType": "address",
          "name": "account",
          "type": "address"
        }
      ],
      "name": "hasRole",
      "outputs": [
        {
          "internalType": "bool",
          "name": "",
          "type": "bool"
        }
      ],
      "stateMutability": "view",
      "type": "function"
    },
    {
      "inputs": [
        {
          "internalType": "address",
          "name": "_default_admin",
          "type": "address"
        },
        {
          "internalType": "contract IAssetIssuerState",
          "name": "_IState",
          "type": "address"
        }
      ],
      "name": "initialize",
      "outputs": [],
      "stateMutability": "nonpayable",
      "type": "function"
    },
    {
      "inputs": [
        {
          "internalType": "address",
          "name": "owner",
          "type": "address"
        },
        {
          "internalType": "address",
          "name": "operator",
          "type": "address"
        }
      ],
      "name": "isApprovedForAll",
      "outputs": [
        {
          "internalType": "bool",
          "name": "",
          "type": "bool"
        }
      ],
      "stateMutability": "view",
      "type": "function"
    },
    {
      "inputs": [
        {
          "internalType": "address",
          "name": "",
          "type": "address"
        }
      ],
      "name": "isWhitelisted",
      "outputs": [
        {
          "internalType": "bool",
          "name": "",
          "type": "bool"
        }
      ],
      "stateMutability": "view",
      "type": "function"
    },
    {
      "inputs": [
        {
          "internalType": "uint256",
          "name": "",
          "type": "uint256"
        }
      ],
      "name": "lastId",
      "outputs": [
        {
          "internalType": "uint256",
          "name": "",
          "type": "uint256"
        }
      ],
      "stateMutability": "view",
      "type": "function"
    },
    {
      "inputs": [
        {
          "internalType": "uint256",
          "name": "_assetId",
          "type": "uint256"
        },
        {
          "internalType": "uint256",
          "name": "_amount",
          "type": "uint256"
        }
      ],
      "name": "mintAsset",
      "outputs": [],
      "stateMutability": "nonpayable",
      "type": "function"
    },
    {
      "inputs": [],
      "name": "name",
      "outputs": [
        {
          "internalType": "string",
          "name": "",
          "type": "string"
        }
      ],
      "stateMutability": "view",
      "type": "function"
    },
    {
      "inputs": [
        {
          "internalType": "uint256",
          "name": "",
          "type": "uint256"
        }
      ],
      "name": "nextId",
      "outputs": [
        {
          "internalType": "uint256",
          "name": "",
          "type": "uint256"
        }
      ],
      "stateMutability": "view",
      "type": "function"
    },
    {
      "inputs": [
        {
          "internalType": "uint256",
          "name": "tokenId",
          "type": "uint256"
        }
      ],
      "name": "ownerOf",
      "outputs": [
        {
          "internalType": "address",
          "name": "",
          "type": "address"
        }
      ],
      "stateMutability": "view",
      "type": "function"
    },
    {
      "inputs": [],
      "name": "pauseHandler",
      "outputs": [],
      "stateMutability": "nonpayable",
      "type": "function"
    },
    {
      "inputs": [],
      "name": "paused",
      "outputs": [
        {
          "internalType": "bool",
          "name": "",
          "type": "bool"
        }
      ],
      "stateMutability": "view",
      "type": "function"
    },
    {
      "inputs": [
        {
          "internalType": "bytes32",
          "name": "role",
          "type": "bytes32"
        },
        {
          "internalType": "address",
          "name": "account",
          "type": "address"
        }
      ],
      "name": "renounceRole",
      "outputs": [],
      "stateMutability": "nonpayable",
      "type": "function"
    },
    {
      "inputs": [
        {
          "internalType": "address",
          "name": "_from",
          "type": "address"
        },
        {
          "internalType": "address",
          "name": "_to",
          "type": "address"
        },
        {
          "internalType": "uint256[]",
          "name": "_tokenIds",
          "type": "uint256[]"
        }
      ],
      "name": "returnUnits",
      "outputs": [],
      "stateMutability": "nonpayable",
      "type": "function"
    },
    {
      "inputs": [
        {
          "internalType": "bytes32",
          "name": "role",
          "type": "bytes32"
        },
        {
          "internalType": "address",
          "name": "account",
          "type": "address"
        }
      ],
      "name": "revokeRole",
      "outputs": [],
      "stateMutability": "nonpayable",
      "type": "function"
    },
    {
      "inputs": [
        {
          "internalType": "address",
          "name": "from",
          "type": "address"
        },
        {
          "internalType": "address",
          "name": "to",
          "type": "address"
        },
        {
          "internalType": "uint256",
          "name": "tokenId",
          "type": "uint256"
        }
      ],
      "name": "safeTransferFrom",
      "outputs": [],
      "stateMutability": "nonpayable",
      "type": "function"
    },
    {
      "inputs": [
        {
          "internalType": "address",
          "name": "from",
          "type": "address"
        },
        {
          "internalType": "address",
          "name": "to",
          "type": "address"
        },
        {
          "internalType": "uint256",
          "name": "tokenId",
          "type": "uint256"
        },
        {
          "internalType": "bytes",
          "name": "data",
          "type": "bytes"
        }
      ],
      "name": "safeTransferFrom",
      "outputs": [],
      "stateMutability": "nonpayable",
      "type": "function"
    },
    {
      "inputs": [
        {
          "internalType": "address",
          "name": "operator",
          "type": "address"
        },
        {
          "internalType": "bool",
          "name": "approved",
          "type": "bool"
        }
      ],
      "name": "setApprovalForAll",
      "outputs": [],
      "stateMutability": "nonpayable",
      "type": "function"
    },
    {
      "inputs": [
        {
          "internalType": "uint256",
          "name": "_assetId",
          "type": "uint256"
        },
        {
          "internalType": "bool",
          "name": "_paused",
          "type": "bool"
        }
      ],
      "name": "setAssetTransfersPaused",
      "outputs": [],
      "stateMutability": "nonpayable",
      "type": "function"
    },
    {
      "inputs": [
        {
          "internalType": "bool",
          "name": "_paused",
          "type": "bool"
        }
      ],
      "name": "setTransfersPaused",
      "outputs": [],
      "stateMutability": "nonpayable",
      "type": "function"
    },
    {
      "inputs": [
        {
          "internalType": "address[]",
          "name": "_users",
          "type": "address[]"
        },
        {
          "internalType": "bool",
          "name": "_isWhitelisted",
          "type": "bool"
        }
      ],
      "name": "setWhitelisted",
      "outputs": [],
      "stateMutability": "nonpayable",
      "type": "function"
    },
    {
      "inputs": [
        {
          "internalType": "bytes4",
          "name": "interfaceId",
          "type": "bytes4"
        }
      ],
      "name": "supportsInterface",
      "outputs": [
        {
          "internalType": "bool",
          "name": "",
          "type": "bool"
        }
      ],
      "stateMutability": "view",
      "type": "function"
    },
    {
      "inputs": [],
      "name": "symbol",
      "outputs": [
        {
          "internalType": "string",
          "name": "",
          "type": "string"
        }
      ],
      "stateMutability": "view",
      "type": "function"
    },
    {
      "inputs": [
        {
          "internalType": "uint256",
          "name": "_tokenId",
          "type": "uint256"
        }
      ],
      "name": "tokenURI",
      "outputs": [
        {
          "internalType": "string",
          "name": "",
          "type": "string"
        }
      ],
      "stateMutability": "view",
      "type": "function"
    },
    {
      "inputs": [
        {
          "internalType": "uint256",
          "name": "",
          "type": "uint256"
        }
      ],
      "name": "totalShareRev",
      "outputs": [
        {
          "internalType": "uint256",
          "name": "",
          "type": "uint256"
        }
      ],
      "stateMutability": "view",
      "type": "function"
    },
    {
      "inputs": [
        {
          "internalType": "address",
          "name": "from",
          "type": "address"
        },
        {
          "internalType": "address",
          "name": "to",
          "type": "address"
        },
        {
          "internalType": "uint256",
          "name": "tokenId",
          "type": "uint256"
        }
      ],
      "name": "transferFrom",
      "outputs": [],
      "stateMutability": "nonpayable",
      "type": "function"
    },
    {
      "inputs": [],
      "name": "unpauseHandler",
      "outputs": [],
      "stateMutability": "nonpayable",
      "type": "function"
    },
    {
      "inputs": [
        {
          "internalType": "uint256",
          "name": "_assetId",
          "type": "uint256"
        },
        {
          "internalType": "uint256",
          "name": "_tokenCap",
          "type": "uint256"
        }
      ],
      "name": "updateAssetCap",
      "outputs": [],
      "stateMutability": "nonpayable",
      "type": "function"
    },
    {
      "inputs": [
        {
          "internalType": "address",
          "name": "_serverPubKey",
          "type": "address"
        }
      ],
      "name": "updateServer",
      "outputs": [],
      "stateMutability": "nonpayable",
      "type": "function"
    }
  ],
  "bytecode": "0x608060405234801561001057600080fd5b50612fa1806100206000396000f3fe608060405234801561001057600080fd5b50600436106102745760003560e01c806386ed411711610151578063b88dab32116100c3578063c87b56dd11610087578063c87b56dd146105cc578063cf0b3a51146105df578063d547741f14610609578063e985e9c51461061c578063f3c4b70414610658578063f7bb00c41461066b57600080fd5b8063b88dab321461056b578063b9a289941461057e578063bfef152014610593578063c58354b7146105a6578063c7830317146105b957600080fd5b8063a22cb46511610115578063a22cb465146104eb578063a86e6676146104fe578063ac2b205514610511578063b22aec5a14610532578063b819fbd414610545578063b88d4fde1461055857600080fd5b806386ed41171461048757806391d14854146104a857806392877ddc146104bb57806395d89b41146104db578063a217fddf146104e357600080fd5b80633691e3ef116101ea578063498e5165116101ae578063498e51651461040f5780635c975abb146104225780636352211e1461042d57806370a082311461044057806376ee32c114610453578063834eb2481461047457600080fd5b80633691e3ef146103ab5780633af32abf146103b357806342842e0e146103d657806344e46dff146103e9578063485cc955146103fc57600080fd5b806323b40c0b1161023c57806323b40c0b1461031957806323b872dd1461033a578063248a9ca31461034d5780632a0acc6a146103705780632f2ff15d1461038557806336568abe1461039857600080fd5b806301ffc9a71461027957806306fdde03146102a1578063081812fc146102b6578063095ea7b3146102e1578063220f27eb146102f6575b600080fd5b61028c61028736600461296f565b610673565b60405190151581526020015b60405180910390f35b6102a9610684565b6040516102989190612c68565b6102c96102c4366004612933565b610716565b6040516001600160a01b039091168152602001610298565b6102f46102ef3660046127eb565b61073d565b005b61028c610304366004612933565b60fe6020526000908152604090205460ff1681565b61032c610327366004612933565b610858565b604051908152602001610298565b6102f4610348366004612702565b610868565b61032c61035b366004612933565b60009081526097602052604090206001015490565b61032c600080516020612f4c83398151915281565b6102f461039336600461294b565b610899565b6102f46103a636600461294b565b6108be565b6102f461093c565b61028c6103c136600461264b565b60fc6020526000908152604090205460ff1681565b6102f46103e4366004612702565b61095f565b6102f46103f73660046128fb565b61097a565b6102f461040a3660046127d9565b61099b565b6102f461041d366004612aa9565b610ac1565b60c95460ff1661028c565b6102c961043b366004612933565b610aea565b61032c61044e36600461264b565b610b4a565b61032c610461366004612933565b6101006020526000908152604090205481565b6102f461048236600461286b565b610bd0565b61032c610495366004612933565b6101036020526000908152604090205481565b61028c6104b636600461294b565b610d40565b61032c6104c9366004612933565b60ff6020526000908152604090205481565b6102a9610d6b565b61032c600081565b6102f46104f93660046127ac565b610d7a565b6102f461050c36600461269f565b610d85565b61032c61051f366004612933565b6101026020526000908152604090205481565b6102f4610540366004612ad6565b610db0565b6102f4610553366004612a64565b610e21565b6102f4610566366004612742565b610e43565b6102f4610579366004612a88565b610e75565b61032c600080516020612f2c83398151915281565b6102f46105a1366004612a1a565b610e98565b6102f46105b4366004612a88565b610eac565b6102f46105c736600461264b565b610ece565b6102a96105da366004612933565b610f0a565b6102c96105ed366004612933565b610101602052600090815260409020546001600160a01b031681565b6102f461061736600461294b565b61100f565b61028c61062a366004612667565b6001600160a01b039182166000908152606a6020908152604080832093909416825291909152205460ff1690565b6102f4610666366004612816565b611034565b6102f4611057565b600061067e82611077565b92915050565b60606065805461069390612e70565b80601f01602080910402602001604051908101604052809291908181526020018280546106bf90612e70565b801561070c5780601f106106e15761010080835404028352916020019161070c565b820191906000526020600020905b8154815290600101906020018083116106ef57829003601f168201915b5050505050905090565b60006107218261109c565b506000908152606960205260409020546001600160a01b031690565b600061074882610aea565b9050806001600160a01b0316836001600160a01b031614156107bb5760405162461bcd60e51b815260206004820152602160248201527f4552433732313a20617070726f76616c20746f2063757272656e74206f776e656044820152603960f91b60648201526084015b60405180910390fd5b336001600160a01b03821614806107d757506107d7813361062a565b6108495760405162461bcd60e51b815260206004820152603e60248201527f4552433732313a20617070726f76652063616c6c6572206973206e6f7420746f60448201527f6b656e206f776e6572206e6f7220617070726f76656420666f7220616c6c000060648201526084016107b2565b61085383836110fb565b505050565b600061067e633b9aca0083612dd7565b6108723382611169565b61088e5760405162461bcd60e51b81526004016107b290612d18565b6108538383836111e8565b6000828152609760205260409020600101546108b48161138f565b6108538383611399565b6001600160a01b038116331461092e5760405162461bcd60e51b815260206004820152602f60248201527f416363657373436f6e74726f6c3a2063616e206f6e6c792072656e6f756e636560448201526e103937b632b9903337b91039b2b63360891b60648201526084016107b2565b610938828261141f565b5050565b600080516020612f4c8339815191526109548161138f565b61095c611486565b50565b61085383838360405180602001604052806000815250610e43565b600080516020612f4c8339815191526109928161138f565b610938826114e0565b600054610100900460ff16158080156109bb5750600054600160ff909116105b806109d55750303b1580156109d5575060005460ff166001145b610a385760405162461bcd60e51b815260206004820152602e60248201527f496e697469616c697a61626c653a20636f6e747261637420697320616c72656160448201526d191e481a5b9a5d1a585b1a5e995960921b60648201526084016107b2565b6000805460ff191660011790558015610a5b576000805461ff0019166101001790555b610a6361150c565b610a6e600084611399565b610a7782611535565b8015610853576000805461ff0019169055604051600181527f7f26b83ff96e1f2b6a682f133852f6798a09c465da95921460cefb38474024989060200160405180910390a1505050565b600080516020612f4c833981519152610ad98161138f565b610ae484848461157f565b50505050565b6000818152606760205260408120546001600160a01b03168061067e5760405162461bcd60e51b8152602060048201526018602482015277115490cdcc8c4e881a5b9d985b1a59081d1bdad95b88125160421b60448201526064016107b2565b60006001600160a01b038216610bb45760405162461bcd60e51b815260206004820152602960248201527f4552433732313a2061646472657373207a65726f206973206e6f7420612076616044820152683634b21037bbb732b960b91b60648201526084016107b2565b506001600160a01b031660009081526068602052604090205490565b610bd8611654565b600033308888604051602001610bf19493929190612bd7565b60408051601f19818403018152908290526104ec549092506001600160a01b031690600190610c269088908590602001612b33565b60408051601f198184030181528282528051602091820120600084529083018083525260ff881690820152606081018690526080810185905260a0016020604051602081039080840390855afa158015610c84573d6000803e3d6000fd5b505050602060405103516001600160a01b031614610cd85760405162461bcd60e51b8152602060048201526011602482015270496e76616c6964207369676e617475726560781b60448201526064016107b2565b6000610d0a88886000818110610cfe57634e487b7160e01b600052603260045260246000fd5b90506020020135610858565b60008181526101026020526040902054909150610d29828a8a8461169a565b610d3530338b8b61176b565b505050505050505050565b60009182526097602090815260408084206001600160a01b0393909316845291905290205460ff1690565b60606066805461069390612e70565b6109383383836117ba565b600080516020612f4c833981519152610d9d8161138f565b610da98585858561176b565b5050505050565b600080516020612f4c833981519152610dc88161138f565b81610dd38486612dd7565b14610e155760405162461bcd60e51b8152602060048201526012602482015271496e76616c696420696e707574206461746160701b60448201526064016107b2565b610da933868685611889565b600080516020612f4c833981519152610e398161138f565b610853838361195f565b610e4d3383611169565b610e695760405162461bcd60e51b81526004016107b290612d18565b610ae484848484611998565b600080516020612f4c833981519152610e8d8161138f565b6108538383306119cb565b610ea0611654565b61085333848484611aa4565b600080516020612f4c833981519152610ec48161138f565b6108538383611d6f565b600080516020612f4c833981519152610ee68161138f565b506104ec80546001600160a01b0319166001600160a01b0392909216919091179055565b6000818152606760205260409020546060906001600160a01b0316610f895760405162461bcd60e51b815260206004820152602f60248201527f4552433732314d657461646174613a2055524920717565727920666f72206e6f60448201526e3732bc34b9ba32b73a103a37b5b2b760891b60648201526084016107b2565b60fb5460405163d8bcda2760e01b8152306004820152602481018490526001600160a01b039091169063d8bcda279060440160006040518083038186803b158015610fd357600080fd5b505afa158015610fe7573d6000803e3d6000fd5b505050506040513d6000823e601f3d908101601f1916820160405261067e91908101906129a7565b60008281526097602052604090206001015461102a8161138f565b610853838361141f565b600080516020612f4c83398151915261104c8161138f565b610ae4848484611e44565b600080516020612f4c83398151915261106f8161138f565b61095c611edc565b60006001600160e01b03198216637965db0b60e01b148061067e575061067e82611f15565b6000818152606760205260409020546001600160a01b031661095c5760405162461bcd60e51b8152602060048201526018602482015277115490cdcc8c4e881a5b9d985b1a59081d1bdad95b88125160421b60448201526064016107b2565b600081815260696020526040902080546001600160a01b0319166001600160a01b038416908117909155819061113082610aea565b6001600160a01b03167f8c5be1e5ebec7d5bd14f71427d1e84f3dd0314c0f7b2291e5b200ac8c7c3b92560405160405180910390a45050565b60008061117583610aea565b9050806001600160a01b0316846001600160a01b031614806111bc57506001600160a01b038082166000908152606a602090815260408083209388168352929052205460ff165b806111e05750836001600160a01b03166111d584610716565b6001600160a01b0316145b949350505050565b826001600160a01b03166111fb82610aea565b6001600160a01b03161461125f5760405162461bcd60e51b815260206004820152602560248201527f4552433732313a207472616e736665722066726f6d20696e636f72726563742060448201526437bbb732b960d91b60648201526084016107b2565b6001600160a01b0382166112c15760405162461bcd60e51b8152602060048201526024808201527f4552433732313a207472616e7366657220746f20746865207a65726f206164646044820152637265737360e01b60648201526084016107b2565b6112cc838383611f65565b6112d76000826110fb565b6001600160a01b0383166000908152606860205260408120805460019290611300908490612e16565b90915550506001600160a01b038216600090815260686020526040812080546001929061132e908490612dbf565b909155505060008181526067602052604080822080546001600160a01b0319166001600160a01b0386811691821790925591518493918716917fddf252ad1be2c89b69c2b068fc378daa952ba7f163c4a11628f55a4df523b3ef91a4505050565b61095c81336120bf565b6113a38282610d40565b6109385760008281526097602090815260408083206001600160a01b03851684529091529020805460ff191660011790556113db3390565b6001600160a01b0316816001600160a01b0316837f2f8788117e7eff1d82e926ec794901d17c78024a50270940304540a733656f0d60405160405180910390a45050565b6114298282610d40565b156109385760008281526097602090815260408083206001600160a01b0385168085529252808320805460ff1916905551339285917ff6391f5c32d9c69d2a47ea670b442974b53935d1edc7fd64eb21e047a839171b9190a45050565b61148e611654565b60c9805460ff191660011790557f62e78cea01bee320cd4e420270b5ea74000d11b0c9f74754ebdbfc544b05a2586114c33390565b6040516001600160a01b03909116815260200160405180910390a1565b600080516020612f2c8339815191526114f88161138f565b5060fd805460ff1916911515919091179055565b600054610100900460ff166115335760405162461bcd60e51b81526004016107b290612ccd565b565b600054610100900460ff1661155c5760405162461bcd60e51b81526004016107b290612ccd565b6104ed80546001600160a01b0319166001600160a01b0392909216919091179055565b600061158a8161138f565b600084815260ff6020526040902054156115dd5760405162461bcd60e51b8152602060048201526014602482015273417373657420616c72656164792065786973747360601b60448201526064016107b2565b60008481526101016020526040902080546001600160a01b0319166001600160a01b03841617905561161384633b9aca00612df7565b600085815260ff60205260409020558261163185633b9aca00612df7565b61163b9190612dbf565b6000948552610100602052604090942093909355505050565b60c95460ff16156115335760405162461bcd60e51b815260206004820152601060248201526f14185d5cd8589b194e881c185d5cd95960821b60448201526064016107b2565b8160005b8181101561176357856116ca868684818110610cfe57634e487b7160e01b600052603260045260246000fd5b146117115760405162461bcd60e51b8152602060048201526017602482015276125b9d985b1a59081d1bdad95b88199bdc88185cdcd95d604a1b60448201526064016107b2565b82610103600087878581811061173757634e487b7160e01b600052603260045260246000fd5b90506020020135815260200190815260200160002081905550808061175b90612eab565b91505061169e565b505050505050565b8060005b81811015611763576117a8868686868581811061179c57634e487b7160e01b600052603260045260246000fd5b905060200201356111e8565b806117b281612eab565b91505061176f565b816001600160a01b0316836001600160a01b0316141561181c5760405162461bcd60e51b815260206004820152601960248201527f4552433732313a20617070726f766520746f2063616c6c65720000000000000060448201526064016107b2565b6001600160a01b038381166000818152606a6020908152604080832094871680845294825291829020805460ff191686151590811790915591519182527f17307eab39ab6107e8899845ad3d59bd9653f200f220920489ca2b5937696c31910160405180910390a3505050565b600080516020612f2c8339815191526118a18161138f565b60008481526101026020526040812080548492906118c0908490612dbf565b909155505060008481526101016020526040908190205490516323b872dd60e01b81526001600160a01b03878116600483015230602483015260448201869052909116906323b872dd90606401602060405180830381600087803b15801561192757600080fd5b505af115801561193b573d6000803e3d6000fd5b505050506040513d601f19601f820116820180604052508101906117639190612917565b600080516020612f2c8339815191526119778161138f565b50600091825260fe6020526040909120805460ff1916911515919091179055565b6119a38484846111e8565b6119af84848484612123565b610ae45760405162461bcd60e51b81526004016107b290612c7b565b600080516020612f2c8339815191526119e38161138f565b6000848152610100602090815260408083205460ff90925290912054611a0a908590612dbf565b1115611a4d5760405162461bcd60e51b8152602060048201526012602482015271082dadeeadce840caf0c6cacac8e640dac2f60731b60448201526064016107b2565b60005b83811015610da957600085815260ff6020526040902054611a72908490612230565b600085815260ff60205260408120805491611a8c83612eab565b91905055508080611a9c90612eab565b915050611a50565b600080516020612f2c833981519152611abc8161138f565b6001600160a01b038516600090815260fc602052604090205460ff16611b245760405162461bcd60e51b815260206004820152601860248201527f4f776e6572206973206e6f742077686974656c6973746564000000000000000060448201526064016107b2565b600084815261010260205260408120548390825b82811015611cd457886001600160a01b0316611b79888884818110611b6d57634e487b7160e01b600052603260045260246000fd5b90506020020135610aea565b6001600160a01b031614611bc55760405162461bcd60e51b815260206004820152601360248201527224b73b30b634b2103a37b5b2b71037bbb732b960691b60448201526064016107b2565b87611be9888884818110610cfe57634e487b7160e01b600052603260045260246000fd5b14611c305760405162461bcd60e51b8152602060048201526017602482015276125b9d985b1a59081d1bdad95b88199bdc88185cdcd95d604a1b60448201526064016107b2565b6101036000888884818110611c5557634e487b7160e01b600052603260045260246000fd5b9050602002013581526020019081526020016000205482611c769190612e16565b611c809085612dbf565b9350816101036000898985818110611ca857634e487b7160e01b600052603260045260246000fd5b905060200201358152602001908152602001600020819055508080611ccc90612eab565b915050611b38565b5060008781526101016020526040908190205490516323b872dd60e01b81523060048201526001600160a01b038a8116602483015260448201869052909116906323b872dd90606401602060405180830381600087803b158015611d3757600080fd5b505af1158015611d4b573d6000803e3d6000fd5b505050506040513d601f19601f82011682018060405250810190610d359190612917565b600080516020612f2c833981519152611d878161138f565b81611d9684633b9aca00612df7565b611da09190612dbf565b600084815260ff60205260409020541115611e135760405162461bcd60e51b815260206004820152602d60248201527f4173736574206361702063616e206e6f74206265206c6f776572207468616e2060448201526c1b5a5b9d195908185b5bdd5b9d609a1b60648201526084016107b2565b81611e2284633b9aca00612df7565b611e2c9190612dbf565b60009384526101006020526040909320929092555050565b600080516020612f2c833981519152611e5c8161138f565b8260005b81811015611763578360fc6000888885818110611e8d57634e487b7160e01b600052603260045260246000fd5b9050602002016020810190611ea2919061264b565b6001600160a01b031681526020810191909152604001600020805460ff191691151591909117905580611ed481612eab565b915050611e60565b611ee461237e565b60c9805460ff191690557f5db9ee0a495bf2e6ff9c91a7834c1ba4fdd244a5e8aa4e537bd38aeae4b073aa336114c3565b60006001600160e01b031982166380ac58cd60e01b1480611f4657506001600160e01b03198216635b5e139f60e01b145b8061067e57506301ffc9a760e01b6001600160e01b031983161461067e565b6001600160a01b0383161580611f8357506001600160a01b03831630145b6108535760fd5460ff1615611fda5760405162461bcd60e51b815260206004820152601e60248201527f5472616e7366657273206172652063757272656e746c7920706175736564000060448201526064016107b2565b60fe6000611fe783610858565b815260208101919091526040016000205460ff161561203a5760405162461bcd60e51b815260206004820152600f60248201526e105cdcd95d081a5cc81c185d5cd959608a1b60448201526064016107b2565b6001600160a01b038316600090815260fc602052604090205460ff16801561207a57506001600160a01b038216600090815260fc602052604090205460ff165b6108535760405162461bcd60e51b815260206004820152601660248201527524b73b30b634b2103a37b5b2b7103a3930b739b332b960511b60448201526064016107b2565b6120c98282610d40565b610938576120e1816001600160a01b031660146123c7565b6120ec8360206123c7565b6040516020016120fd929190612b62565b60408051601f198184030181529082905262461bcd60e51b82526107b291600401612c68565b60006001600160a01b0384163b1561222557604051630a85bd0160e11b81526001600160a01b0385169063150b7a0290612167903390899088908890600401612c2b565b602060405180830381600087803b15801561218157600080fd5b505af19250505080156121b1575060408051601f3d908101601f191682019092526121ae9181019061298b565b60015b61220b573d8080156121df576040519150601f19603f3d011682016040523d82523d6000602084013e6121e4565b606091505b5080516122035760405162461bcd60e51b81526004016107b290612c7b565b805181602001fd5b6001600160e01b031916630a85bd0160e11b1490506111e0565b506001949350505050565b6001600160a01b0382166122865760405162461bcd60e51b815260206004820181905260248201527f4552433732313a206d696e7420746f20746865207a65726f206164647265737360448201526064016107b2565b6000818152606760205260409020546001600160a01b0316156122eb5760405162461bcd60e51b815260206004820152601c60248201527f4552433732313a20746f6b656e20616c7265616479206d696e7465640000000060448201526064016107b2565b6122f760008383611f65565b6001600160a01b0382166000908152606860205260408120805460019290612320908490612dbf565b909155505060008181526067602052604080822080546001600160a01b0319166001600160a01b03861690811790915590518392907fddf252ad1be2c89b69c2b068fc378daa952ba7f163c4a11628f55a4df523b3ef908290a45050565b60c95460ff166115335760405162461bcd60e51b815260206004820152601460248201527314185d5cd8589b194e881b9bdd081c185d5cd95960621b60448201526064016107b2565b606060006123d6836002612df7565b6123e1906002612dbf565b67ffffffffffffffff81111561240757634e487b7160e01b600052604160045260246000fd5b6040519080825280601f01601f191660200182016040528015612431576020820181803683370190505b509050600360fc1b8160008151811061245a57634e487b7160e01b600052603260045260246000fd5b60200101906001600160f81b031916908160001a905350600f60fb1b8160018151811061249757634e487b7160e01b600052603260045260246000fd5b60200101906001600160f81b031916908160001a90535060006124bb846002612df7565b6124c6906001612dbf565b90505b600181111561255a576f181899199a1a9b1b9c1cb0b131b232b360811b85600f166010811061250857634e487b7160e01b600052603260045260246000fd5b1a60f81b82828151811061252c57634e487b7160e01b600052603260045260246000fd5b60200101906001600160f81b031916908160001a90535060049490941c9361255381612e59565b90506124c9565b5083156125a95760405162461bcd60e51b815260206004820181905260248201527f537472696e67733a20686578206c656e67746820696e73756666696369656e7460448201526064016107b2565b9392505050565b60008083601f8401126125c1578081fd5b50813567ffffffffffffffff8111156125d8578182fd5b6020830191508360208260051b85010111156125f357600080fd5b9250929050565b600082601f83011261260a578081fd5b813561261d61261882612d97565b612d66565b818152846020838601011115612631578283fd5b816020850160208301379081016020019190915292915050565b60006020828403121561265c578081fd5b81356125a981612ef2565b60008060408385031215612679578081fd5b823561268481612ef2565b9150602083013561269481612ef2565b809150509250929050565b600080600080606085870312156126b4578182fd5b84356126bf81612ef2565b935060208501356126cf81612ef2565b9250604085013567ffffffffffffffff8111156126ea578283fd5b6126f6878288016125b0565b95989497509550505050565b600080600060608486031215612716578283fd5b833561272181612ef2565b9250602084013561273181612ef2565b929592945050506040919091013590565b60008060008060808587031215612757578384fd5b843561276281612ef2565b9350602085013561277281612ef2565b925060408501359150606085013567ffffffffffffffff811115612794578182fd5b6127a0878288016125fa565b91505092959194509250565b600080604083850312156127be578182fd5b82356127c981612ef2565b9150602083013561269481612f07565b60008060408385031215612679578182fd5b600080604083850312156127fd578182fd5b823561280881612ef2565b946020939093013593505050565b60008060006040848603121561282a578081fd5b833567ffffffffffffffff811115612840578182fd5b61284c868287016125b0565b909450925050602084013561286081612f07565b809150509250925092565b60008060008060008060a08789031215612883578384fd5b863567ffffffffffffffff8082111561289a578586fd5b6128a68a838b016125b0565b909850965060208901359150808211156128be578586fd5b506128cb89828a016125fa565b945050604087013560ff811681146128e1578283fd5b959894975092956060810135946080909101359350915050565b60006020828403121561290c578081fd5b81356125a981612f07565b600060208284031215612928578081fd5b81516125a981612f07565b600060208284031215612944578081fd5b5035919050565b6000806040838503121561295d578182fd5b82359150602083013561269481612ef2565b600060208284031215612980578081fd5b81356125a981612f15565b60006020828403121561299c578081fd5b81516125a981612f15565b6000602082840312156129b8578081fd5b815167ffffffffffffffff8111156129ce578182fd5b8201601f810184136129de578182fd5b80516129ec61261882612d97565b818152856020838501011115612a00578384fd5b612a11826020830160208601612e2d565b95945050505050565b600080600060408486031215612a2e578081fd5b83359250602084013567ffffffffffffffff811115612a4b578182fd5b612a57868287016125b0565b9497909650939450505050565b60008060408385031215612a76578182fd5b82359150602083013561269481612f07565b60008060408385031215612a9a578182fd5b50508035926020909101359150565b600080600060608486031215612abd578081fd5b8335925060208401359150604084013561286081612ef2565b60008060008060808587031215612aeb578182fd5b5050823594602084013594506040840135936060013592509050565b60008151808452612b1f816020860160208601612e2d565b601f01601f19169290920160200192915050565b60008351612b45818460208801612e2d565b835190830190612b59818360208801612e2d565b01949350505050565b7f416363657373436f6e74726f6c3a206163636f756e7420000000000000000000815260008351612b9a816017850160208801612e2d565b7001034b99036b4b9b9b4b733903937b6329607d1b6017918401918201528351612bcb816028840160208801612e2d565b01602801949350505050565b6001600160a01b03858116825284166020820152606060408201819052810182905260006001600160fb1b03831115612c0e578081fd5b8260051b8085608085013791909101608001908152949350505050565b6001600160a01b0385811682528416602082015260408101839052608060608201819052600090612c5e90830184612b07565b9695505050505050565b6020815260006125a96020830184612b07565b60208082526032908201527f4552433732313a207472616e7366657220746f206e6f6e20455243373231526560408201527131b2b4bb32b91034b6b83632b6b2b73a32b960711b606082015260800190565b6020808252602b908201527f496e697469616c697a61626c653a20636f6e7472616374206973206e6f74206960408201526a6e697469616c697a696e6760a81b606082015260800190565b6020808252602e908201527f4552433732313a2063616c6c6572206973206e6f7420746f6b656e206f776e6560408201526d1c881b9bdc88185c1c1c9bdd995960921b606082015260800190565b604051601f8201601f1916810167ffffffffffffffff81118282101715612d8f57612d8f612edc565b604052919050565b600067ffffffffffffffff821115612db157612db1612edc565b50601f01601f191660200190565b60008219821115612dd257612dd2612ec6565b500190565b600082612df257634e487b7160e01b81526012600452602481fd5b500490565b6000816000190483118215151615612e1157612e11612ec6565b500290565b600082821015612e2857612e28612ec6565b500390565b60005b83811015612e48578181015183820152602001612e30565b83811115610ae45750506000910152565b600081612e6857612e68612ec6565b506000190190565b600181811c90821680612e8457607f821691505b60208210811415612ea557634e487b7160e01b600052602260045260246000fd5b50919050565b6000600019821415612ebf57612ebf612ec6565b5060010190565b634e487b7160e01b600052601160045260246000fd5b634e487b7160e01b600052604160045260246000fd5b6001600160a01b038116811461095c57600080fd5b801515811461095c57600080fd5b6001600160e01b03198116811461095c57600080fdfef40ec076ff2e3a403e1c18632267861d39085e7f359ca5665846f335632cf819df8b4c520ffe197c5343c6f5aec59570151ef9a492f2c624fd45ddde6135ec42a2646970667358221220a80b5d8b0040da8457ceafb5f25a6f9e9a33373ed8cfbb94fd67da8cc68f17d764736f6c63430008040033",
  "linkReferences": {},
  "deployedLinkReferences": {}
}