{
  "_format": "hh-sol-artifact-1",
  "contractName": "AssetProxy",
  "sourceName": "contracts/AssetProxy.sol",
  "abi": [
    {
      "anonymous": false,
      "inputs": [
        {
          "indexed": true,
          "internalType": "address",
          "name": "owner",
          "type": "address"
        },
        {
          "indexed": true,
          "internalType": "address",
          "name": "approved",
          "type": "address"
        },
        {
          "indexed": true,
          "internalType": "uint256",
          "name": "tokenId",
          "type": "uint256"
        }
      ],
      "name": "Approval",
      "type": "event"
    },
    {
      "anonymous": false,
      "inputs": [
        {
          "indexed": true,
          "internalType": "address",
          "name": "owner",
          "type": "address"
        },
        {
          "indexed": true,
          "internalType": "address",
          "name": "operator",
          "type": "address"
        },
        {
          "indexed": false,
          "internalType": "bool",
          "name": "approved",
          "type": "bool"
        }
      ],
      "name": "ApprovalForAll",
      "type": "event"
    },
    {
      "anonymous": false,
      "inputs": [
        {
          "indexed": false,
          "internalType": "uint8",
          "name": "version",
          "type": "uint8"
        }
      ],
      "name": "Initialized",
      "type": "event"
    },
    {
      "anonymous": false,
      "inputs": [
        {
          "indexed": true,
          "internalType": "bytes32",
          "name": "role",
          "type": "bytes32"
        },
        {
          "indexed": true,
          "internalType": "bytes32",
          "name": "previousAdminRole",
          "type": "bytes32"
        },
        {
          "indexed": true,
          "internalType": "bytes32",
          "name": "newAdminRole",
          "type": "bytes32"
        }
      ],
      "name": "RoleAdminChanged",
      "type": "event"
    },
    {
      "anonymous": false,
      "inputs": [
        {
          "indexed": true,
          "internalType": "bytes32",
          "name": "role",
          "type": "bytes32"
        },
        {
          "indexed": true,
          "internalType": "address",
          "name": "account",
          "type": "address"
        },
        {
          "indexed": true,
          "internalType": "address",
          "name": "sender",
          "type": "address"
        }
      ],
      "name": "RoleGranted",
      "type": "event"
    },
    {
      "anonymous": false,
      "inputs": [
        {
          "indexed": true,
          "internalType": "bytes32",
          "name": "role",
          "type": "bytes32"
        },
        {
          "indexed": true,
          "internalType": "address",
          "name": "account",
          "type": "address"
        },
        {
          "indexed": true,
          "internalType": "address",
          "name": "sender",
          "type": "address"
        }
      ],
      "name": "RoleRevoked",
      "type": "event"
    },
    {
      "anonymous": false,
      "inputs": [
        {
          "indexed": true,
          "internalType": "address",
          "name": "from",
          "type": "address"
        },
        {
          "indexed": true,
          "internalType": "address",
          "name": "to",
          "type": "address"
        },
        {
          "indexed": true,
          "internalType": "uint256",
          "name": "tokenId",
          "type": "uint256"
        }
      ],
      "name": "Transfer",
      "type": "event"
    },
    {
      "inputs": [],
      "name": "ADMIN",
      "outputs": [
        {
          "internalType": "bytes32",
          "name": "",
          "type": "bytes32"
        }
      ],
      "stateMutability": "view",
      "type": "function"
    },
    {
      "inputs": [],
      "name": "DEFAULT_ADMIN_ROLE",
      "outputs": [
        {
          "internalType": "bytes32",
          "name": "",
          "type": "bytes32"
        }
      ],
      "stateMutability": "view",
      "type": "function"
    },
    {
      "inputs": [],
      "name": "HANDLER",
      "outputs": [
        {
          "internalType": "bytes32",
          "name": "",
          "type": "bytes32"
        }
      ],
      "stateMutability": "view",
      "type": "function"
    },
    {
      "inputs": [
        {
          "internalType": "uint256",
          "name": "_tokenId",
          "type": "uint256"
        }
      ],
      "name": "_getTokenAsset",
      "outputs": [
        {
          "internalType": "uint256",
          "name": "",
          "type": "uint256"
        }
      ],
      "stateMutability": "pure",
      "type": "function"
    },
    {
      "inputs": [
        {
          "internalType": "uint256",
          "name": "_assetId",
          "type": "uint256"
        },
        {
          "internalType": "uint256",
          "name": "_totalRev",
          "type": "uint256"
        },
        {
          "internalType": "uint256",
          "name": "_unitsCount",
          "type": "uint256"
        },
        {
          "internalType": "uint256",
          "name": "_amountPerShare",
          "type": "uint256"
        }
      ],
      "name": "addRevenue",
      "outputs": [],
      "stateMutability": "nonpayable",
      "type": "function"
    },
    {
      "inputs": [
        {
          "internalType": "address",
          "name": "to",
          "type": "address"
        },
        {
          "internalType": "uint256",
          "name": "tokenId",
          "type": "uint256"
        }
      ],
      "name": "approve",
      "outputs": [],
      "stateMutability": "nonpayable",
      "type": "function"
    },
    {
      "inputs": [
        {
          "internalType": "uint256",
          "name": "",
          "type": "uint256"
        }
      ],
      "name": "assetPaused",
      "outputs": [
        {
          "internalType": "bool",
          "name": "",
          "type": "bool"
        }
      ],
      "stateMutability": "view",
      "type": "function"
    },
    {
      "inputs": [
        {
          "internalType": "uint256",
          "name": "",
          "type": "uint256"
        }
      ],
      "name": "assetRevToken",
      "outputs": [
        {
          "internalType": "contract IERC20Upgradeable",
          "name": "",
          "type": "address"
        }
      ],
      "stateMutability": "view",
      "type": "function"
    },
    {
      "inputs": [
        {
          "internalType": "address",
          "name": "owner",
          "type": "address"
        }
      ],
      "name": "balanceOf",
      "outputs": [
        {
          "internalType": "uint256",
          "name": "",
          "type": "uint256"
        }
      ],
      "stateMutability": "view",
      "type": "function"
    },
    {
      "inputs": [
        {
          "internalType": "uint256",
          "name": "_assetId",
          "type": "uint256"
        },
        {
          "internalType": "uint256[]",
          "name": "_tokenIds",
          "type": "uint256[]"
        }
      ],
      "name": "claimRevenue",
      "outputs": [],
      "stateMutability": "nonpayable",
      "type": "function"
    },
    {
      "inputs": [
        {
          "internalType": "uint256[]",
          "name": "_tokenIds",
          "type": "uint256[]"
        },
        {
          "internalType": "bytes",
          "name": "_prefix",
          "type": "bytes"
        },
        {
          "internalType": "uint8",
          "name": "_v",
          "type": "uint8"
        },
        {
          "internalType": "bytes32",
          "name": "_r",
          "type": "bytes32"
        },
        {
          "internalType": "bytes32",
          "name": "_s",
          "type": "bytes32"
        }
      ],
      "name": "claimUnits",
      "outputs": [],
      "stateMutability": "nonpayable",
      "type": "function"
    },
    {
      "inputs": [
        {
          "internalType": "uint256",
          "name": "",
          "type": "uint256"
        }
      ],
      "name": "claimedRev",
      "outputs": [
        {
          "internalType": "uint256",
          "name": "",
          "type": "uint256"
        }
      ],
      "stateMutability": "view",
      "type": "function"
    },
    {
      "inputs": [
        {
          "internalType": "uint256",
          "name": "_assetId",
          "type": "uint256"
        },
        {
          "internalType": "uint256",
          "name": "_tokenCap",
          "type": "uint256"
        },
        {
          "internalType": "contract IERC20Upgradeable",
          "name": "_revToken",
          "type": "address"
        }
      ],
      "name": "createAsset",
      "outputs": [],
      "stateMutability": "nonpayable",
      "type": "function"
    },
    {
      "inputs": [
        {
          "internalType": "uint256",
          "name": "tokenId",
          "type": "uint256"
        }
      ],
      "name": "getApproved",
      "outputs": [
        {
          "internalType": "address",
          "name": "",
          "type": "address"
        }
      ],
      "stateMutability": "view",
      "type": "function"
    },
    {
      "inputs": [
        {
          "internalType": "bytes32",
          "name": "role",
          "type": "bytes32"
        }
      ],
      "name": "getRoleAdmin",
      "outputs": [
        {
          "internalType": "bytes32",
          "name": "",
          "type": "bytes32"
        }
      ],
      "stateMutability": "view",
      "type": "function"
    },
    {
      "inputs": [
        {
          "internalType": "bytes32",
          "name": "role",
          "type": "bytes32"
        },
        {
          "internalType": "address",
          "name": "account",
          "type": "address"
        }
      ],
      "name": "grantRole",
      "outputs": [],
      "stateMutability": "nonpayable",
      "type": "function"
    },
    {
      "inputs": [
        {
          "internalType": "bytes32",
          "name": "role",
          "type": "bytes32"
        },
        {
          "internalType": "address",
          "name": "account",
          "type": "address"
        }
      ],
      "name": "hasRole",
      "outputs": [
        {
          "internalType": "bool",
          "name": "",
          "type": "bool"
        }
      ],
      "stateMutability": "view",
      "type": "function"
    },
    {
      "inputs": [
        {
          "internalType": "address",
          "name": "_default_admin",
          "type": "address"
        },
        {
          "internalType": "contract IAssetIssuerState",
          "name": "_IState",
          "type": "address"
        }
      ],
      "name": "initialize",
      "outputs": [],
      "stateMutability": "nonpayable",
      "type": "function"
    },
    {
      "inputs": [
        {
          "internalType": "address",
          "name": "owner",
          "type": "address"
        },
        {
          "internalType": "address",
          "name": "operator",
          "type": "address"
        }
      ],
      "name": "isApprovedForAll",
      "outputs": [
        {
          "internalType": "bool",
          "name": "",
          "type": "bool"
        }
      ],
      "stateMutability": "view",
      "type": "function"
    },
    {
      "inputs": [
        {
          "internalType": "address",
          "name": "",
          "type": "address"
        }
      ],
      "name": "isWhitelisted",
      "outputs": [
        {
          "internalType": "bool",
          "name": "",
          "type": "bool"
        }
      ],
      "stateMutability": "view",
      "type": "function"
    },
    {
      "inputs": [
        {
          "internalType": "uint256",
          "name": "",
          "type": "uint256"
        }
      ],
      "name": "lastId",
      "outputs": [
        {
          "internalType": "uint256",
          "name": "",
          "type": "uint256"
        }
      ],
      "stateMutability": "view",
      "type": "function"
    },
    {
      "inputs": [
        {
          "internalType": "uint256",
          "name": "_assetId",
          "type": "uint256"
        },
        {
          "internalType": "uint256",
          "name": "_amount",
          "type": "uint256"
        }
      ],
      "name": "mintAsset",
      "outputs": [],
      "stateMutability": "nonpayable",
      "type": "function"
    },
    {
      "inputs": [],
      "name": "name",
      "outputs": [
        {
          "internalType": "string",
          "name": "",
          "type": "string"
        }
      ],
      "stateMutability": "view",
      "type": "function"
    },
    {
      "inputs": [
        {
          "internalType": "uint256",
          "name": "",
          "type": "uint256"
        }
      ],
      "name": "nextId",
      "outputs": [
        {
          "internalType": "uint256",
          "name": "",
          "type": "uint256"
        }
      ],
      "stateMutability": "view",
      "type": "function"
    },
    {
      "inputs": [
        {
          "internalType": "uint256",
          "name": "tokenId",
          "type": "uint256"
        }
      ],
      "name": "ownerOf",
      "outputs": [
        {
          "internalType": "address",
          "name": "",
          "type": "address"
        }
      ],
      "stateMutability": "view",
      "type": "function"
    },
    {
      "inputs": [
        {
          "internalType": "bool",
          "name": "_pause",
          "type": "bool"
        }
      ],
      "name": "pauseHandler",
      "outputs": [],
      "stateMutability": "nonpayable",
      "type": "function"
    },
    {
      "inputs": [
        {
          "internalType": "bytes32",
          "name": "role",
          "type": "bytes32"
        },
        {
          "internalType": "address",
          "name": "account",
          "type": "address"
        }
      ],
      "name": "renounceRole",
      "outputs": [],
      "stateMutability": "nonpayable",
      "type": "function"
    },
    {
      "inputs": [
        {
          "internalType": "address",
          "name": "_from",
          "type": "address"
        },
        {
          "internalType": "address",
          "name": "_to",
          "type": "address"
        },
        {
          "internalType": "uint256[]",
          "name": "_tokenIds",
          "type": "uint256[]"
        }
      ],
      "name": "returnUnits",
      "outputs": [],
      "stateMutability": "nonpayable",
      "type": "function"
    },
    {
      "inputs": [
        {
          "internalType": "bytes32",
          "name": "role",
          "type": "bytes32"
        },
        {
          "internalType": "address",
          "name": "account",
          "type": "address"
        }
      ],
      "name": "revokeRole",
      "outputs": [],
      "stateMutability": "nonpayable",
      "type": "function"
    },
    {
      "inputs": [
        {
          "internalType": "address",
          "name": "from",
          "type": "address"
        },
        {
          "internalType": "address",
          "name": "to",
          "type": "address"
        },
        {
          "internalType": "uint256",
          "name": "tokenId",
          "type": "uint256"
        }
      ],
      "name": "safeTransferFrom",
      "outputs": [],
      "stateMutability": "nonpayable",
      "type": "function"
    },
    {
      "inputs": [
        {
          "internalType": "address",
          "name": "from",
          "type": "address"
        },
        {
          "internalType": "address",
          "name": "to",
          "type": "address"
        },
        {
          "internalType": "uint256",
          "name": "tokenId",
          "type": "uint256"
        },
        {
          "internalType": "bytes",
          "name": "data",
          "type": "bytes"
        }
      ],
      "name": "safeTransferFrom",
      "outputs": [],
      "stateMutability": "nonpayable",
      "type": "function"
    },
    {
      "inputs": [
        {
          "internalType": "address",
          "name": "operator",
          "type": "address"
        },
        {
          "internalType": "bool",
          "name": "approved",
          "type": "bool"
        }
      ],
      "name": "setApprovalForAll",
      "outputs": [],
      "stateMutability": "nonpayable",
      "type": "function"
    },
    {
      "inputs": [
        {
          "internalType": "uint256",
          "name": "_assetId",
          "type": "uint256"
        },
        {
          "internalType": "bool",
          "name": "_paused",
          "type": "bool"
        }
      ],
      "name": "setAssetTransfersPaused",
      "outputs": [],
      "stateMutability": "nonpayable",
      "type": "function"
    },
    {
      "inputs": [
        {
          "internalType": "bool",
          "name": "_paused",
          "type": "bool"
        }
      ],
      "name": "setTransfersPaused",
      "outputs": [],
      "stateMutability": "nonpayable",
      "type": "function"
    },
    {
      "inputs": [
        {
          "internalType": "address[]",
          "name": "_users",
          "type": "address[]"
        },
        {
          "internalType": "bool",
          "name": "_isWhitelisted",
          "type": "bool"
        }
      ],
      "name": "setWhitelisted",
      "outputs": [],
      "stateMutability": "nonpayable",
      "type": "function"
    },
    {
      "inputs": [
        {
          "internalType": "bytes4",
          "name": "interfaceId",
          "type": "bytes4"
        }
      ],
      "name": "supportsInterface",
      "outputs": [
        {
          "internalType": "bool",
          "name": "",
          "type": "bool"
        }
      ],
      "stateMutability": "view",
      "type": "function"
    },
    {
      "inputs": [],
      "name": "symbol",
      "outputs": [
        {
          "internalType": "string",
          "name": "",
          "type": "string"
        }
      ],
      "stateMutability": "view",
      "type": "function"
    },
    {
      "inputs": [
        {
          "internalType": "uint256",
          "name": "_tokenId",
          "type": "uint256"
        }
      ],
      "name": "tokenURI",
      "outputs": [
        {
          "internalType": "string",
          "name": "",
          "type": "string"
        }
      ],
      "stateMutability": "view",
      "type": "function"
    },
    {
      "inputs": [
        {
          "internalType": "uint256",
          "name": "",
          "type": "uint256"
        }
      ],
      "name": "totalShareRev",
      "outputs": [
        {
          "internalType": "uint256",
          "name": "",
          "type": "uint256"
        }
      ],
      "stateMutability": "view",
      "type": "function"
    },
    {
      "inputs": [
        {
          "internalType": "address",
          "name": "from",
          "type": "address"
        },
        {
          "internalType": "address",
          "name": "to",
          "type": "address"
        },
        {
          "internalType": "uint256",
          "name": "tokenId",
          "type": "uint256"
        }
      ],
      "name": "transferFrom",
      "outputs": [],
      "stateMutability": "nonpayable",
      "type": "function"
    },
    {
      "inputs": [
        {
          "internalType": "bool",
          "name": "_unpause",
          "type": "bool"
        }
      ],
      "name": "unpauseHandler",
      "outputs": [],
      "stateMutability": "nonpayable",
      "type": "function"
    },
    {
      "inputs": [
        {
          "internalType": "uint256",
          "name": "_assetId",
          "type": "uint256"
        },
        {
          "internalType": "uint256",
          "name": "_tokenCap",
          "type": "uint256"
        }
      ],
      "name": "updateAssetCap",
      "outputs": [],
      "stateMutability": "nonpayable",
      "type": "function"
    },
    {
      "inputs": [
        {
          "internalType": "address",
          "name": "_serverPubKey",
          "type": "address"
        }
      ],
      "name": "updateServer",
      "outputs": [],
      "stateMutability": "nonpayable",
      "type": "function"
    }
  ],
  "bytecode": "0x608060405234801561001057600080fd5b50612eda806100206000396000f3fe608060405234801561001057600080fd5b50600436106102695760003560e01c806391d1485411610151578063b88d4fde116100c3578063c783031711610087578063c7830317146105ab578063c87b56dd146105be578063cf0b3a51146105d1578063d547741f146105fa578063e985e9c51461060d578063f3c4b7041461064957600080fd5b8063b88d4fde1461054a578063b88dab321461055d578063b9a2899414610570578063bfef152014610585578063c58354b71461059857600080fd5b8063a22cb46511610115578063a22cb465146104de578063a86e6676146104f1578063ac2b205514610504578063b0e7b394146104bb578063b22aec5a14610524578063b819fbd41461053757600080fd5b806391d148541461048857806392877ddc1461049b5780639293da2a146104bb57806395d89b41146104ce578063a217fddf146104d657600080fd5b806336568abe116101ea578063498e5165116101ae578063498e5165146103fc5780636352211e1461040f57806370a082311461042257806376ee32c114610435578063834eb2481461045557806386ed41171461046857600080fd5b806336568abe1461038d5780633af32abf146103a057806342842e0e146103c357806344e46dff146103d6578063485cc955146103e957600080fd5b806323b40c0b1161023157806323b40c0b1461030e57806323b872dd1461032f578063248a9ca3146103425780632a0acc6a146103655780632f2ff15d1461037a57600080fd5b806301ffc9a71461026e57806306fdde0314610296578063081812fc146102ab578063095ea7b3146102d6578063220f27eb146102eb575b600080fd5b61028161027c3660046128a8565b61065c565b60405190151581526020015b60405180910390f35b61029e61066d565b60405161028d9190612ba1565b6102be6102b936600461286c565b6106ff565b6040516001600160a01b03909116815260200161028d565b6102e96102e4366004612724565b610726565b005b6102816102f936600461286c565b60cc6020526000908152604090205460ff1681565b61032161031c36600461286c565b610841565b60405190815260200161028d565b6102e961033d36600461263b565b610851565b61032161035036600461286c565b60009081526097602052604090206001015490565b610321600080516020612e8583398151915281565b6102e9610388366004612884565b610882565b6102e961039b366004612884565b6108a7565b6102816103ae366004612584565b60ca6020526000908152604090205460ff1681565b6102e96103d136600461263b565b610925565b6102e96103e4366004612834565b610940565b6102e96103f7366004612712565b610961565b6102e961040a3660046129e2565b610a87565b6102be61041d36600461286c565b610ab0565b610321610430366004612584565b610b10565b61032161044336600461286c565b60ce6020526000908152604090205481565b6102e96104633660046127a4565b610b96565b61032161047636600461286c565b60d16020526000908152604090205481565b610281610496366004612884565b610d49565b6103216104a936600461286c565b60cd6020526000908152604090205481565b6102e96104c9366004612834565b610d74565b61029e610dab565b610321600081565b6102e96104ec3660046126e5565b610dba565b6102e96104ff3660046125d8565b610dc5565b61032161051236600461286c565b60d06020526000908152604090205481565b6102e9610532366004612a0f565b610df0565b6102e961054536600461299d565b610e61565b6102e961055836600461267b565b610e83565b6102e961056b3660046129c1565b610eb5565b610321600080516020612e6583398151915281565b6102e9610593366004612953565b610ed8565b6102e96105a63660046129c1565b610f31565b6102e96105b9366004612584565b610f53565b61029e6105cc36600461286c565b610f8e565b6102be6105df36600461286c565b60cf602052600090815260409020546001600160a01b031681565b6102e9610608366004612884565b611093565b61028161061b3660046125a0565b6001600160a01b039182166000908152606a6020908152604080832093909416825291909152205460ff1690565b6102e961065736600461274f565b6110b8565b6000610667826110db565b92915050565b60606065805461067c90612da9565b80601f01602080910402602001604051908101604052809291908181526020018280546106a890612da9565b80156106f55780601f106106ca576101008083540402835291602001916106f5565b820191906000526020600020905b8154815290600101906020018083116106d857829003601f168201915b5050505050905090565b600061070a82611100565b506000908152606960205260409020546001600160a01b031690565b600061073182610ab0565b9050806001600160a01b0316836001600160a01b031614156107a45760405162461bcd60e51b815260206004820152602160248201527f4552433732313a20617070726f76616c20746f2063757272656e74206f776e656044820152603960f91b60648201526084015b60405180910390fd5b336001600160a01b03821614806107c057506107c0813361061b565b6108325760405162461bcd60e51b815260206004820152603e60248201527f4552433732313a20617070726f76652063616c6c6572206973206e6f7420746f60448201527f6b656e206f776e6572206e6f7220617070726f76656420666f7220616c6c0000606482015260840161079b565b61083c8383611162565b505050565b6000610667633b9aca0083612d10565b61085b33826111d0565b6108775760405162461bcd60e51b815260040161079b90612c51565b61083c83838361124f565b60008281526097602052604090206001015461089d816113f6565b61083c8383611400565b6001600160a01b03811633146109175760405162461bcd60e51b815260206004820152602f60248201527f416363657373436f6e74726f6c3a2063616e206f6e6c792072656e6f756e636560448201526e103937b632b9903337b91039b2b63360891b606482015260840161079b565b6109218282611486565b5050565b61083c83838360405180602001604052806000815250610e83565b600080516020612e85833981519152610958816113f6565b610921826114ed565b600054610100900460ff16158080156109815750600054600160ff909116105b8061099b5750303b15801561099b575060005460ff166001145b6109fe5760405162461bcd60e51b815260206004820152602e60248201527f496e697469616c697a61626c653a20636f6e747261637420697320616c72656160448201526d191e481a5b9a5d1a585b1a5e995960921b606482015260840161079b565b6000805460ff191660011790558015610a21576000805461ff0019166101001790555b610a29611519565b610a34600084611400565b610a3d82611542565b801561083c576000805461ff0019169055604051600181527f7f26b83ff96e1f2b6a682f133852f6798a09c465da95921460cefb38474024989060200160405180910390a1505050565b600080516020612e85833981519152610a9f816113f6565b610aaa84848461158b565b50505050565b6000818152606760205260408120546001600160a01b0316806106675760405162461bcd60e51b8152602060048201526018602482015277115490cdcc8c4e881a5b9d985b1a59081d1bdad95b88125160421b604482015260640161079b565b60006001600160a01b038216610b7a5760405162461bcd60e51b815260206004820152602960248201527f4552433732313a2061646472657373207a65726f206973206e6f7420612076616044820152683634b21037bbb732b960b91b606482015260840161079b565b506001600160a01b031660009081526068602052604090205490565b60d354600160a01b900460ff1615610be35760405162461bcd60e51b815260206004820152601060248201526f14185d5cd8589b194e881c185d5cd95960821b604482015260640161079b565b600033308888604051602001610bfc9493929190612b10565b60408051601f198184030181529082905260d2549092506001600160a01b031690600190610c309088908590602001612a6c565b60408051601f198184030181528282528051602091820120600084529083018083525260ff881690820152606081018690526080810185905260a0016020604051602081039080840390855afa158015610c8e573d6000803e3d6000fd5b505050602060405103516001600160a01b031614610ce25760405162461bcd60e51b8152602060048201526011602482015270496e76616c6964207369676e617475726560781b604482015260640161079b565b6000610d1488886000818110610d0857634e487b7160e01b600052603260045260246000fd5b90506020020135610841565b600081815260d06020526040902054909150610d32828a8a8461165e565b610d3e30338b8b61172e565b505050505050505050565b60009182526097602090815260408084206001600160a01b0393909316845291905290205460ff1690565b600080516020612e85833981519152610d8c816113f6565b5060d38054911515600160a01b0260ff60a01b19909216919091179055565b60606066805461067c90612da9565b61092133838361177d565b600080516020612e85833981519152610ddd816113f6565b610de98585858561172e565b5050505050565b600080516020612e85833981519152610e08816113f6565b81610e138486612d10565b14610e555760405162461bcd60e51b8152602060048201526012602482015271496e76616c696420696e707574206461746160701b604482015260640161079b565b610de93386868561184c565b600080516020612e85833981519152610e79816113f6565b61083c8383611920565b610e8d33836111d0565b610ea95760405162461bcd60e51b815260040161079b90612c51565b610aaa84848484611959565b600080516020612e85833981519152610ecd816113f6565b61083c83833061198c565b60d354600160a01b900460ff1615610f255760405162461bcd60e51b815260206004820152601060248201526f14185d5cd8589b194e881c185d5cd95960821b604482015260640161079b565b61083c33848484611a64565b600080516020612e85833981519152610f49816113f6565b61083c8383611d2b565b600080516020612e85833981519152610f6b816113f6565b5060d280546001600160a01b0319166001600160a01b0392909216919091179055565b6000818152606760205260409020546060906001600160a01b031661100d5760405162461bcd60e51b815260206004820152602f60248201527f4552433732314d657461646174613a2055524920717565727920666f72206e6f60448201526e3732bc34b9ba32b73a103a37b5b2b760891b606482015260840161079b565b60c95460405163d8bcda2760e01b8152306004820152602481018490526001600160a01b039091169063d8bcda279060440160006040518083038186803b15801561105757600080fd5b505afa15801561106b573d6000803e3d6000fd5b505050506040513d6000823e601f3d908101601f1916820160405261066791908101906128e0565b6000828152609760205260409020600101546110ae816113f6565b61083c8383611486565b600080516020612e858339815191526110d0816113f6565b610aaa848484611dff565b60006001600160e01b03198216637965db0b60e01b1480610667575061066782611e97565b6000818152606760205260409020546001600160a01b031661115f5760405162461bcd60e51b8152602060048201526018602482015277115490cdcc8c4e881a5b9d985b1a59081d1bdad95b88125160421b604482015260640161079b565b50565b600081815260696020526040902080546001600160a01b0319166001600160a01b038416908117909155819061119782610ab0565b6001600160a01b03167f8c5be1e5ebec7d5bd14f71427d1e84f3dd0314c0f7b2291e5b200ac8c7c3b92560405160405180910390a45050565b6000806111dc83610ab0565b9050806001600160a01b0316846001600160a01b0316148061122357506001600160a01b038082166000908152606a602090815260408083209388168352929052205460ff165b806112475750836001600160a01b031661123c846106ff565b6001600160a01b0316145b949350505050565b826001600160a01b031661126282610ab0565b6001600160a01b0316146112c65760405162461bcd60e51b815260206004820152602560248201527f4552433732313a207472616e736665722066726f6d20696e636f72726563742060448201526437bbb732b960d91b606482015260840161079b565b6001600160a01b0382166113285760405162461bcd60e51b8152602060048201526024808201527f4552433732313a207472616e7366657220746f20746865207a65726f206164646044820152637265737360e01b606482015260840161079b565b611333838383611ee7565b61133e600082611162565b6001600160a01b0383166000908152606860205260408120805460019290611367908490612d4f565b90915550506001600160a01b0382166000908152606860205260408120805460019290611395908490612cf8565b909155505060008181526067602052604080822080546001600160a01b0319166001600160a01b0386811691821790925591518493918716917fddf252ad1be2c89b69c2b068fc378daa952ba7f163c4a11628f55a4df523b3ef91a4505050565b61115f8133612041565b61140a8282610d49565b6109215760008281526097602090815260408083206001600160a01b03851684529091529020805460ff191660011790556114423390565b6001600160a01b0316816001600160a01b0316837f2f8788117e7eff1d82e926ec794901d17c78024a50270940304540a733656f0d60405160405180910390a45050565b6114908282610d49565b156109215760008281526097602090815260408083206001600160a01b0385168085529252808320805460ff1916905551339285917ff6391f5c32d9c69d2a47ea670b442974b53935d1edc7fd64eb21e047a839171b9190a45050565b600080516020612e65833981519152611505816113f6565b5060cb805460ff1916911515919091179055565b600054610100900460ff166115405760405162461bcd60e51b815260040161079b90612c06565b565b600054610100900460ff166115695760405162461bcd60e51b815260040161079b90612c06565b60d380546001600160a01b0319166001600160a01b0392909216919091179055565b6000611596816113f6565b600084815260cd6020526040902054156115e95760405162461bcd60e51b8152602060048201526014602482015273417373657420616c72656164792065786973747360601b604482015260640161079b565b600084815260cf6020526040902080546001600160a01b0319166001600160a01b03841617905561161e84633b9aca00612d30565b600085815260cd60205260409020558261163c85633b9aca00612d30565b6116469190612cf8565b600094855260ce602052604090942093909355505050565b8160005b81811015611726578561168e868684818110610d0857634e487b7160e01b600052603260045260246000fd5b146116d55760405162461bcd60e51b8152602060048201526017602482015276125b9d985b1a59081d1bdad95b88199bdc88185cdcd95d604a1b604482015260640161079b565b8260d160008787858181106116fa57634e487b7160e01b600052603260045260246000fd5b90506020020135815260200190815260200160002081905550808061171e90612de4565b915050611662565b505050505050565b8060005b818110156117265761176b868686868581811061175f57634e487b7160e01b600052603260045260246000fd5b9050602002013561124f565b8061177581612de4565b915050611732565b816001600160a01b0316836001600160a01b031614156117df5760405162461bcd60e51b815260206004820152601960248201527f4552433732313a20617070726f766520746f2063616c6c657200000000000000604482015260640161079b565b6001600160a01b038381166000818152606a6020908152604080832094871680845294825291829020805460ff191686151590811790915591519182527f17307eab39ab6107e8899845ad3d59bd9653f200f220920489ca2b5937696c31910160405180910390a3505050565b600080516020612e65833981519152611864816113f6565b600084815260d0602052604081208054849290611882908490612cf8565b9091555050600084815260cf6020526040908190205490516323b872dd60e01b81526001600160a01b03878116600483015230602483015260448201869052909116906323b872dd90606401602060405180830381600087803b1580156118e857600080fd5b505af11580156118fc573d6000803e3d6000fd5b505050506040513d601f19601f820116820180604052508101906117269190612850565b600080516020612e65833981519152611938816113f6565b50600091825260cc6020526040909120805460ff1916911515919091179055565b61196484848461124f565b611970848484846120a5565b610aaa5760405162461bcd60e51b815260040161079b90612bb4565b600080516020612e658339815191526119a4816113f6565b600084815260ce602090815260408083205460cd909252909120546119ca908590612cf8565b1115611a0d5760405162461bcd60e51b8152602060048201526012602482015271082dadeeadce840caf0c6cacac8e640dac2f60731b604482015260640161079b565b60005b83811015610de957600085815260cd6020526040902054611a329084906121b2565b600085815260cd60205260408120805491611a4c83612de4565b91905055508080611a5c90612de4565b915050611a10565b600080516020612e65833981519152611a7c816113f6565b6001600160a01b038516600090815260ca602052604090205460ff16611ae45760405162461bcd60e51b815260206004820152601860248201527f4f776e6572206973206e6f742077686974656c69737465640000000000000000604482015260640161079b565b600084815260d060205260408120548390825b82811015611c9157886001600160a01b0316611b38888884818110611b2c57634e487b7160e01b600052603260045260246000fd5b90506020020135610ab0565b6001600160a01b031614611b845760405162461bcd60e51b815260206004820152601360248201527224b73b30b634b2103a37b5b2b71037bbb732b960691b604482015260640161079b565b87611ba8888884818110610d0857634e487b7160e01b600052603260045260246000fd5b14611bef5760405162461bcd60e51b8152602060048201526017602482015276125b9d985b1a59081d1bdad95b88199bdc88185cdcd95d604a1b604482015260640161079b565b60d16000888884818110611c1357634e487b7160e01b600052603260045260246000fd5b9050602002013581526020019081526020016000205482611c349190612d4f565b611c3e9085612cf8565b93508160d16000898985818110611c6557634e487b7160e01b600052603260045260246000fd5b905060200201358152602001908152602001600020819055508080611c8990612de4565b915050611af7565b50600087815260cf6020526040908190205490516323b872dd60e01b81523060048201526001600160a01b038a8116602483015260448201869052909116906323b872dd90606401602060405180830381600087803b158015611cf357600080fd5b505af1158015611d07573d6000803e3d6000fd5b505050506040513d601f19601f82011682018060405250810190610d3e9190612850565b600080516020612e65833981519152611d43816113f6565b81611d5284633b9aca00612d30565b611d5c9190612cf8565b600084815260cd60205260409020541115611dcf5760405162461bcd60e51b815260206004820152602d60248201527f4173736574206361702063616e206e6f74206265206c6f776572207468616e2060448201526c1b5a5b9d195908185b5bdd5b9d609a1b606482015260840161079b565b81611dde84633b9aca00612d30565b611de89190612cf8565b600093845260ce6020526040909320929092555050565b600080516020612e65833981519152611e17816113f6565b8260005b81811015611726578360ca6000888885818110611e4857634e487b7160e01b600052603260045260246000fd5b9050602002016020810190611e5d9190612584565b6001600160a01b031681526020810191909152604001600020805460ff191691151591909117905580611e8f81612de4565b915050611e1b565b60006001600160e01b031982166380ac58cd60e01b1480611ec857506001600160e01b03198216635b5e139f60e01b145b8061066757506301ffc9a760e01b6001600160e01b0319831614610667565b6001600160a01b0383161580611f0557506001600160a01b03831630145b61083c5760cb5460ff1615611f5c5760405162461bcd60e51b815260206004820152601e60248201527f5472616e7366657273206172652063757272656e746c79207061757365640000604482015260640161079b565b60cc6000611f6983610841565b815260208101919091526040016000205460ff1615611fbc5760405162461bcd60e51b815260206004820152600f60248201526e105cdcd95d081a5cc81c185d5cd959608a1b604482015260640161079b565b6001600160a01b038316600090815260ca602052604090205460ff168015611ffc57506001600160a01b038216600090815260ca602052604090205460ff165b61083c5760405162461bcd60e51b815260206004820152601660248201527524b73b30b634b2103a37b5b2b7103a3930b739b332b960511b604482015260640161079b565b61204b8282610d49565b61092157612063816001600160a01b03166014612300565b61206e836020612300565b60405160200161207f929190612a9b565b60408051601f198184030181529082905262461bcd60e51b825261079b91600401612ba1565b60006001600160a01b0384163b156121a757604051630a85bd0160e11b81526001600160a01b0385169063150b7a02906120e9903390899088908890600401612b64565b602060405180830381600087803b15801561210357600080fd5b505af1925050508015612133575060408051601f3d908101601f19168201909252612130918101906128c4565b60015b61218d573d808015612161576040519150601f19603f3d011682016040523d82523d6000602084013e612166565b606091505b5080516121855760405162461bcd60e51b815260040161079b90612bb4565b805181602001fd5b6001600160e01b031916630a85bd0160e11b149050611247565b506001949350505050565b6001600160a01b0382166122085760405162461bcd60e51b815260206004820181905260248201527f4552433732313a206d696e7420746f20746865207a65726f2061646472657373604482015260640161079b565b6000818152606760205260409020546001600160a01b03161561226d5760405162461bcd60e51b815260206004820152601c60248201527f4552433732313a20746f6b656e20616c7265616479206d696e74656400000000604482015260640161079b565b61227960008383611ee7565b6001600160a01b03821660009081526068602052604081208054600192906122a2908490612cf8565b909155505060008181526067602052604080822080546001600160a01b0319166001600160a01b03861690811790915590518392907fddf252ad1be2c89b69c2b068fc378daa952ba7f163c4a11628f55a4df523b3ef908290a45050565b6060600061230f836002612d30565b61231a906002612cf8565b67ffffffffffffffff81111561234057634e487b7160e01b600052604160045260246000fd5b6040519080825280601f01601f19166020018201604052801561236a576020820181803683370190505b509050600360fc1b8160008151811061239357634e487b7160e01b600052603260045260246000fd5b60200101906001600160f81b031916908160001a905350600f60fb1b816001815181106123d057634e487b7160e01b600052603260045260246000fd5b60200101906001600160f81b031916908160001a90535060006123f4846002612d30565b6123ff906001612cf8565b90505b6001811115612493576f181899199a1a9b1b9c1cb0b131b232b360811b85600f166010811061244157634e487b7160e01b600052603260045260246000fd5b1a60f81b82828151811061246557634e487b7160e01b600052603260045260246000fd5b60200101906001600160f81b031916908160001a90535060049490941c9361248c81612d92565b9050612402565b5083156124e25760405162461bcd60e51b815260206004820181905260248201527f537472696e67733a20686578206c656e67746820696e73756666696369656e74604482015260640161079b565b9392505050565b60008083601f8401126124fa578081fd5b50813567ffffffffffffffff811115612511578182fd5b6020830191508360208260051b850101111561252c57600080fd5b9250929050565b600082601f830112612543578081fd5b813561255661255182612cd0565b612c9f565b81815284602083860101111561256a578283fd5b816020850160208301379081016020019190915292915050565b600060208284031215612595578081fd5b81356124e281612e2b565b600080604083850312156125b2578081fd5b82356125bd81612e2b565b915060208301356125cd81612e2b565b809150509250929050565b600080600080606085870312156125ed578182fd5b84356125f881612e2b565b9350602085013561260881612e2b565b9250604085013567ffffffffffffffff811115612623578283fd5b61262f878288016124e9565b95989497509550505050565b60008060006060848603121561264f578283fd5b833561265a81612e2b565b9250602084013561266a81612e2b565b929592945050506040919091013590565b60008060008060808587031215612690578384fd5b843561269b81612e2b565b935060208501356126ab81612e2b565b925060408501359150606085013567ffffffffffffffff8111156126cd578182fd5b6126d987828801612533565b91505092959194509250565b600080604083850312156126f7578182fd5b823561270281612e2b565b915060208301356125cd81612e40565b600080604083850312156125b2578182fd5b60008060408385031215612736578182fd5b823561274181612e2b565b946020939093013593505050565b600080600060408486031215612763578081fd5b833567ffffffffffffffff811115612779578182fd5b612785868287016124e9565b909450925050602084013561279981612e40565b809150509250925092565b60008060008060008060a087890312156127bc578384fd5b863567ffffffffffffffff808211156127d3578586fd5b6127df8a838b016124e9565b909850965060208901359150808211156127f7578586fd5b5061280489828a01612533565b945050604087013560ff8116811461281a578283fd5b959894975092956060810135946080909101359350915050565b600060208284031215612845578081fd5b81356124e281612e40565b600060208284031215612861578081fd5b81516124e281612e40565b60006020828403121561287d578081fd5b5035919050565b60008060408385031215612896578182fd5b8235915060208301356125cd81612e2b565b6000602082840312156128b9578081fd5b81356124e281612e4e565b6000602082840312156128d5578081fd5b81516124e281612e4e565b6000602082840312156128f1578081fd5b815167ffffffffffffffff811115612907578182fd5b8201601f81018413612917578182fd5b805161292561255182612cd0565b818152856020838501011115612939578384fd5b61294a826020830160208601612d66565b95945050505050565b600080600060408486031215612967578081fd5b83359250602084013567ffffffffffffffff811115612984578182fd5b612990868287016124e9565b9497909650939450505050565b600080604083850312156129af578182fd5b8235915060208301356125cd81612e40565b600080604083850312156129d3578182fd5b50508035926020909101359150565b6000806000606084860312156129f6578081fd5b8335925060208401359150604084013561279981612e2b565b60008060008060808587031215612a24578182fd5b5050823594602084013594506040840135936060013592509050565b60008151808452612a58816020860160208601612d66565b601f01601f19169290920160200192915050565b60008351612a7e818460208801612d66565b835190830190612a92818360208801612d66565b01949350505050565b7f416363657373436f6e74726f6c3a206163636f756e7420000000000000000000815260008351612ad3816017850160208801612d66565b7001034b99036b4b9b9b4b733903937b6329607d1b6017918401918201528351612b04816028840160208801612d66565b01602801949350505050565b6001600160a01b03858116825284166020820152606060408201819052810182905260006001600160fb1b03831115612b47578081fd5b8260051b8085608085013791909101608001908152949350505050565b6001600160a01b0385811682528416602082015260408101839052608060608201819052600090612b9790830184612a40565b9695505050505050565b6020815260006124e26020830184612a40565b60208082526032908201527f4552433732313a207472616e7366657220746f206e6f6e20455243373231526560408201527131b2b4bb32b91034b6b83632b6b2b73a32b960711b606082015260800190565b6020808252602b908201527f496e697469616c697a61626c653a20636f6e7472616374206973206e6f74206960408201526a6e697469616c697a696e6760a81b606082015260800190565b6020808252602e908201527f4552433732313a2063616c6c6572206973206e6f7420746f6b656e206f776e6560408201526d1c881b9bdc88185c1c1c9bdd995960921b606082015260800190565b604051601f8201601f1916810167ffffffffffffffff81118282101715612cc857612cc8612e15565b604052919050565b600067ffffffffffffffff821115612cea57612cea612e15565b50601f01601f191660200190565b60008219821115612d0b57612d0b612dff565b500190565b600082612d2b57634e487b7160e01b81526012600452602481fd5b500490565b6000816000190483118215151615612d4a57612d4a612dff565b500290565b600082821015612d6157612d61612dff565b500390565b60005b83811015612d81578181015183820152602001612d69565b83811115610aaa5750506000910152565b600081612da157612da1612dff565b506000190190565b600181811c90821680612dbd57607f821691505b60208210811415612dde57634e487b7160e01b600052602260045260246000fd5b50919050565b6000600019821415612df857612df8612dff565b5060010190565b634e487b7160e01b600052601160045260246000fd5b634e487b7160e01b600052604160045260246000fd5b6001600160a01b038116811461115f57600080fd5b801515811461115f57600080fd5b6001600160e01b03198116811461115f57600080fdfef40ec076ff2e3a403e1c18632267861d39085e7f359ca5665846f335632cf819df8b4c520ffe197c5343c6f5aec59570151ef9a492f2c624fd45ddde6135ec42a2646970667358221220ff1b736240fdbc46ed22c50da26e4d46ba6618462094c0af22032efcd40ab29264736f6c63430008040033",
  "linkReferences": {},
  "deployedLinkReferences": {}
}