{
  "_format": "hh-sol-artifact-1",
  "contractName": "AssetProxy",
  "sourceName": "contracts/AssetProxy.sol",
  "abi": [
    {
      "anonymous": false,
      "inputs": [
        {
          "indexed": true,
          "internalType": "address",
          "name": "owner",
          "type": "address"
        },
        {
          "indexed": true,
          "internalType": "address",
          "name": "approved",
          "type": "address"
        },
        {
          "indexed": true,
          "internalType": "uint256",
          "name": "tokenId",
          "type": "uint256"
        }
      ],
      "name": "Approval",
      "type": "event"
    },
    {
      "anonymous": false,
      "inputs": [
        {
          "indexed": true,
          "internalType": "address",
          "name": "owner",
          "type": "address"
        },
        {
          "indexed": true,
          "internalType": "address",
          "name": "operator",
          "type": "address"
        },
        {
          "indexed": false,
          "internalType": "bool",
          "name": "approved",
          "type": "bool"
        }
      ],
      "name": "ApprovalForAll",
      "type": "event"
    },
    {
      "anonymous": false,
      "inputs": [
        {
          "indexed": false,
          "internalType": "uint8",
          "name": "version",
          "type": "uint8"
        }
      ],
      "name": "Initialized",
      "type": "event"
    },
    {
      "anonymous": false,
      "inputs": [
        {
          "indexed": true,
          "internalType": "bytes32",
          "name": "role",
          "type": "bytes32"
        },
        {
          "indexed": true,
          "internalType": "bytes32",
          "name": "previousAdminRole",
          "type": "bytes32"
        },
        {
          "indexed": true,
          "internalType": "bytes32",
          "name": "newAdminRole",
          "type": "bytes32"
        }
      ],
      "name": "RoleAdminChanged",
      "type": "event"
    },
    {
      "anonymous": false,
      "inputs": [
        {
          "indexed": true,
          "internalType": "bytes32",
          "name": "role",
          "type": "bytes32"
        },
        {
          "indexed": true,
          "internalType": "address",
          "name": "account",
          "type": "address"
        },
        {
          "indexed": true,
          "internalType": "address",
          "name": "sender",
          "type": "address"
        }
      ],
      "name": "RoleGranted",
      "type": "event"
    },
    {
      "anonymous": false,
      "inputs": [
        {
          "indexed": true,
          "internalType": "bytes32",
          "name": "role",
          "type": "bytes32"
        },
        {
          "indexed": true,
          "internalType": "address",
          "name": "account",
          "type": "address"
        },
        {
          "indexed": true,
          "internalType": "address",
          "name": "sender",
          "type": "address"
        }
      ],
      "name": "RoleRevoked",
      "type": "event"
    },
    {
      "anonymous": false,
      "inputs": [
        {
          "indexed": true,
          "internalType": "address",
          "name": "from",
          "type": "address"
        },
        {
          "indexed": true,
          "internalType": "address",
          "name": "to",
          "type": "address"
        },
        {
          "indexed": true,
          "internalType": "uint256",
          "name": "tokenId",
          "type": "uint256"
        }
      ],
      "name": "Transfer",
      "type": "event"
    },
    {
      "inputs": [],
      "name": "ADMIN",
      "outputs": [
        {
          "internalType": "bytes32",
          "name": "",
          "type": "bytes32"
        }
      ],
      "stateMutability": "view",
      "type": "function"
    },
    {
      "inputs": [],
      "name": "DEFAULT_ADMIN_ROLE",
      "outputs": [
        {
          "internalType": "bytes32",
          "name": "",
          "type": "bytes32"
        }
      ],
      "stateMutability": "view",
      "type": "function"
    },
    {
      "inputs": [],
      "name": "HANDLER",
      "outputs": [
        {
          "internalType": "bytes32",
          "name": "",
          "type": "bytes32"
        }
      ],
      "stateMutability": "view",
      "type": "function"
    },
    {
      "inputs": [
        {
          "internalType": "uint256",
          "name": "_tokenId",
          "type": "uint256"
        }
      ],
      "name": "_getTokenAsset",
      "outputs": [
        {
          "internalType": "uint256",
          "name": "",
          "type": "uint256"
        }
      ],
      "stateMutability": "pure",
      "type": "function"
    },
    {
      "inputs": [
        {
          "internalType": "uint256",
          "name": "_assetId",
          "type": "uint256"
        },
        {
          "internalType": "uint256",
          "name": "_totalRev",
          "type": "uint256"
        },
        {
          "internalType": "uint256",
          "name": "_unitsCount",
          "type": "uint256"
        },
        {
          "internalType": "uint256",
          "name": "_amountPerShare",
          "type": "uint256"
        }
      ],
      "name": "addRevenue",
      "outputs": [],
      "stateMutability": "nonpayable",
      "type": "function"
    },
    {
      "inputs": [
        {
          "internalType": "address",
          "name": "to",
          "type": "address"
        },
        {
          "internalType": "uint256",
          "name": "tokenId",
          "type": "uint256"
        }
      ],
      "name": "approve",
      "outputs": [],
      "stateMutability": "nonpayable",
      "type": "function"
    },
    {
      "inputs": [
        {
          "internalType": "uint256",
          "name": "",
          "type": "uint256"
        }
      ],
      "name": "assetPaused",
      "outputs": [
        {
          "internalType": "bool",
          "name": "",
          "type": "bool"
        }
      ],
      "stateMutability": "view",
      "type": "function"
    },
    {
      "inputs": [
        {
          "internalType": "uint256",
          "name": "",
          "type": "uint256"
        }
      ],
      "name": "assetRevToken",
      "outputs": [
        {
          "internalType": "contract IERC20Upgradeable",
          "name": "",
          "type": "address"
        }
      ],
      "stateMutability": "view",
      "type": "function"
    },
    {
      "inputs": [
        {
          "internalType": "address",
          "name": "owner",
          "type": "address"
        }
      ],
      "name": "balanceOf",
      "outputs": [
        {
          "internalType": "uint256",
          "name": "",
          "type": "uint256"
        }
      ],
      "stateMutability": "view",
      "type": "function"
    },
    {
      "inputs": [
        {
          "internalType": "uint256",
          "name": "_assetId",
          "type": "uint256"
        },
        {
          "internalType": "uint256[]",
          "name": "_tokenIds",
          "type": "uint256[]"
        }
      ],
      "name": "claimRevenue",
      "outputs": [],
      "stateMutability": "nonpayable",
      "type": "function"
    },
    {
      "inputs": [
        {
          "internalType": "uint256[]",
          "name": "_tokenIds",
          "type": "uint256[]"
        },
        {
          "internalType": "bytes",
          "name": "_prefix",
          "type": "bytes"
        },
        {
          "internalType": "uint8",
          "name": "_v",
          "type": "uint8"
        },
        {
          "internalType": "bytes32",
          "name": "_r",
          "type": "bytes32"
        },
        {
          "internalType": "bytes32",
          "name": "_s",
          "type": "bytes32"
        }
      ],
      "name": "claimUnits",
      "outputs": [],
      "stateMutability": "nonpayable",
      "type": "function"
    },
    {
      "inputs": [
        {
          "internalType": "uint256",
          "name": "",
          "type": "uint256"
        }
      ],
      "name": "claimedRev",
      "outputs": [
        {
          "internalType": "uint256",
          "name": "",
          "type": "uint256"
        }
      ],
      "stateMutability": "view",
      "type": "function"
    },
    {
      "inputs": [
        {
          "internalType": "uint256",
          "name": "_assetId",
          "type": "uint256"
        },
        {
          "internalType": "uint256",
          "name": "_tokenCap",
          "type": "uint256"
        },
        {
          "internalType": "contract IERC20Upgradeable",
          "name": "_revToken",
          "type": "address"
        }
      ],
      "name": "createAsset",
      "outputs": [],
      "stateMutability": "nonpayable",
      "type": "function"
    },
    {
      "inputs": [
        {
          "internalType": "uint256",
          "name": "tokenId",
          "type": "uint256"
        }
      ],
      "name": "getApproved",
      "outputs": [
        {
          "internalType": "address",
          "name": "",
          "type": "address"
        }
      ],
      "stateMutability": "view",
      "type": "function"
    },
    {
      "inputs": [
        {
          "internalType": "bytes32",
          "name": "role",
          "type": "bytes32"
        }
      ],
      "name": "getRoleAdmin",
      "outputs": [
        {
          "internalType": "bytes32",
          "name": "",
          "type": "bytes32"
        }
      ],
      "stateMutability": "view",
      "type": "function"
    },
    {
      "inputs": [
        {
          "internalType": "bytes32",
          "name": "role",
          "type": "bytes32"
        },
        {
          "internalType": "address",
          "name": "account",
          "type": "address"
        }
      ],
      "name": "grantRole",
      "outputs": [],
      "stateMutability": "nonpayable",
      "type": "function"
    },
    {
      "inputs": [
        {
          "internalType": "bytes32",
          "name": "role",
          "type": "bytes32"
        },
        {
          "internalType": "address",
          "name": "account",
          "type": "address"
        }
      ],
      "name": "hasRole",
      "outputs": [
        {
          "internalType": "bool",
          "name": "",
          "type": "bool"
        }
      ],
      "stateMutability": "view",
      "type": "function"
    },
    {
      "inputs": [
        {
          "internalType": "address",
          "name": "_default_admin",
          "type": "address"
        },
        {
          "internalType": "contract IAssetIssuerState",
          "name": "_IState",
          "type": "address"
        }
      ],
      "name": "initialize",
      "outputs": [],
      "stateMutability": "nonpayable",
      "type": "function"
    },
    {
      "inputs": [
        {
          "internalType": "address",
          "name": "owner",
          "type": "address"
        },
        {
          "internalType": "address",
          "name": "operator",
          "type": "address"
        }
      ],
      "name": "isApprovedForAll",
      "outputs": [
        {
          "internalType": "bool",
          "name": "",
          "type": "bool"
        }
      ],
      "stateMutability": "view",
      "type": "function"
    },
    {
      "inputs": [
        {
          "internalType": "address",
          "name": "",
          "type": "address"
        }
      ],
      "name": "isWhitelisted",
      "outputs": [
        {
          "internalType": "bool",
          "name": "",
          "type": "bool"
        }
      ],
      "stateMutability": "view",
      "type": "function"
    },
    {
      "inputs": [
        {
          "internalType": "uint256",
          "name": "",
          "type": "uint256"
        }
      ],
      "name": "lastId",
      "outputs": [
        {
          "internalType": "uint256",
          "name": "",
          "type": "uint256"
        }
      ],
      "stateMutability": "view",
      "type": "function"
    },
    {
      "inputs": [
        {
          "internalType": "uint256",
          "name": "_assetId",
          "type": "uint256"
        },
        {
          "internalType": "uint256",
          "name": "_amount",
          "type": "uint256"
        }
      ],
      "name": "mintAsset",
      "outputs": [],
      "stateMutability": "nonpayable",
      "type": "function"
    },
    {
      "inputs": [],
      "name": "name",
      "outputs": [
        {
          "internalType": "string",
          "name": "",
          "type": "string"
        }
      ],
      "stateMutability": "view",
      "type": "function"
    },
    {
      "inputs": [
        {
          "internalType": "uint256",
          "name": "",
          "type": "uint256"
        }
      ],
      "name": "nextId",
      "outputs": [
        {
          "internalType": "uint256",
          "name": "",
          "type": "uint256"
        }
      ],
      "stateMutability": "view",
      "type": "function"
    },
    {
      "inputs": [
        {
          "internalType": "uint256",
          "name": "tokenId",
          "type": "uint256"
        }
      ],
      "name": "ownerOf",
      "outputs": [
        {
          "internalType": "address",
          "name": "",
          "type": "address"
        }
      ],
      "stateMutability": "view",
      "type": "function"
    },
    {
      "inputs": [
        {
          "internalType": "bytes32",
          "name": "role",
          "type": "bytes32"
        },
        {
          "internalType": "address",
          "name": "account",
          "type": "address"
        }
      ],
      "name": "renounceRole",
      "outputs": [],
      "stateMutability": "nonpayable",
      "type": "function"
    },
    {
      "inputs": [
        {
          "internalType": "address",
          "name": "_from",
          "type": "address"
        },
        {
          "internalType": "address",
          "name": "_to",
          "type": "address"
        },
        {
          "internalType": "uint256[]",
          "name": "_tokenIds",
          "type": "uint256[]"
        }
      ],
      "name": "returnUnits",
      "outputs": [],
      "stateMutability": "nonpayable",
      "type": "function"
    },
    {
      "inputs": [
        {
          "internalType": "bytes32",
          "name": "role",
          "type": "bytes32"
        },
        {
          "internalType": "address",
          "name": "account",
          "type": "address"
        }
      ],
      "name": "revokeRole",
      "outputs": [],
      "stateMutability": "nonpayable",
      "type": "function"
    },
    {
      "inputs": [
        {
          "internalType": "address",
          "name": "from",
          "type": "address"
        },
        {
          "internalType": "address",
          "name": "to",
          "type": "address"
        },
        {
          "internalType": "uint256",
          "name": "tokenId",
          "type": "uint256"
        }
      ],
      "name": "safeTransferFrom",
      "outputs": [],
      "stateMutability": "nonpayable",
      "type": "function"
    },
    {
      "inputs": [
        {
          "internalType": "address",
          "name": "from",
          "type": "address"
        },
        {
          "internalType": "address",
          "name": "to",
          "type": "address"
        },
        {
          "internalType": "uint256",
          "name": "tokenId",
          "type": "uint256"
        },
        {
          "internalType": "bytes",
          "name": "data",
          "type": "bytes"
        }
      ],
      "name": "safeTransferFrom",
      "outputs": [],
      "stateMutability": "nonpayable",
      "type": "function"
    },
    {
      "inputs": [
        {
          "internalType": "address",
          "name": "operator",
          "type": "address"
        },
        {
          "internalType": "bool",
          "name": "approved",
          "type": "bool"
        }
      ],
      "name": "setApprovalForAll",
      "outputs": [],
      "stateMutability": "nonpayable",
      "type": "function"
    },
    {
      "inputs": [
        {
          "internalType": "uint256",
          "name": "_assetId",
          "type": "uint256"
        },
        {
          "internalType": "bool",
          "name": "_paused",
          "type": "bool"
        }
      ],
      "name": "setAssetTransfersPaused",
      "outputs": [],
      "stateMutability": "nonpayable",
      "type": "function"
    },
    {
      "inputs": [
        {
          "internalType": "bool",
          "name": "_paused",
          "type": "bool"
        }
      ],
      "name": "setTransfersPaused",
      "outputs": [],
      "stateMutability": "nonpayable",
      "type": "function"
    },
    {
      "inputs": [
        {
          "internalType": "address[]",
          "name": "_users",
          "type": "address[]"
        },
        {
          "internalType": "bool",
          "name": "_isWhitelisted",
          "type": "bool"
        }
      ],
      "name": "setWhitelisted",
      "outputs": [],
      "stateMutability": "nonpayable",
      "type": "function"
    },
    {
      "inputs": [
        {
          "internalType": "bytes4",
          "name": "interfaceId",
          "type": "bytes4"
        }
      ],
      "name": "supportsInterface",
      "outputs": [
        {
          "internalType": "bool",
          "name": "",
          "type": "bool"
        }
      ],
      "stateMutability": "view",
      "type": "function"
    },
    {
      "inputs": [],
      "name": "symbol",
      "outputs": [
        {
          "internalType": "string",
          "name": "",
          "type": "string"
        }
      ],
      "stateMutability": "view",
      "type": "function"
    },
    {
      "inputs": [
        {
          "internalType": "uint256",
          "name": "_tokenId",
          "type": "uint256"
        }
      ],
      "name": "tokenURI",
      "outputs": [
        {
          "internalType": "string",
          "name": "",
          "type": "string"
        }
      ],
      "stateMutability": "view",
      "type": "function"
    },
    {
      "inputs": [
        {
          "internalType": "uint256",
          "name": "",
          "type": "uint256"
        }
      ],
      "name": "totalShareRev",
      "outputs": [
        {
          "internalType": "uint256",
          "name": "",
          "type": "uint256"
        }
      ],
      "stateMutability": "view",
      "type": "function"
    },
    {
      "inputs": [
        {
          "internalType": "address",
          "name": "from",
          "type": "address"
        },
        {
          "internalType": "address",
          "name": "to",
          "type": "address"
        },
        {
          "internalType": "uint256",
          "name": "tokenId",
          "type": "uint256"
        }
      ],
      "name": "transferFrom",
      "outputs": [],
      "stateMutability": "nonpayable",
      "type": "function"
    },
    {
      "inputs": [
        {
          "internalType": "uint256",
          "name": "_assetId",
          "type": "uint256"
        },
        {
          "internalType": "uint256",
          "name": "_tokenCap",
          "type": "uint256"
        }
      ],
      "name": "updateAssetCap",
      "outputs": [],
      "stateMutability": "nonpayable",
      "type": "function"
    },
    {
      "inputs": [
        {
          "internalType": "address",
          "name": "_serverPubKey",
          "type": "address"
        }
      ],
      "name": "updateServer",
      "outputs": [],
      "stateMutability": "nonpayable",
      "type": "function"
    }
  ],
  "bytecode": "0x608060405234801561001057600080fd5b50612de0806100206000396000f3fe608060405234801561001057600080fd5b50600436106102535760003560e01c806386ed411711610146578063b88d4fde116100c3578063c783031711610087578063c783031714610582578063c87b56dd14610595578063cf0b3a51146105a8578063d547741f146105d1578063e985e9c5146105e4578063f3c4b7041461062057600080fd5b8063b88d4fde14610521578063b88dab3214610534578063b9a2899414610547578063bfef15201461055c578063c58354b71461056f57600080fd5b8063a22cb4651161010a578063a22cb465146104b5578063a86e6676146104c8578063ac2b2055146104db578063b22aec5a146104fb578063b819fbd41461050e57600080fd5b806386ed41171461045257806391d148541461047257806392877ddc1461048557806395d89b41146104a5578063a217fddf146104ad57600080fd5b806336568abe116101d4578063498e516511610198578063498e5165146103e65780636352211e146103f957806370a082311461040c57806376ee32c11461041f578063834eb2481461043f57600080fd5b806336568abe146103775780633af32abf1461038a57806342842e0e146103ad57806344e46dff146103c0578063485cc955146103d357600080fd5b806323b40c0b1161021b57806323b40c0b146102f857806323b872dd14610319578063248a9ca31461032c5780632a0acc6a1461034f5780632f2ff15d1461036457600080fd5b806301ffc9a71461025857806306fdde0314610280578063081812fc14610295578063095ea7b3146102c0578063220f27eb146102d5575b600080fd5b61026b6102663660046127ae565b610633565b60405190151581526020015b60405180910390f35b610288610644565b6040516102779190612aa7565b6102a86102a3366004612772565b6106d6565b6040516001600160a01b039091168152602001610277565b6102d36102ce36600461262a565b6106fd565b005b61026b6102e3366004612772565b60cc6020526000908152604090205460ff1681565b61030b610306366004612772565b610818565b604051908152602001610277565b6102d3610327366004612541565b610828565b61030b61033a366004612772565b60009081526097602052604090206001015490565b61030b600080516020612d8b83398151915281565b6102d361037236600461278a565b610859565b6102d361038536600461278a565b61087e565b61026b61039836600461248a565b60ca6020526000908152604090205460ff1681565b6102d36103bb366004612541565b6108fc565b6102d36103ce36600461273a565b610917565b6102d36103e1366004612618565b610938565b6102d36103f43660046128e8565b610a5e565b6102a8610407366004612772565b610a87565b61030b61041a36600461248a565b610ae7565b61030b61042d366004612772565b60ce6020526000908152604090205481565b6102d361044d3660046126aa565b610b6d565b61030b610460366004612772565b60d16020526000908152604090205481565b61026b61048036600461278a565b610cd3565b61030b610493366004612772565b60cd6020526000908152604090205481565b610288610cfe565b61030b600081565b6102d36104c33660046125eb565b610d0d565b6102d36104d63660046124de565b610d18565b61030b6104e9366004612772565b60d06020526000908152604090205481565b6102d3610509366004612915565b610d43565b6102d361051c3660046128a3565b610db4565b6102d361052f366004612581565b610dd6565b6102d36105423660046128c7565b610e08565b61030b600080516020612d6b83398151915281565b6102d361056a366004612859565b610e2b565b6102d361057d3660046128c7565b610e37565b6102d361059036600461248a565b610e59565b6102886105a3366004612772565b610e94565b6102a86105b6366004612772565b60cf602052600090815260409020546001600160a01b031681565b6102d36105df36600461278a565b610f99565b61026b6105f23660046124a6565b6001600160a01b039182166000908152606a6020908152604080832093909416825291909152205460ff1690565b6102d361062e366004612655565b610fbe565b600061063e82610fe1565b92915050565b60606065805461065390612caf565b80601f016020809104026020016040519081016040528092919081815260200182805461067f90612caf565b80156106cc5780601f106106a1576101008083540402835291602001916106cc565b820191906000526020600020905b8154815290600101906020018083116106af57829003601f168201915b5050505050905090565b60006106e182611006565b506000908152606960205260409020546001600160a01b031690565b600061070882610a87565b9050806001600160a01b0316836001600160a01b0316141561077b5760405162461bcd60e51b815260206004820152602160248201527f4552433732313a20617070726f76616c20746f2063757272656e74206f776e656044820152603960f91b60648201526084015b60405180910390fd5b336001600160a01b0382161480610797575061079781336105f2565b6108095760405162461bcd60e51b815260206004820152603e60248201527f4552433732313a20617070726f76652063616c6c6572206973206e6f7420746f60448201527f6b656e206f776e6572206e6f7220617070726f76656420666f7220616c6c00006064820152608401610772565b6108138383611068565b505050565b600061063e633b9aca0083612c16565b61083233826110d6565b61084e5760405162461bcd60e51b815260040161077290612b57565b610813838383611155565b600082815260976020526040902060010154610874816112fc565b6108138383611306565b6001600160a01b03811633146108ee5760405162461bcd60e51b815260206004820152602f60248201527f416363657373436f6e74726f6c3a2063616e206f6e6c792072656e6f756e636560448201526e103937b632b9903337b91039b2b63360891b6064820152608401610772565b6108f8828261138c565b5050565b61081383838360405180602001604052806000815250610dd6565b600080516020612d8b83398151915261092f816112fc565b6108f8826113f3565b600054610100900460ff16158080156109585750600054600160ff909116105b806109725750303b158015610972575060005460ff166001145b6109d55760405162461bcd60e51b815260206004820152602e60248201527f496e697469616c697a61626c653a20636f6e747261637420697320616c72656160448201526d191e481a5b9a5d1a585b1a5e995960921b6064820152608401610772565b6000805460ff1916600117905580156109f8576000805461ff0019166101001790555b610a0061141f565b610a0b600084611306565b610a1482611448565b8015610813576000805461ff0019169055604051600181527f7f26b83ff96e1f2b6a682f133852f6798a09c465da95921460cefb38474024989060200160405180910390a1505050565b600080516020612d8b833981519152610a76816112fc565b610a81848484611491565b50505050565b6000818152606760205260408120546001600160a01b03168061063e5760405162461bcd60e51b8152602060048201526018602482015277115490cdcc8c4e881a5b9d985b1a59081d1bdad95b88125160421b6044820152606401610772565b60006001600160a01b038216610b515760405162461bcd60e51b815260206004820152602960248201527f4552433732313a2061646472657373207a65726f206973206e6f7420612076616044820152683634b21037bbb732b960b91b6064820152608401610772565b506001600160a01b031660009081526068602052604090205490565b600033308888604051602001610b869493929190612a16565b60408051601f198184030181529082905260d2549092506001600160a01b031690600190610bba9088908590602001612972565b60408051601f198184030181528282528051602091820120600084529083018083525260ff881690820152606081018690526080810185905260a0016020604051602081039080840390855afa158015610c18573d6000803e3d6000fd5b505050602060405103516001600160a01b031614610c6c5760405162461bcd60e51b8152602060048201526011602482015270496e76616c6964207369676e617475726560781b6044820152606401610772565b6000610c9e88886000818110610c9257634e487b7160e01b600052603260045260246000fd5b90506020020135610818565b600081815260d06020526040902054909150610cbc828a8a84611564565b610cc830338b8b611634565b505050505050505050565b60009182526097602090815260408084206001600160a01b0393909316845291905290205460ff1690565b60606066805461065390612caf565b6108f8338383611683565b600080516020612d8b833981519152610d30816112fc565b610d3c85858585611634565b5050505050565b600080516020612d8b833981519152610d5b816112fc565b81610d668486612c16565b14610da85760405162461bcd60e51b8152602060048201526012602482015271496e76616c696420696e707574206461746160701b6044820152606401610772565b610d3c33868685611752565b600080516020612d8b833981519152610dcc816112fc565b6108138383611826565b610de033836110d6565b610dfc5760405162461bcd60e51b815260040161077290612b57565b610a818484848461185f565b600080516020612d8b833981519152610e20816112fc565b610813838330611892565b6108133384848461196a565b600080516020612d8b833981519152610e4f816112fc565b6108138383611c31565b600080516020612d8b833981519152610e71816112fc565b5060d280546001600160a01b0319166001600160a01b0392909216919091179055565b6000818152606760205260409020546060906001600160a01b0316610f135760405162461bcd60e51b815260206004820152602f60248201527f4552433732314d657461646174613a2055524920717565727920666f72206e6f60448201526e3732bc34b9ba32b73a103a37b5b2b760891b6064820152608401610772565b60c95460405163d8bcda2760e01b8152306004820152602481018490526001600160a01b039091169063d8bcda279060440160006040518083038186803b158015610f5d57600080fd5b505afa158015610f71573d6000803e3d6000fd5b505050506040513d6000823e601f3d908101601f1916820160405261063e91908101906127e6565b600082815260976020526040902060010154610fb4816112fc565b610813838361138c565b600080516020612d8b833981519152610fd6816112fc565b610a81848484611d05565b60006001600160e01b03198216637965db0b60e01b148061063e575061063e82611d9d565b6000818152606760205260409020546001600160a01b03166110655760405162461bcd60e51b8152602060048201526018602482015277115490cdcc8c4e881a5b9d985b1a59081d1bdad95b88125160421b6044820152606401610772565b50565b600081815260696020526040902080546001600160a01b0319166001600160a01b038416908117909155819061109d82610a87565b6001600160a01b03167f8c5be1e5ebec7d5bd14f71427d1e84f3dd0314c0f7b2291e5b200ac8c7c3b92560405160405180910390a45050565b6000806110e283610a87565b9050806001600160a01b0316846001600160a01b0316148061112957506001600160a01b038082166000908152606a602090815260408083209388168352929052205460ff165b8061114d5750836001600160a01b0316611142846106d6565b6001600160a01b0316145b949350505050565b826001600160a01b031661116882610a87565b6001600160a01b0316146111cc5760405162461bcd60e51b815260206004820152602560248201527f4552433732313a207472616e736665722066726f6d20696e636f72726563742060448201526437bbb732b960d91b6064820152608401610772565b6001600160a01b03821661122e5760405162461bcd60e51b8152602060048201526024808201527f4552433732313a207472616e7366657220746f20746865207a65726f206164646044820152637265737360e01b6064820152608401610772565b611239838383611ded565b611244600082611068565b6001600160a01b038316600090815260686020526040812080546001929061126d908490612c55565b90915550506001600160a01b038216600090815260686020526040812080546001929061129b908490612bfe565b909155505060008181526067602052604080822080546001600160a01b0319166001600160a01b0386811691821790925591518493918716917fddf252ad1be2c89b69c2b068fc378daa952ba7f163c4a11628f55a4df523b3ef91a4505050565b6110658133611f47565b6113108282610cd3565b6108f85760008281526097602090815260408083206001600160a01b03851684529091529020805460ff191660011790556113483390565b6001600160a01b0316816001600160a01b0316837f2f8788117e7eff1d82e926ec794901d17c78024a50270940304540a733656f0d60405160405180910390a45050565b6113968282610cd3565b156108f85760008281526097602090815260408083206001600160a01b0385168085529252808320805460ff1916905551339285917ff6391f5c32d9c69d2a47ea670b442974b53935d1edc7fd64eb21e047a839171b9190a45050565b600080516020612d6b83398151915261140b816112fc565b5060cb805460ff1916911515919091179055565b600054610100900460ff166114465760405162461bcd60e51b815260040161077290612b0c565b565b600054610100900460ff1661146f5760405162461bcd60e51b815260040161077290612b0c565b60d380546001600160a01b0319166001600160a01b0392909216919091179055565b600061149c816112fc565b600084815260cd6020526040902054156114ef5760405162461bcd60e51b8152602060048201526014602482015273417373657420616c72656164792065786973747360601b6044820152606401610772565b600084815260cf6020526040902080546001600160a01b0319166001600160a01b03841617905561152484633b9aca00612c36565b600085815260cd60205260409020558261154285633b9aca00612c36565b61154c9190612bfe565b600094855260ce602052604090942093909355505050565b8160005b8181101561162c5785611594868684818110610c9257634e487b7160e01b600052603260045260246000fd5b146115db5760405162461bcd60e51b8152602060048201526017602482015276125b9d985b1a59081d1bdad95b88199bdc88185cdcd95d604a1b6044820152606401610772565b8260d1600087878581811061160057634e487b7160e01b600052603260045260246000fd5b90506020020135815260200190815260200160002081905550808061162490612cea565b915050611568565b505050505050565b8060005b8181101561162c57611671868686868581811061166557634e487b7160e01b600052603260045260246000fd5b90506020020135611155565b8061167b81612cea565b915050611638565b816001600160a01b0316836001600160a01b031614156116e55760405162461bcd60e51b815260206004820152601960248201527f4552433732313a20617070726f766520746f2063616c6c6572000000000000006044820152606401610772565b6001600160a01b038381166000818152606a6020908152604080832094871680845294825291829020805460ff191686151590811790915591519182527f17307eab39ab6107e8899845ad3d59bd9653f200f220920489ca2b5937696c31910160405180910390a3505050565b600080516020612d6b83398151915261176a816112fc565b600084815260d0602052604081208054849290611788908490612bfe565b9091555050600084815260cf6020526040908190205490516323b872dd60e01b81526001600160a01b03878116600483015230602483015260448201869052909116906323b872dd90606401602060405180830381600087803b1580156117ee57600080fd5b505af1158015611802573d6000803e3d6000fd5b505050506040513d601f19601f8201168201806040525081019061162c9190612756565b600080516020612d6b83398151915261183e816112fc565b50600091825260cc6020526040909120805460ff1916911515919091179055565b61186a848484611155565b61187684848484611fab565b610a815760405162461bcd60e51b815260040161077290612aba565b600080516020612d6b8339815191526118aa816112fc565b600084815260ce602090815260408083205460cd909252909120546118d0908590612bfe565b11156119135760405162461bcd60e51b8152602060048201526012602482015271082dadeeadce840caf0c6cacac8e640dac2f60731b6044820152606401610772565b60005b83811015610d3c57600085815260cd60205260409020546119389084906120b8565b600085815260cd6020526040812080549161195283612cea565b9190505550808061196290612cea565b915050611916565b600080516020612d6b833981519152611982816112fc565b6001600160a01b038516600090815260ca602052604090205460ff166119ea5760405162461bcd60e51b815260206004820152601860248201527f4f776e6572206973206e6f742077686974656c697374656400000000000000006044820152606401610772565b600084815260d060205260408120548390825b82811015611b9757886001600160a01b0316611a3e888884818110611a3257634e487b7160e01b600052603260045260246000fd5b90506020020135610a87565b6001600160a01b031614611a8a5760405162461bcd60e51b815260206004820152601360248201527224b73b30b634b2103a37b5b2b71037bbb732b960691b6044820152606401610772565b87611aae888884818110610c9257634e487b7160e01b600052603260045260246000fd5b14611af55760405162461bcd60e51b8152602060048201526017602482015276125b9d985b1a59081d1bdad95b88199bdc88185cdcd95d604a1b6044820152606401610772565b60d16000888884818110611b1957634e487b7160e01b600052603260045260246000fd5b9050602002013581526020019081526020016000205482611b3a9190612c55565b611b449085612bfe565b93508160d16000898985818110611b6b57634e487b7160e01b600052603260045260246000fd5b905060200201358152602001908152602001600020819055508080611b8f90612cea565b9150506119fd565b50600087815260cf6020526040908190205490516323b872dd60e01b81523060048201526001600160a01b038a8116602483015260448201869052909116906323b872dd90606401602060405180830381600087803b158015611bf957600080fd5b505af1158015611c0d573d6000803e3d6000fd5b505050506040513d601f19601f82011682018060405250810190610cc89190612756565b600080516020612d6b833981519152611c49816112fc565b81611c5884633b9aca00612c36565b611c629190612bfe565b600084815260cd60205260409020541115611cd55760405162461bcd60e51b815260206004820152602d60248201527f4173736574206361702063616e206e6f74206265206c6f776572207468616e2060448201526c1b5a5b9d195908185b5bdd5b9d609a1b6064820152608401610772565b81611ce484633b9aca00612c36565b611cee9190612bfe565b600093845260ce6020526040909320929092555050565b600080516020612d6b833981519152611d1d816112fc565b8260005b8181101561162c578360ca6000888885818110611d4e57634e487b7160e01b600052603260045260246000fd5b9050602002016020810190611d63919061248a565b6001600160a01b031681526020810191909152604001600020805460ff191691151591909117905580611d9581612cea565b915050611d21565b60006001600160e01b031982166380ac58cd60e01b1480611dce57506001600160e01b03198216635b5e139f60e01b145b8061063e57506301ffc9a760e01b6001600160e01b031983161461063e565b6001600160a01b0383161580611e0b57506001600160a01b03831630145b6108135760cb5460ff1615611e625760405162461bcd60e51b815260206004820152601e60248201527f5472616e7366657273206172652063757272656e746c792070617573656400006044820152606401610772565b60cc6000611e6f83610818565b815260208101919091526040016000205460ff1615611ec25760405162461bcd60e51b815260206004820152600f60248201526e105cdcd95d081a5cc81c185d5cd959608a1b6044820152606401610772565b6001600160a01b038316600090815260ca602052604090205460ff168015611f0257506001600160a01b038216600090815260ca602052604090205460ff165b6108135760405162461bcd60e51b815260206004820152601660248201527524b73b30b634b2103a37b5b2b7103a3930b739b332b960511b6044820152606401610772565b611f518282610cd3565b6108f857611f69816001600160a01b03166014612206565b611f74836020612206565b604051602001611f859291906129a1565b60408051601f198184030181529082905262461bcd60e51b825261077291600401612aa7565b60006001600160a01b0384163b156120ad57604051630a85bd0160e11b81526001600160a01b0385169063150b7a0290611fef903390899088908890600401612a6a565b602060405180830381600087803b15801561200957600080fd5b505af1925050508015612039575060408051601f3d908101601f19168201909252612036918101906127ca565b60015b612093573d808015612067576040519150601f19603f3d011682016040523d82523d6000602084013e61206c565b606091505b50805161208b5760405162461bcd60e51b815260040161077290612aba565b805181602001fd5b6001600160e01b031916630a85bd0160e11b14905061114d565b506001949350505050565b6001600160a01b03821661210e5760405162461bcd60e51b815260206004820181905260248201527f4552433732313a206d696e7420746f20746865207a65726f20616464726573736044820152606401610772565b6000818152606760205260409020546001600160a01b0316156121735760405162461bcd60e51b815260206004820152601c60248201527f4552433732313a20746f6b656e20616c7265616479206d696e746564000000006044820152606401610772565b61217f60008383611ded565b6001600160a01b03821660009081526068602052604081208054600192906121a8908490612bfe565b909155505060008181526067602052604080822080546001600160a01b0319166001600160a01b03861690811790915590518392907fddf252ad1be2c89b69c2b068fc378daa952ba7f163c4a11628f55a4df523b3ef908290a45050565b60606000612215836002612c36565b612220906002612bfe565b67ffffffffffffffff81111561224657634e487b7160e01b600052604160045260246000fd5b6040519080825280601f01601f191660200182016040528015612270576020820181803683370190505b509050600360fc1b8160008151811061229957634e487b7160e01b600052603260045260246000fd5b60200101906001600160f81b031916908160001a905350600f60fb1b816001815181106122d657634e487b7160e01b600052603260045260246000fd5b60200101906001600160f81b031916908160001a90535060006122fa846002612c36565b612305906001612bfe565b90505b6001811115612399576f181899199a1a9b1b9c1cb0b131b232b360811b85600f166010811061234757634e487b7160e01b600052603260045260246000fd5b1a60f81b82828151811061236b57634e487b7160e01b600052603260045260246000fd5b60200101906001600160f81b031916908160001a90535060049490941c9361239281612c98565b9050612308565b5083156123e85760405162461bcd60e51b815260206004820181905260248201527f537472696e67733a20686578206c656e67746820696e73756666696369656e746044820152606401610772565b9392505050565b60008083601f840112612400578081fd5b50813567ffffffffffffffff811115612417578182fd5b6020830191508360208260051b850101111561243257600080fd5b9250929050565b600082601f830112612449578081fd5b813561245c61245782612bd6565b612ba5565b818152846020838601011115612470578283fd5b816020850160208301379081016020019190915292915050565b60006020828403121561249b578081fd5b81356123e881612d31565b600080604083850312156124b8578081fd5b82356124c381612d31565b915060208301356124d381612d31565b809150509250929050565b600080600080606085870312156124f3578182fd5b84356124fe81612d31565b9350602085013561250e81612d31565b9250604085013567ffffffffffffffff811115612529578283fd5b612535878288016123ef565b95989497509550505050565b600080600060608486031215612555578283fd5b833561256081612d31565b9250602084013561257081612d31565b929592945050506040919091013590565b60008060008060808587031215612596578384fd5b84356125a181612d31565b935060208501356125b181612d31565b925060408501359150606085013567ffffffffffffffff8111156125d3578182fd5b6125df87828801612439565b91505092959194509250565b600080604083850312156125fd578182fd5b823561260881612d31565b915060208301356124d381612d46565b600080604083850312156124b8578182fd5b6000806040838503121561263c578182fd5b823561264781612d31565b946020939093013593505050565b600080600060408486031215612669578081fd5b833567ffffffffffffffff81111561267f578182fd5b61268b868287016123ef565b909450925050602084013561269f81612d46565b809150509250925092565b60008060008060008060a087890312156126c2578384fd5b863567ffffffffffffffff808211156126d9578586fd5b6126e58a838b016123ef565b909850965060208901359150808211156126fd578586fd5b5061270a89828a01612439565b945050604087013560ff81168114612720578283fd5b959894975092956060810135946080909101359350915050565b60006020828403121561274b578081fd5b81356123e881612d46565b600060208284031215612767578081fd5b81516123e881612d46565b600060208284031215612783578081fd5b5035919050565b6000806040838503121561279c578182fd5b8235915060208301356124d381612d31565b6000602082840312156127bf578081fd5b81356123e881612d54565b6000602082840312156127db578081fd5b81516123e881612d54565b6000602082840312156127f7578081fd5b815167ffffffffffffffff81111561280d578182fd5b8201601f8101841361281d578182fd5b805161282b61245782612bd6565b81815285602083850101111561283f578384fd5b612850826020830160208601612c6c565b95945050505050565b60008060006040848603121561286d578081fd5b83359250602084013567ffffffffffffffff81111561288a578182fd5b612896868287016123ef565b9497909650939450505050565b600080604083850312156128b5578182fd5b8235915060208301356124d381612d46565b600080604083850312156128d9578182fd5b50508035926020909101359150565b6000806000606084860312156128fc578081fd5b8335925060208401359150604084013561269f81612d31565b6000806000806080858703121561292a578182fd5b5050823594602084013594506040840135936060013592509050565b6000815180845261295e816020860160208601612c6c565b601f01601f19169290920160200192915050565b60008351612984818460208801612c6c565b835190830190612998818360208801612c6c565b01949350505050565b7f416363657373436f6e74726f6c3a206163636f756e74200000000000000000008152600083516129d9816017850160208801612c6c565b7001034b99036b4b9b9b4b733903937b6329607d1b6017918401918201528351612a0a816028840160208801612c6c565b01602801949350505050565b6001600160a01b03858116825284166020820152606060408201819052810182905260006001600160fb1b03831115612a4d578081fd5b8260051b8085608085013791909101608001908152949350505050565b6001600160a01b0385811682528416602082015260408101839052608060608201819052600090612a9d90830184612946565b9695505050505050565b6020815260006123e86020830184612946565b60208082526032908201527f4552433732313a207472616e7366657220746f206e6f6e20455243373231526560408201527131b2b4bb32b91034b6b83632b6b2b73a32b960711b606082015260800190565b6020808252602b908201527f496e697469616c697a61626c653a20636f6e7472616374206973206e6f74206960408201526a6e697469616c697a696e6760a81b606082015260800190565b6020808252602e908201527f4552433732313a2063616c6c6572206973206e6f7420746f6b656e206f776e6560408201526d1c881b9bdc88185c1c1c9bdd995960921b606082015260800190565b604051601f8201601f1916810167ffffffffffffffff81118282101715612bce57612bce612d1b565b604052919050565b600067ffffffffffffffff821115612bf057612bf0612d1b565b50601f01601f191660200190565b60008219821115612c1157612c11612d05565b500190565b600082612c3157634e487b7160e01b81526012600452602481fd5b500490565b6000816000190483118215151615612c5057612c50612d05565b500290565b600082821015612c6757612c67612d05565b500390565b60005b83811015612c87578181015183820152602001612c6f565b83811115610a815750506000910152565b600081612ca757612ca7612d05565b506000190190565b600181811c90821680612cc357607f821691505b60208210811415612ce457634e487b7160e01b600052602260045260246000fd5b50919050565b6000600019821415612cfe57612cfe612d05565b5060010190565b634e487b7160e01b600052601160045260246000fd5b634e487b7160e01b600052604160045260246000fd5b6001600160a01b038116811461106557600080fd5b801515811461106557600080fd5b6001600160e01b03198116811461106557600080fdfef40ec076ff2e3a403e1c18632267861d39085e7f359ca5665846f335632cf819df8b4c520ffe197c5343c6f5aec59570151ef9a492f2c624fd45ddde6135ec42a2646970667358221220ce20aee036186a6ca1897f3efd5d4abad78c071c46c3d64a3af447f811f1111f64736f6c63430008040033",
  "linkReferences": {},
  "deployedLinkReferences": {}
}