{
  "_format": "hh-sol-artifact-1",
  "contractName": "AssetHandler",
  "sourceName": "contracts/AssetHandler.sol",
  "abi": [
    {
      "inputs": [
        {
          "internalType": "contract IAssetIssuerState",
          "name": "_issuerState",
          "type": "address"
        },
        {
          "internalType": "address",
          "name": "_default_admin",
          "type": "address"
        }
      ],
      "stateMutability": "nonpayable",
      "type": "constructor"
    },
    {
      "anonymous": false,
      "inputs": [
        {
          "indexed": false,
          "internalType": "address",
          "name": "account",
          "type": "address"
        }
      ],
      "name": "Paused",
      "type": "event"
    },
    {
      "anonymous": false,
      "inputs": [
        {
          "indexed": true,
          "internalType": "bytes32",
          "name": "role",
          "type": "bytes32"
        },
        {
          "indexed": true,
          "internalType": "bytes32",
          "name": "previousAdminRole",
          "type": "bytes32"
        },
        {
          "indexed": true,
          "internalType": "bytes32",
          "name": "newAdminRole",
          "type": "bytes32"
        }
      ],
      "name": "RoleAdminChanged",
      "type": "event"
    },
    {
      "anonymous": false,
      "inputs": [
        {
          "indexed": true,
          "internalType": "bytes32",
          "name": "role",
          "type": "bytes32"
        },
        {
          "indexed": true,
          "internalType": "address",
          "name": "account",
          "type": "address"
        },
        {
          "indexed": true,
          "internalType": "address",
          "name": "sender",
          "type": "address"
        }
      ],
      "name": "RoleGranted",
      "type": "event"
    },
    {
      "anonymous": false,
      "inputs": [
        {
          "indexed": true,
          "internalType": "bytes32",
          "name": "role",
          "type": "bytes32"
        },
        {
          "indexed": true,
          "internalType": "address",
          "name": "account",
          "type": "address"
        },
        {
          "indexed": true,
          "internalType": "address",
          "name": "sender",
          "type": "address"
        }
      ],
      "name": "RoleRevoked",
      "type": "event"
    },
    {
      "anonymous": false,
      "inputs": [
        {
          "indexed": false,
          "internalType": "address",
          "name": "account",
          "type": "address"
        }
      ],
      "name": "Unpaused",
      "type": "event"
    },
    {
      "inputs": [],
      "name": "ADMIN",
      "outputs": [
        {
          "internalType": "bytes32",
          "name": "",
          "type": "bytes32"
        }
      ],
      "stateMutability": "view",
      "type": "function"
    },
    {
      "inputs": [],
      "name": "DEFAULT_ADMIN_ROLE",
      "outputs": [
        {
          "internalType": "bytes32",
          "name": "",
          "type": "bytes32"
        }
      ],
      "stateMutability": "view",
      "type": "function"
    },
    {
      "inputs": [
        {
          "internalType": "uint256",
          "name": "_assetId",
          "type": "uint256"
        },
        {
          "internalType": "uint256",
          "name": "_totalRev",
          "type": "uint256"
        },
        {
          "internalType": "uint256",
          "name": "_unitsCount",
          "type": "uint256"
        },
        {
          "internalType": "uint256",
          "name": "_amountPerShare",
          "type": "uint256"
        }
      ],
      "name": "addRevenue",
      "outputs": [],
      "stateMutability": "nonpayable",
      "type": "function"
    },
    {
      "inputs": [
        {
          "internalType": "uint256",
          "name": "_assetId",
          "type": "uint256"
        },
        {
          "internalType": "uint256[]",
          "name": "_tokenIds",
          "type": "uint256[]"
        }
      ],
      "name": "claimRevenue",
      "outputs": [],
      "stateMutability": "nonpayable",
      "type": "function"
    },
    {
      "inputs": [
        {
          "internalType": "uint256[]",
          "name": "_tokenIds",
          "type": "uint256[]"
        },
        {
          "internalType": "bytes",
          "name": "_prefix",
          "type": "bytes"
        },
        {
          "internalType": "uint8",
          "name": "_v",
          "type": "uint8"
        },
        {
          "internalType": "bytes32",
          "name": "_r",
          "type": "bytes32"
        },
        {
          "internalType": "bytes32",
          "name": "_s",
          "type": "bytes32"
        }
      ],
      "name": "claimUnits",
      "outputs": [],
      "stateMutability": "nonpayable",
      "type": "function"
    },
    {
      "inputs": [
        {
          "internalType": "uint256",
          "name": "_assetId",
          "type": "uint256"
        },
        {
          "internalType": "uint256",
          "name": "_tokenCap",
          "type": "uint256"
        },
        {
          "internalType": "contract IERC20",
          "name": "_revToken",
          "type": "address"
        }
      ],
      "name": "createAsset",
      "outputs": [],
      "stateMutability": "nonpayable",
      "type": "function"
    },
    {
      "inputs": [
        {
          "internalType": "bytes32",
          "name": "role",
          "type": "bytes32"
        }
      ],
      "name": "getRoleAdmin",
      "outputs": [
        {
          "internalType": "bytes32",
          "name": "",
          "type": "bytes32"
        }
      ],
      "stateMutability": "view",
      "type": "function"
    },
    {
      "inputs": [
        {
          "internalType": "bytes32",
          "name": "role",
          "type": "bytes32"
        },
        {
          "internalType": "address",
          "name": "account",
          "type": "address"
        }
      ],
      "name": "grantRole",
      "outputs": [],
      "stateMutability": "nonpayable",
      "type": "function"
    },
    {
      "inputs": [
        {
          "internalType": "bytes32",
          "name": "role",
          "type": "bytes32"
        },
        {
          "internalType": "address",
          "name": "account",
          "type": "address"
        }
      ],
      "name": "hasRole",
      "outputs": [
        {
          "internalType": "bool",
          "name": "",
          "type": "bool"
        }
      ],
      "stateMutability": "view",
      "type": "function"
    },
    {
      "inputs": [],
      "name": "issuerState",
      "outputs": [
        {
          "internalType": "contract IAssetIssuerState",
          "name": "",
          "type": "address"
        }
      ],
      "stateMutability": "view",
      "type": "function"
    },
    {
      "inputs": [
        {
          "internalType": "uint256",
          "name": "_assetId",
          "type": "uint256"
        },
        {
          "internalType": "uint256",
          "name": "_amount",
          "type": "uint256"
        }
      ],
      "name": "mintAsset",
      "outputs": [],
      "stateMutability": "nonpayable",
      "type": "function"
    },
    {
      "inputs": [],
      "name": "pauseHandler",
      "outputs": [],
      "stateMutability": "nonpayable",
      "type": "function"
    },
    {
      "inputs": [],
      "name": "paused",
      "outputs": [
        {
          "internalType": "bool",
          "name": "",
          "type": "bool"
        }
      ],
      "stateMutability": "view",
      "type": "function"
    },
    {
      "inputs": [
        {
          "internalType": "bytes32",
          "name": "role",
          "type": "bytes32"
        },
        {
          "internalType": "address",
          "name": "account",
          "type": "address"
        }
      ],
      "name": "renounceRole",
      "outputs": [],
      "stateMutability": "nonpayable",
      "type": "function"
    },
    {
      "inputs": [
        {
          "internalType": "address",
          "name": "_from",
          "type": "address"
        },
        {
          "internalType": "address",
          "name": "_to",
          "type": "address"
        },
        {
          "internalType": "uint256[]",
          "name": "_tokenIds",
          "type": "uint256[]"
        }
      ],
      "name": "returnUnits",
      "outputs": [],
      "stateMutability": "nonpayable",
      "type": "function"
    },
    {
      "inputs": [
        {
          "internalType": "bytes32",
          "name": "role",
          "type": "bytes32"
        },
        {
          "internalType": "address",
          "name": "account",
          "type": "address"
        }
      ],
      "name": "revokeRole",
      "outputs": [],
      "stateMutability": "nonpayable",
      "type": "function"
    },
    {
      "inputs": [
        {
          "internalType": "uint256",
          "name": "_assetId",
          "type": "uint256"
        },
        {
          "internalType": "bool",
          "name": "_paused",
          "type": "bool"
        }
      ],
      "name": "setAssetTransfersPaused",
      "outputs": [],
      "stateMutability": "nonpayable",
      "type": "function"
    },
    {
      "inputs": [
        {
          "internalType": "bool",
          "name": "_paused",
          "type": "bool"
        }
      ],
      "name": "setTransfersPaused",
      "outputs": [],
      "stateMutability": "nonpayable",
      "type": "function"
    },
    {
      "inputs": [
        {
          "internalType": "address[]",
          "name": "_users",
          "type": "address[]"
        },
        {
          "internalType": "bool",
          "name": "_isWhitelisted",
          "type": "bool"
        }
      ],
      "name": "setWhitelisted",
      "outputs": [],
      "stateMutability": "nonpayable",
      "type": "function"
    },
    {
      "inputs": [
        {
          "internalType": "bytes4",
          "name": "interfaceId",
          "type": "bytes4"
        }
      ],
      "name": "supportsInterface",
      "outputs": [
        {
          "internalType": "bool",
          "name": "",
          "type": "bool"
        }
      ],
      "stateMutability": "view",
      "type": "function"
    },
    {
      "inputs": [],
      "name": "unpauseHandler",
      "outputs": [],
      "stateMutability": "nonpayable",
      "type": "function"
    },
    {
      "inputs": [
        {
          "internalType": "uint256",
          "name": "_assetId",
          "type": "uint256"
        },
        {
          "internalType": "uint256",
          "name": "_tokenCap",
          "type": "uint256"
        }
      ],
      "name": "updateAssetCap",
      "outputs": [],
      "stateMutability": "nonpayable",
      "type": "function"
    },
    {
      "inputs": [
        {
          "internalType": "address",
          "name": "_serverPubKey",
          "type": "address"
        }
      ],
      "name": "updateServer",
      "outputs": [],
      "stateMutability": "nonpayable",
      "type": "function"
    }
  ],
  "bytecode": "0x60806040523480156200001157600080fd5b50604051620018ed380380620018ed833981016040819052620000349162000109565b600180546001600160a81b0319166101006001600160a01b038516021790556200006060008262000068565b505062000160565b6000828152602081815260408083206001600160a01b038516845290915290205460ff1662000105576000828152602081815260408083206001600160a01b03851684529091529020805460ff19166001179055620000c43390565b6001600160a01b0316816001600160a01b0316837f2f8788117e7eff1d82e926ec794901d17c78024a50270940304540a733656f0d60405160405180910390a45b5050565b600080604083850312156200011c578182fd5b8251620001298162000147565b60208401519092506200013c8162000147565b809150509250929050565b6001600160a01b03811681146200015d57600080fd5b50565b61177d80620001706000396000f3fe608060405234801561001057600080fd5b506004361061014d5760003560e01c806391d14854116100c3578063bfef15201161007c578063bfef1520146102cb578063c58354b7146102de578063c7830317146102f1578063d547741f14610304578063f3c4b70414610317578063f7bb00c41461032a57600080fd5b806391d1485414610264578063a217fddf14610277578063a86e66761461027f578063b22aec5a14610292578063b819fbd4146102a5578063b88dab32146102b857600080fd5b806336568abe1161011557806336568abe146102055780633691e3ef1461021857806344e46dff14610220578063498e5165146102335780635c975abb14610246578063834eb2481461025157600080fd5b806301ffc9a714610152578063123063641461017a578063248a9ca3146101aa5780632a0acc6a146101db5780632f2ff15d146101f0575b600080fd5b61016561016036600461131b565b610332565b60405190151581526020015b60405180910390f35b6001546101929061010090046001600160a01b031681565b6040516001600160a01b039091168152602001610171565b6101cd6101b83660046112d4565b60009081526020819052604090206001015490565b604051908152602001610171565b6101cd60008051602061172883398151915281565b6102036101fe3660046112ec565b610369565b005b6102036102133660046112ec565b610393565b610203610416565b61020361022e3660046112ba565b610439565b6102036102413660046113f1565b6104b8565b60015460ff16610165565b61020361025f3660046111c3565b61054a565b6101656102723660046112ec565b610879565b6101cd600081565b61020361028d36600461110e565b6108a2565b6102036102a0366004611429565b61092d565b6102036102b33660046113a5565b6109db565b6102036102c63660046113d0565b610a63565b6102036102d936600461135b565b610abe565b6102036102ec3660046113d0565b610b00565b6102036102ff3660046110f2565b610b54565b6102036103123660046112ec565b610b8f565b610203610325366004611171565b610bb4565b610203610c04565b60006001600160e01b03198216637965db0b60e01b148061036357506301ffc9a760e01b6001600160e01b03198316145b92915050565b60008281526020819052604090206001015461038481610c24565b61038e8383610c2e565b505050565b6001600160a01b03811633146104085760405162461bcd60e51b815260206004820152602f60248201527f416363657373436f6e74726f6c3a2063616e206f6e6c792072656e6f756e636560448201526e103937b632b9903337b91039b2b63360891b60648201526084015b60405180910390fd5b6104128282610cb2565b5050565b60008051602061172883398151915261042e81610c24565b610436610d17565b50565b60008051602061172883398151915261045181610c24565b6001546040516344e46dff60e01b815283151560048201526101009091046001600160a01b0316906344e46dff90602401600060405180830381600087803b15801561049c57600080fd5b505af11580156104b0573d6000803e3d6000fd5b505050505050565b6000805160206117288339815191526104d081610c24565b60015460405163498e516560e01b815260048101869052602481018590526001600160a01b0384811660448301526101009092049091169063498e5165906064015b600060405180830381600087803b15801561052c57600080fd5b505af1158015610540573d6000803e3d6000fd5b5050505050505050565b610552610d6b565b60015460405160009161057c91339161010090046001600160a01b0316908a908a90602001611532565b60408051601f19818403018152908290526002549092506001600160a01b0316906001906105b0908890859060200161148e565b60408051601f198184030181528282528051602091820120600084529083018083525260ff881690820152606081018690526080810185905260a0016020604051602081039080840390855afa15801561060e573d6000803e3d6000fd5b505050602060405103516001600160a01b0316146106625760405162461bcd60e51b8152602060048201526011602482015270496e76616c6964207369676e617475726560781b60448201526064016103ff565b60015460009061010090046001600160a01b031663665b89a78989848161069957634e487b7160e01b600052603260045260246000fd5b905060200201356040518263ffffffff1660e01b81526004016106be91815260200190565b60206040518083038186803b1580156106d657600080fd5b505afa1580156106ea573d6000803e3d6000fd5b505050506040513d601f19601f8201168201806040525081019061070e9190611343565b60015460405163ac2b205560e01b8152600481018390529192506000916101009091046001600160a01b03169063ac2b20559060240160206040518083038186803b15801561075c57600080fd5b505afa158015610770573d6000803e3d6000fd5b505050506040513d601f19601f820116820180604052508101906107949190611343565b600154604051630d4125df60e21b815291925061010090046001600160a01b031690633504977c906107d09085908d908d90879060040161161d565b600060405180830381600087803b1580156107ea57600080fd5b505af11580156107fe573d6000803e3d6000fd5b50506001546040516334ec9d6f60e01b81526101009091046001600160a01b031692506334ec9d6f915061083c90839033908e908e90600401611532565b600060405180830381600087803b15801561085657600080fd5b505af115801561086a573d6000803e3d6000fd5b50505050505050505050505050565b6000918252602082815260408084206001600160a01b0393909316845291905290205460ff1690565b6000805160206117288339815191526108ba81610c24565b6001546040516334ec9d6f60e01b81526101009091046001600160a01b0316906334ec9d6f906108f4908890889088908890600401611532565b600060405180830381600087803b15801561090e57600080fd5b505af1158015610922573d6000803e3d6000fd5b505050505050505050565b60008051602061172883398151915261094581610c24565b816109508486611660565b146109925760405162461bcd60e51b8152602060048201526012602482015271496e76616c696420696e707574206461746160701b60448201526064016103ff565b600154604051632743062d60e01b81523360048201526024810187905260448101869052606481018490526101009091046001600160a01b031690632743062d906084016108f4565b6000805160206117288339815191526109f381610c24565b600154604051632e067ef560e21b81526004810185905283151560248201526101009091046001600160a01b03169063b819fbd4906044015b600060405180830381600087803b158015610a4657600080fd5b505af1158015610a5a573d6000803e3d6000fd5b50505050505050565b600080516020611728833981519152610a7b81610c24565b60015460405163031e7aa960e61b815260048101859052602481018490526101009091046001600160a01b0316604482018190529063c79eaa4090606401610a2c565b610ac6610d6b565b60015460405163ed26490d60e01b81526101009091046001600160a01b03169063ed26490d90610a2c903390879087908790600401611569565b600080516020611728833981519152610b1881610c24565b60015460405163b754430160e01b815260048101859052602481018490526101009091046001600160a01b03169063b754430190604401610a2c565b600080516020611728833981519152610b6c81610c24565b50600280546001600160a01b0319166001600160a01b0392909216919091179055565b600082815260208190526040902060010154610baa81610c24565b61038e8383610cb2565b600080516020611728833981519152610bcc81610c24565b600154604051633cf12dc160e21b81526101009091046001600160a01b03169063f3c4b7049061051290879087908790600401611591565b600080516020611728833981519152610c1c81610c24565b610436610db3565b6104368133610dec565b610c388282610879565b610412576000828152602081815260408083206001600160a01b03851684529091529020805460ff19166001179055610c6e3390565b6001600160a01b0316816001600160a01b0316837f2f8788117e7eff1d82e926ec794901d17c78024a50270940304540a733656f0d60405160405180910390a45050565b610cbc8282610879565b15610412576000828152602081815260408083206001600160a01b0385168085529252808320805460ff1916905551339285917ff6391f5c32d9c69d2a47ea670b442974b53935d1edc7fd64eb21e047a839171b9190a45050565b610d1f610d6b565b6001805460ff1916811790557f62e78cea01bee320cd4e420270b5ea74000d11b0c9f74754ebdbfc544b05a258335b6040516001600160a01b03909116815260200160405180910390a1565b60015460ff1615610db15760405162461bcd60e51b815260206004820152601060248201526f14185d5cd8589b194e881c185d5cd95960821b60448201526064016103ff565b565b610dbb610e50565b6001805460ff191690557f5db9ee0a495bf2e6ff9c91a7834c1ba4fdd244a5e8aa4e537bd38aeae4b073aa33610d4e565b610df68282610879565b61041257610e0e816001600160a01b03166014610e99565b610e19836020610e99565b604051602001610e2a9291906114bd565b60408051601f198184030181529082905262461bcd60e51b82526103ff916004016115ea565b60015460ff16610db15760405162461bcd60e51b815260206004820152601460248201527314185d5cd8589b194e881b9bdd081c185d5cd95960621b60448201526064016103ff565b60606000610ea8836002611680565b610eb3906002611648565b67ffffffffffffffff811115610ed957634e487b7160e01b600052604160045260246000fd5b6040519080825280601f01601f191660200182016040528015610f03576020820181803683370190505b509050600360fc1b81600081518110610f2c57634e487b7160e01b600052603260045260246000fd5b60200101906001600160f81b031916908160001a905350600f60fb1b81600181518110610f6957634e487b7160e01b600052603260045260246000fd5b60200101906001600160f81b031916908160001a9053506000610f8d846002611680565b610f98906001611648565b90505b600181111561102c576f181899199a1a9b1b9c1cb0b131b232b360811b85600f1660108110610fda57634e487b7160e01b600052603260045260246000fd5b1a60f81b828281518110610ffe57634e487b7160e01b600052603260045260246000fd5b60200101906001600160f81b031916908160001a90535060049490941c93611025816116cf565b9050610f9b565b50831561107b5760405162461bcd60e51b815260206004820181905260248201527f537472696e67733a20686578206c656e67746820696e73756666696369656e7460448201526064016103ff565b9392505050565b60008083601f840112611093578081fd5b50813567ffffffffffffffff8111156110aa578182fd5b6020830191508360208260051b85010111156110c557600080fd5b9250929050565b803580151581146110dc57600080fd5b919050565b803560ff811681146110dc57600080fd5b600060208284031215611103578081fd5b813561107b81611712565b60008060008060608587031215611123578283fd5b843561112e81611712565b9350602085013561113e81611712565b9250604085013567ffffffffffffffff811115611159578283fd5b61116587828801611082565b95989497509550505050565b600080600060408486031215611185578283fd5b833567ffffffffffffffff81111561119b578384fd5b6111a786828701611082565b90945092506111ba9050602085016110cc565b90509250925092565b60008060008060008060a087890312156111db578182fd5b863567ffffffffffffffff808211156111f2578384fd5b6111fe8a838b01611082565b90985096506020890135915080821115611216578384fd5b818901915089601f830112611229578384fd5b81358181111561123b5761123b6116fc565b604051601f8201601f19908116603f01168101908382118183101715611263576112636116fc565b816040528281528c602084870101111561127b578687fd5b826020860160208301379182016020018690525095506112a0915050604088016110e1565b925060608701359150608087013590509295509295509295565b6000602082840312156112cb578081fd5b61107b826110cc565b6000602082840312156112e5578081fd5b5035919050565b600080604083850312156112fe578182fd5b82359150602083013561131081611712565b809150509250929050565b60006020828403121561132c578081fd5b81356001600160e01b03198116811461107b578182fd5b600060208284031215611354578081fd5b5051919050565b60008060006040848603121561136f578283fd5b83359250602084013567ffffffffffffffff81111561138c578283fd5b61139886828701611082565b9497909650939450505050565b600080604083850312156113b7578182fd5b823591506113c7602084016110cc565b90509250929050565b600080604083850312156113e2578182fd5b50508035926020909101359150565b600080600060608486031215611405578081fd5b8335925060208401359150604084013561141e81611712565b809150509250925092565b6000806000806080858703121561143e578182fd5b5050823594602084013594506040840135936060013592509050565b81835260006001600160fb1b03831115611472578081fd5b8260051b80836020870137939093016020019283525090919050565b600083516114a081846020880161169f565b8351908301906114b481836020880161169f565b01949350505050565b7f416363657373436f6e74726f6c3a206163636f756e74200000000000000000008152600083516114f581601785016020880161169f565b7001034b99036b4b9b9b4b733903937b6329607d1b601791840191820152835161152681602884016020880161169f565b01602801949350505050565b6001600160a01b0385811682528416602082015260606040820181905260009061155f908301848661145a565b9695505050505050565b60018060a01b038516815283602082015260606040820152600061155f60608301848661145a565b6040808252810183905260008460608301825b868110156115d45782356115b781611712565b6001600160a01b03168252602092830192909101906001016115a4565b5080925050508215156020830152949350505050565b602081526000825180602084015261160981604085016020870161169f565b601f01601f19169190910160400192915050565b84815260606020820152600061163760608301858761145a565b905082604083015295945050505050565b6000821982111561165b5761165b6116e6565b500190565b60008261167b57634e487b7160e01b81526012600452602481fd5b500490565b600081600019048311821515161561169a5761169a6116e6565b500290565b60005b838110156116ba5781810151838201526020016116a2565b838111156116c9576000848401525b50505050565b6000816116de576116de6116e6565b506000190190565b634e487b7160e01b600052601160045260246000fd5b634e487b7160e01b600052604160045260246000fd5b6001600160a01b038116811461043657600080fdfedf8b4c520ffe197c5343c6f5aec59570151ef9a492f2c624fd45ddde6135ec42a26469706673582212202425cd36066c682beb153525788a03c3dcd42154f7c9a7b3e3dece725dfd90b764736f6c63430008040033",
  "linkReferences": {},
  "deployedLinkReferences": {}
}